:020000040800F2
:1000000000000520A5050008511F0008531F000827
:10001000551F0008571F0008591F00080000000066
:10002000000000000000000000000000D183000874
:100030005B1F00080000000061840008ED7C0008E0
:10004000F5050008F5050008F5050008F5050008A8
:10005000F5050008F5050008F5050008F505000898
:10006000F5050008F5050008F5050008F505000888
:10007000F5050008F5050008F5050008F505000878
:10008000F5050008F5050008F5050008F505000868
:10009000F5050008F5050008F5050008F505000858
:1000A000F5050008F5050008F5050008F505000848
:1000B000F5050008F5050008F5050008F505000838
:1000C000F5050008F5050008F5050008F505000828
:1000D000F5050008F5050008F5050008F505000818
:1000E000F5050008F5050008F5050008F505000808
:1000F000F5050008F5050008F5050008F5050008F8
:10010000F5050008F5050008F5050008F5050008E7
:10011000F5050008F50500085D1F0008F505000855
:10012000F5050008F5050008F5050008F5050008C7
:10013000F5050008F5050008F5050008F5050008B7
:10014000F5050008F5050008F5050008F5050008A7
:10015000F5050008F5050008F5050008F505000897
:10016000F5050008F5050008F5050008F505000887
:10017000F5050008F5050008F50500080000000079
:10018000F5050008F5050008F5050008F505000867
:10019000F5050008F5050008F5050008F505000857
:1001A000691F0008F5050008751F0008F50500081F
:0401B000811F0008A3
:1001C00010B5054C237833B9044B13B10448AFF391
:1001D00000800123237010BD4001002000000000BA
:1001E0001CDE010808B5034B1BB103490348AFF3FC
:1001F000008008BD00000000440100201CDE010852
:1002000001F0FF01102A2BDB10F0070F08D010F8C7
:10021000013B013A8B422DD010F0070F42B3F6D1CB
:10022000F0B441EA012141EA014122F007047FF0E4
:1002300000070023F0E80256083C85EA010586EA3B
:10024000010685FA47F5A3FA87F586FA47F6A5FA77
:1002500087F68EB9EED1F0BC01F0FF0102F0070283
:1002600032B110F8013B013A83EA010313B1F8D12E
:100270000020704701387047002D06BF354603380F
:10028000073815F0010F07D1013015F4807F02BF48
:10029000013015F4C03F0130F0BC0138704700BF99
:1002A00053B94AB9002908BF00281CBF4FF0FF31DD
:1002B0004FF0FF3000F074B9ADF1080C6DE904CED9
:1002C00000F006F8DDF804E0DDE9022304B0704731
:1002D0002DE9F047089D04468E46002B4DD18A42F9
:1002E000944669D9B2FA82F252B101FA02F3C2F12C
:1002F000200120FA01F10CFA02FC41EA030E9440BD
:100300004FEA1C48210CBEFBF8F61FFA8CF708FBDD
:1003100016E341EA034306FB07F199420AD91CEBB5
:10032000030306F1FF3080F01F81994240F21C81E7
:10033000023E63445B1AA4B2B3FBF8F008FB10332F
:1003400044EA034400FB07F7A7420AD91CEB040464
:1003500000F1FF3380F00A81A74240F20781644434
:10036000023840EA0640E41B00261DB1D4400023B9
:10037000C5E900433146BDE8F0878B4209D9002D1D
:1003800000F0EF800026C5E9000130463146BDE8A7
:10039000F087B3FA83F6002E4AD18B4202D3824211
:1003A00000F2F980841A61EB030301209E46002DC0
:1003B000E0D0C5E9004EDDE702B9FFDEB2FA82F215
:1003C000002A40F09280A1EB0C014FEA1C471FFA73
:1003D0008CFE0126200CB1FBF7F307FB131140EA5A
:1003E00001410EFB03F0884208D91CEB010103F127
:1003F000FF3802D2884200F2CB804346091AA4B2E9
:10040000B1FBF7F007FB101144EA01440EFB00FEBC
:10041000A64508D91CEB040400F1FF3102D2A64521
:1004200000F2BB800846A4EB0E0440EA03409CE7C0
:10043000C6F12007B34022FA07FC4CEA030C20FA6D
:1004400007F401FA06F31C43F9404FEA1C4900FA8D
:1004500006F3B1FBF9F8200C1FFA8CFE09FB18110A
:1004600040EA014108FB0EF0884202FA06F20BD97D
:100470001CEB010108F1FF3A80F08880884240F2CD
:100480008580A8F102086144091AA4B2B1FBF9F011
:1004900009FB101144EA014100FB0EFE8E4508D90C
:1004A0001CEB010100F1FF346CD28E456AD9023891
:1004B000614440EA0840A0FB0294A1EB0E01A14276
:1004C000C846A64656D353D05DB1B3EB080261EBE4
:1004D0000E0101FA07F722FA06F3F1401F43C5E9BE
:1004E000007100263146BDE8F087C2F12003D840F4
:1004F0000CFA02FC21FA03F3914001434FEA1C4736
:100500001FFA8CFEB3FBF7F007FB10360B0C43EA27
:10051000064300FB0EF69E4204FA02F408D91CEBD7
:10052000030300F1FF382FD29E422DD902386344D5
:100530009B1B89B2B3FBF7F607FB163341EA034175
:1005400006FB0EF38B4208D91CEB010106F1FF38C4
:1005500016D28B4214D9023E6144C91A46EA0046BB
:1005600038E72E46284605E70646E3E61846F8E64D
:100570004B45A9D2B9EB020864EB0C0E0138A3E796
:100580004646EAE7204694E74046D1E7D0467BE777
:10059000023B614432E7304609E76444023842E7EF
:1005A000704700BFDFF834D0002103E00C4B5B58EC
:1005B000435004310B480C4B42189A42F6D30B4A75
:1005C00002E0002342F8043B094B9A42F9D304F0BD
:1005D00077FB1CF0BDFB00F07DFF7047000005209D
:1005E0005C1D0208000000204001002040010020A6
:1005F000B0AA0020FEE700F0F9BD00F067BE0021C0
:10060000084603F0C5BE002003F0FCBE40687047FA
:10061000416070474FF0E022D2F8FC3D43F0807318
:10062000C2F8FC3DA2F55042136843F00103136089
:100630007047511A01EB5301B1FBF3F07047000012
:10064000014B5868704700BF001000E0704710B5BC
:100650000C2104461CF004FB204610BD036810B5B5
:100660001B69044631B19847A26863689B1A184415
:10067000606010BD9847A060FBE7704770470000BE
:1006800008B5FFF7BCFF024B00221A6008BD00BF8F
:100690005C01002070B50D46FFF7B5FF0B4A93785B
:1006A00056781178D370C4B213F00100967051706F
:1006B00014700AD016F0010007D011F0010004D028
:1006C000E3075ABF01202870002070BD5C010020A4
:1006D00010B5042104461CF0C3FA204610BD704733
:1006E00010B5042104461CF0BBFA204610BD0000E2
:1006F00008B54FF4F0714FF4487004F033FA074B2B
:1007000010B901221A7008BD1B78002BFBD1044BD5
:10071000044A054827211CF0D1FA00BF60010020DF
:10072000B8DE0108CBDE0108F5DE01087FB50B4B12
:100730001C780E4615465CB101A804F04BFA9DF8F2
:10074000043043B1BDF806303360BDF80A302B6089
:10075000204604B070BD1C46FAE700BF60010020CF
:1007600001280BD0032810D0C0B90D4B1A68B2FA7B
:1007700082F2520904210B4805F0C6BA084B5A68A8
:10078000B2FA82F252094021F5E7054B0648DA68D1
:10079000B2FA82F252094FF48051EDE7704700BF80
:1007A00064010020000002400018024001280BD024
:1007B000032810D0C0B90D4B1A68003A18BF0122A7
:1007C00004210B4805F0A0BA084B5A68003A18BF3C
:1007D00001224021F5E7054B0648DA68003A18BFC8
:1007E00001224FF48051EDE7704700BF6401002003
:1007F0000000024000180240012806D0032806D05D
:1008000048B90421044805F084BA4021FAE70348B6
:100810004FF48051F7E77047000002400018024093
:10082000012808B50AD003280AD068B9042107486E
:1008300005F064FA431E5842584108BD4021F6E7CE
:1008400003484FF48051F3E70020F3E70000024033
:100850000018024070B5084D00240126E0B2FFF7F1
:10086000DFFF18B12B68012B18BF2E600134052C57
:1008700005F10405F2D170BD64010020012380F868
:10088000741080F87530704700207047034B416446
:10089000003918BF01211970704700BF0BA8002054
:1008A00000207047836B0BB10846184770474FF61E
:1008B000FF707047406803689B691847704770472E
:1008C000014B1868704700BF74010020704700009A
:1008D00038B50446094DFFF7BDFF204600F076FD10
:1008E000002384F84A302846FFF794FE012384F859
:1008F0006C30034B2561636138BD00BF800100206F
:100900007C0100200368044607B5D3F8803098477F
:10091000236820469B6F984700F02EFA23682046F4
:100920001B6F98470021064800912923152204F0E7
:10093000D4FF00F021FA236820461B6F9847F8E7A0
:100940003816002010B504460AF0C6FC236820467D
:10095000D3F8AC30BDE81040184700F036BD00F0C9
:100960004CBD00F04CBD00F01FBD00F025BD00F0F7
:1009700049BD0000024B00221A7009F075BE00BF8D
:100980001400002010B5044609F07AFE94F84B30AC
:1009900013B1024B01221A7010BD00BF14000020D9
:1009A00009F026BE10B57C2104461CF059F92046FA
:1009B00010BD90F877301BB1406803681B6818477A
:1009C0001846704710B590F8341090F874400C4BEE
:1009D0008C421A7809D03AB90A4A0B491488088817
:1009E00010800C8001221A7010BD002AFCD0054A2C
:1009F00005491488088810800C800022F3E700BFA6
:100A000004A8002000A8002002A8002008B5094B77
:100A10001B888B4203D8084B1B88934205D9074B90
:100A2000074A08489E211CF049F9074B1980074BDB
:100A30001A8008BD00A8002002A8002058DF010885
:100A4000BBDF0108FEDF010806A8002008A800207F
:100A500070B50D4619460B4B1D6035B90A4B0B4A54
:100A60000B4840F2BB211CF029F9C0E90F52094B99
:100A7000003A18BF01221A700368BDE87040D3F82D
:100A80008C3018477401002043E001087BE0010826
:100A9000FEDF01080AA80020012807B50AD84B7814
:100AA00000930B7808481522002104F016FF03B0CC
:100AB0005DF804FB01910B5C009339220346002191
:100AC000014804F01BFFF2E73816002037B50B4A47
:100AD0000B4C02231525137055700192442200928D
:100AE00000213922204604F009FF0021009135231E
:100AF0002A46204604F0F1FE03B030BD8C010020F0
:100B00003816002007B50190FFF7E0FF019803B009
:100B10005DF804EB00F058BC07B5074B03EB800011
:100B20002A2301900093392204230021034804F072
:100B3000E5FE03B05DF804FB040000203816002039
:100B400070B5154D04460020FFF70AFE2A6892F89A
:100B50006630013382F8663000F002F90F4B2868E6
:100B60001A781B7880F84A2023B10D4D2B7803F0BA
:100B7000FF0623B1BDE870400020FFF717BE0AF062
:100B8000ABFB084B30461E60FFF7C6FF204604F063
:100B900094FE01232B7070BD0CA8002014000020CF
:100BA0008E01002078010020334B1A68013270B5A5
:100BB0001A60324B324C1968324B032A05462EDC40
:100BC000D4F8040420F00800C4F804044FF4C870FA
:100BD00000FB0211C3F8AC100CBFE823C82302339A
:100BE00028491B0443F4F1730B61274B4B61A3F5B8
:100BF000F073C1F88830254BC1F8B030012310469E
:100C00004B62FFF789FF1E4AD2F8043443F0080311
:100C10002846C2F80434BDE8704004F04EBED4F853
:100C2000042422F00802C4F80424194AC3F8AC10C2
:100C30001A6102F101125A61164AC3F88820134A58
:100C4000C3F8B02001225A620020FFF765FFD4F8F4
:100C5000043443F00803C4F804340020FFF7A6FD71
:100C60000D4B00221A700D4B186820B10368BDE8C7
:100C700070401B6A184770BD780100207401002085
:100C8000006C014000680140E301CA009301800646
:100C9000E201CA000300CA008E0100200CA8002057
:100CA00008B5044B0146186801B101210AF02EFB7A
:100CB000012008BD0CA80020054B064800225A6000
:100CC0009A60054A1A60054B0360FFF7D9BC00BF64
:100CD000800100207C0100207CDE0108A4DE0108E8
:100CE000012108B50022084607F08FF80A4B18606A
:100CF00028B90A4B0A4A28210A481BF0DFFF0022C4
:100D00000421012007F01EF9074B186018B9074BA2
:100D1000034A2C21F0E708BD94010020A4E101085A
:100D2000EDE101081CE201089001002064E20108E5
:100D3000024B4FF0FF31186807F0B1B89401002062
:100D4000014B186807F0D6B894010020024B00212F
:100D5000186807F0A4B800BF94010020FFF7F0BFA7
:100D600003480449006800231A4607F026B900BF6B
:100D7000900100201800002013B5084C00231A46EB
:100D800001A9206807F049F920684FF0FF330022DD
:100D900001A907F042F902B010BD00BF9001002088
:100DA00003685B6C18470120704703689B6A18470B
:100DB00082B0002301930D4B1A6B42F400021A63B8
:100DC0001A6B02F400020192019A1A6942F40002BD
:100DD0001A611A6922F400021A61054B054A1A6168
:100DE000054B4FF080629A6002B0704700380240B5
:100DF000F81500203D0E000800E100E040F2EF3061
:100E000070470000054B0360054B4FF08062C3F84C
:100E10008820BFF34F8FBFF36F8F7047FCE301084B
:100E200000E100E010B504464FF45A61FFF7EAFF15
:100E300020461BF015FF204610BD0000024B1B682A
:100E4000586803685B6918470CA8002070B5044611
:100E500025460A4B0C30002660602672667245F803
:100E6000203B602229460AF0B7FB04F55A63EE6086
:100E70002435AB42FBD1204670BD00BFFCE3010826
:100E800008B50B290BD8DFE801F01206100A0A0A90
:100E90000A0808080808012008BD0520FCE7054BE2
:100EA000054A064866211BF009FF0020F4E70220EE
:100EB000F2E700BFA6E20108C1E201080BE3010866
:100EC00008B50A2909D8DFE801F010060E0808085D
:100ED000080606060600012008BD054B054A06481F
:100EE00087211BF0EBFE0020F6E70220F4E700BFAD
:100EF000A6E2010851E301080BE301082DE9F843DC
:100F00004F7F0C4639468146FFF7BAFF94F81E80A2
:100F1000054641464846FFF7B3FF41460646484668
:100F2000FFF7CEFFA18A628B424B521A1A649A6174
:100F3000228B521A1A61E28A586342EA01425A64C9
:100F400020696268D863DA60216894F81CC080293F
:100F50004FEA0C6226D010D8202945EA020461D05D
:100F600040295FD004295DD0324B2A4342F400323D
:100F70004745DA615AD0304A40E0B1F5807F07D06A
:100F8000B1F5007FF0D142F4003242F0090203E0F3
:100F900042F4003242F00A02DA61E2681A625E62EA
:100FA00058612AE0A4682A4342F40032211DD96224
:100FB000DA6122785E62586142B1012A21D01F4B6A
:100FC0001F4A204840F211111BF078FEDA6961884F
:100FD00022F47F42013922F0100242EA0122DA6152
:100FE0000120144BDA6942F02002DA61DA699206D4
:100FF000FCD410229A600028BDD0134A1A60BDE8C4
:10100000F8836288D969541E21F47F4222F01002CD
:1010100042EA0422BCF1FF0042F0100218BF012096
:10102000DA61DEE744F40034DC61B8E740F2012223
:10103000E4E700BF00B00240010201009CE30108A8
:10104000B6E301080BE301080102020070B50C468B
:10105000897FFFF735FFA68AE18A628B154B2569E8
:10106000586341EA0641921B5964DD631A6426689D
:10107000E168082E0DD19A611A615862207F0E4AEC
:1010800042EA0062DA610D4A19625D61DD601A6050
:1010900070BD0022D8611A6148090A0A02F4784238
:1010A00000F4FC600243C1F3C4010A439A63044A9A
:1010B000EDE700BF00B0024009000100010202009C
:1010C000010203000120704754207047542303FBA2
:1010D000010008307047542303FB010008307047BB
:1010E000012070474FF4717070474FF4717303FB28
:1010F0000100083070474FF4717303FB01000830A2
:101100007047012070471020704700EB0110083035
:10111000704700EB011008307047084601F0FCBA38
:1011200010B5034B0360044608F088FF204610BD4D
:10113000B4E4010810B50446FFF7F2FF20465C2135
:101140001BF08EFD204610BD10B5034B0360044616
:1011500008F074FF204610BD80E4010810B5044675
:10116000FFF7F2FF20464FF473711BF079FD204624
:1011700010BD000010B5034B0360044608F05EFF8D
:10118000204610BD4CE4010810B50446FFF7F2FFFD
:10119000204618211BF064FD204610BD10B5084BF9
:1011A0000360044600F57E70FFF7BAFF04F12C00DF
:1011B000FFF7CAFF04F11400FFF7DCFF204610BD63
:1011C000E8E4010808B50248FFF7E8FF08BD00BFE2
:1011D0009C01002010B50446FFF7E0FF20464FF4C5
:1011E000B6611BF03DFD204610BD00002DE9F34126
:1011F00001F056F8054601F057F800240146234651
:101200002846224600940FF0E3FB254B254A264D45
:101210001A60204602F034FC24480FF025FB2B789E
:10122000BFF35B8FDB0735D428461BF01BFD88B36B
:101230001F4C204B236004F58B6604F1140004F16D
:101240002C0804F57E776060C4F80880E7602661AA
:1012500008F0F6FE184B6361404608F0F1FE174BAC
:10126000E362384608F0ECFE154BC4F8F83304F29C
:10127000544002F052FD224604F25441304602F03E
:10128000A3FC304601F048FA0E481BF035FD284615
:101290001BF0F4FC0C4802B0BDE8F041FFF718BBAE
:1012A00068A800206C150020980100201C00002078
:1012B0009C010020E8E401084CE4010880E40108F6
:1012C000B4E40108C5110008F01400200148FFF73C
:1012D00019BB00BFF014002070B5234E234C244DE1
:1012E000244B23603046FFF7B1FD284612F01CFD69
:1012F000214B2248DC6000224FF48071C3E91212B6
:101300001F491A86C3E919124FF0807159670121EC
:1013100083F878101B491A660B604FF450710180F6
:10132000194883F86C20018018481A674FF4F0714F
:10133000C3E90422C3E90622C3E90822C3E90A2259
:10134000C3E90E22C3E91022C3E91422C3E916221D
:10135000C3E9016501800E4883F8342001800D49FE
:101360000A700D4A1A6070BD500700204C0700201B
:101370007015002048DF0108F014002000A80020AC
:10138000010000010CA8002006A8002002A80020EF
:1013900008A8002004A80020D4E001080148FFF7B5
:1013A00031BD00BF50070020024B902283F85A2322
:1013B000704700BF00E100E0024B4FF080629A608E
:1013C000704700BF00E100E07047704770B5044609
:1013D00009F063F923685D6E0CF04EFE014620466D
:1013E000A8472368D3F8885000232046AC461A4605
:1013F000BDE870404FF04041604709F0FFB809F088
:1014000058BA0000044B4FF08062C3F88820BFF345
:101410004F8FBFF36F8F704700E100E0014900205C
:1014200008F030B9A10C000808B5642006F0E1FC12
:10143000FBE7000030B595B01022002109A81BF091
:10144000C9FC1422002102A81BF0C4FC00241F4B7D
:1014500000941A6C42F080521A641B6C03F08053A3
:101460000093009B1A4B01941A6842F440421A60A0
:101470001B6803F4404301930122019B4FF4803326
:10148000CDE9072302254FF480030821CDE90D5350
:101490004FF4B473CDE90F1304200623CDE91203F2
:1014A00007A8119505F0DEFF05F032FA0F23CDE90C
:1014B000023504944FF480534FF4A054052102A840
:1014C000CDE9054305F0A2FD15B030BD003802405E
:1014D000007000402DE98048BBB003F0FFFBFFF730
:1014E000A9FF142200212DA800241BF073FCC54B7A
:1014F00003941A6BC44842F010021A631A6B02F08C
:1015000010020392039A04941A6B42F002021A63C7
:101510001A6B02F002020492049A05941A6B42F0CC
:1015200040021A631A6B02F040020592059A069473
:101530001A6B42F008021A631A6B02F00802069254
:10154000069A07941A6B42F480721A631A6B02F4BB
:1015500080720792079A08941A6B42F020021A636D
:101560001A6B02F020020892089A09941A6B42F44E
:1015700080621A631A6B02F480620992099A0A94D3
:101580001A6B42F080021A631A6B02F080020A9210
:101590000A9A0B941A6B42F004021A631A6B02F057
:1015A00004020B920B9A0C941A6B42F001021A631C
:1015B0001A6B02F001020C920C9A0D941A6B42F411
:1015C00000721A631B6B03F4007322464FF4C2517E
:1015D0000D930D9B04F098FB8C482246082104F0E3
:1015E00093FB8B480122082104F08EFB8948224698
:1015F000462104F089FB88482246802104F084FBC0
:10160000224686484FF48041012704F07DFB4FF4C9
:1016100004637D482DA90325CDE92D37CDE92F445D
:1016200004F0E4F94FF48053774830952DA9CDE9C3
:101630002D3708262F9404F0D9F974482DA9CDE947
:101640002D67CDE92F4404F0D1F971482D962DA9CD
:101650001126CDE92E64309404F0C8F946226D4875
:101660002DA94FF08008CDE92D27CDE92F4504F0B5
:10167000BDF969482DA94FF48049CDE92D86CDE902
:101680002F4504F0B3F92DA96448654ECDE92D9797
:10169000CDE92F4404F0AAF96248634A026003F0DE
:1016A000C3FB624AC6E90A44C6E90C443046C6E9AF
:1016B0000024C6E9024403F0CBFC3946304603F06F
:1016C0007FFD414622465448594E04F01DFB14202C
:1016D00003F030FB41463A464F4804F015FB0A2020
:1016E00003F028FB2422214617A810941BF072FB5C
:1016F0001822214611A81BF06DFB342221462DA88B
:101700001BF068FB2C2221460DEB08001BF062FB4E
:101710004FF00208474A7D214FF0040ACDE90E1828
:1017200030460EA9C6E90024C6E902A703F010FE60
:1017300017A93046CDE91774CDE91944CDE91B440A
:10174000CDE91D441F9404F02FF81C2321210F2202
:10175000CDE911311921CDE91321304611A9CDE987
:10176000154403F0E4FF5146304603F0CFFF42F248
:101770001071304604F023F92146304603F085FD10
:101780004FF480704FF40071CDE92D014FF4806368
:101790004FF40061CDE92F314FF480534FF40051E5
:1017A0004FF4803CCDE931314FF40031CDE934C103
:1017B0004FF4802E4FF40021CDE936E14FF08071D7
:1017C000CDE9381830462DA94FF0C80BCDF8CC9094
:1017D00003F068FF102320A93046CDE922B3CDE9FC
:1017E0002044CDE9244ACDE92684CDE928442A972E
:1017F00003F0E6FE2146304603F0D1FE0E480F49C5
:1018000004621DE00038024000180240000C024053
:101810000028024000000240001C02400004024078
:10182000F8150020F01500200030024000B0024002
:1018300038160020006C01409C170020400100A0D9
:10184000C0E9001420234021C0E904314FF4C071E5
:101850004FF48053C0E90614C0E909392DA90723C4
:10186000CDE93035CDE92E3AC0E9024ACDE93288DA
:10187000CDF8B48005F0B0FF03F05EF903F00EF987
:101880003422214620A8524D1BF0A4FA514BAC86BD
:10189000C5E90034CA224FF4F173C5E90923CB210D
:1018A00040F2E3132846C5E90B13C5E90244C5E934
:1018B0000447C5E90678C5F8208085F8364004F06D
:1018C000F1FEFF22CDE925244FF480600522CDE909
:1018D00027024FF040424FF4F07320A9CDE9292BA5
:1018E00028462246CDE923382B93CDE9204B22947C
:1018F000ADF8B0408DF8B24004F0A0FF2A689369BB
:1019000023F001039361304603F0B4FF39464046AB
:1019100002F088FA2823152221463046009403F06D
:10192000DCFF2DA93046CDE92D44CDE92F44CDE98A
:101930003144CDE93344CDE93544379403F0B2FE68
:101940004FF448712246284604F0A6FF2A68224830
:101950009369224E87603B439361214B1025C0E978
:1019600000371B23C0E903531E4D4FF48063C0E9C9
:101970000534C0E9074405F0D9F802F055FF02F03C
:1019800089FE02F0FFFD184B2C622846C5E9006372
:10199000C5E90244C5E90494C5E9064404F09EFB88
:1019A000284604F043FCFEF726FE06F0ADF90F4A88
:1019B0000F48214606F0D4F90E4B0F4A1860214615
:1019C0000E4806F0CDF90E4B186006F0AFF9FEE7B1
:1019D000A816002000680140501700200054004065
:1019E000001000A054160020801A060034E50108FB
:1019F00029140008EC15002010E50108FB0500087B
:101A0000E81500200268034B9A4201D103F080B927
:101A1000704700BF001000407047000082B00E4BBE
:101A200000220092596C41F480415964596C01F4D0
:101A30008041009100990192196C41F08051196424
:101A40001B6C03F080530193019B0F216FF0010089
:101A500002B003F095B900BF003802400268094B9C
:101A60009A4282B00BD100230193074B1A6B42F4C8
:101A700080521A631B6B03F480530193019B02B0E5
:101A8000704700BF003002400038024007B50F4BDE
:101A900002689A4216D10022A3F5F0430192196B15
:101AA00041F4000119631B6B03F40003019305214A
:101AB0005A20019B03F064F95A2003B05DF804EB4F
:101AC00003F090B903B05DF804FB00BF00B0024022
:101AD00010B5044688B01422002103A81BF07AF93F
:101AE0002268174B9A4228D103F54C4300240194F5
:101AF0005A6C144842F000625A645A6C02F0006258
:101B00000192019A02941A6B42F400721A631B6BE1
:101B100003F4007302930422029B0223CDE9032302
:101B200003A90D23079303F061FF5C2022460521E2
:101B300003F026F95C2003F055F908B010BD00BF92
:101B4000006C01400024024030B5044689B01422E4
:101B5000002103A81BF03EF922681A4B9A422FD1AC
:101B6000194C1A4800250195236B43F002032363A7
:101B7000236B03F002030193019B4FF44072122385
:101B8000CDE9032301210323CDE90513042303A990
:101B9000079303F02BFF0295236C43F40013236497
:101BA000236C03F400130293029B236A43F4001393
:101BB0002362236A23F400132362642003F0BAF83B
:101BC00009B030BD0054004000380240000402401B
:101BD00008B502680A4B9A4210D10A4A0A48136CA7
:101BE00023F4001313644FF4807103F0E5FFBDE8A4
:101BF000084005484FF4007103F0DEBF08BD00BF88
:101C000000540040003802400004024010B5044671
:101C100090B03C22002101A81BF0DCF82268124B96
:101C20009A421FD1082301934FF4B473059301A87E
:101C30000623089305F0B4FA08B1FFF7EDFE0B4B4D
:101C400000220092596C41F0806159645B6C03F092
:101C50008063009358200521009B03F091F85820E1
:101C600003F0C0F810B010BD006801400038024019
:101C7000F0B5044689B01422002103A81BF0AAF88D
:101C80002268244B9A4242D1234B244800240094DA
:101C90009A6B42F002029A639A6B02F0020200927F
:101CA000009A01941A6B42F002021A631A6B02F056
:101CB00002020192019A02941A6B42F020021A6306
:101CC0001B6B03F02003029302260325029B0A27C5
:101CD000402303A9CDE90336CDE9065703F086FE7C
:101CE0004FF49863CDE903360D48092303A9079300
:101CF000CDE9054503F07AFE4FF440730848079795
:101D000003A9CDE90336CDE9054503F06FFE09B01F
:101D1000F0BD00BF001000A00038024000040240E7
:101D20000014024008B50268094B9A420FD1094AD3
:101D30000948936B23F002039363402103F03CFFB7
:101D4000BDE8084005484FF4F86103F035BF08BD11
:101D5000001000A0003802400004024000140240BD
:101D6000F0B587B000230393304B1C68002C5AD188
:101D700001221A602E4B00949A6B2E4842F0010209
:101D80009A639B6B03F001030093022703260C2543
:101D9000009B01A94FF68373CDE90137CDE90465B6
:101DA00003F024FE48F233132348059501A9CDE939
:101DB0000137CDE9034603F019FE4CF203731F48C7
:101DC000059501A9CDE90137CDE9034603F00EFEE3
:101DD00040F2FF631A48059501A9CDE90137CDE925
:101DE000034603F003FE4FF63F031648059501A98D
:101DF000CDE90137CDE9034603F0F8FD4FF47F4309
:101E00001148059501A9CDE90137CDE9034603F055
:101E1000EDFD0D230D48059501A9CDE90137CDE96B
:101E2000034603F0E3FD07B0F0BD00BFD417002068
:101E3000003802400010024000180240000C02402E
:101E40000020024000140240001C02400008024032
:101E500008B5174B1A6852BB01221A60154A16487A
:101E6000936B23F0010393634FF6837103F0A4FE99
:101E7000124848F2331103F09FFE11484CF20371EF
:101E800003F09AFE0F4840F2FF6103F095FE0E4802
:101E90004FF63F0103F090FE0C484FF47F4103F0F2
:101EA0008BFEBDE808400A480D2103F085BE08BD41
:101EB000D0170020003802400010024000180240F5
:101EC000000C02400020024000140240001C0240AE
:101ED0000008024030B5014689B00022362002F0E9
:101EE0004FFF362002F07EFF0025154B02951A6C3D
:101EF000144C42F010021A641B6C03F0100302939E
:101F000001A903A8029B05F02DF905F01BF90E4B62
:101F1000236040F2E733E36040000C4BB0FBF3F08A
:101F20000138606020462561A56005F001FE20B9FA
:101F3000204605F0B7FC09B030BD0120FBE700BF2B
:101F400000380240D81700200010004040420F0027
:101F50007047FEE7FEE7FEE7FEE77047014805F041
:101F6000DFBC00BFD8170020014804F00ABC00BF46
:101F7000A8160020014803F099B800BFF81500200A
:101F8000014803F09ABA00BF3816002001207047BC
:101F900008B51AF0C5FE162303604FF0FF3008BDE8
:101FA00008B51AF0BDFE16230360FEE770B50D46B6
:101FB00014460E46731B9C4201DC204670BDAFF3F5
:101FC000008006F8010BF5E770B50D4614460E4685
:101FD000731B9C4201DC204670BD16F8010BAFF369
:101FE0000080F5E74FF0FF3070474FF400534B602F
:101FF0000020704701207047002070470A4A11688E
:1020000008B5034609B909491160106869460344D7
:102010008B4206D91AF084FE0C2303604FF0FF3088
:1020200008BD1360FCE700BF20180020B0AA002004
:10203000704710B5042104461AF012FE204610BD68
:10204000012908B506D0022908D059B901F064FD6C
:10205000006808BD01F060FD4068FAE701F05CFD32
:102060008068F6E70020F4E7002070478180704721
:10207000C180704701817047418170477047704748
:1020800070477047704710B4C4880368121B848877
:102090005B6D091B12B25DF8044B09B218474FF68D
:1020A000FF7383814FF0FF3303621368C3611060D5
:1020B00070477047704770477047704790F8252009
:1020C0001AB190F8242002B1186070477047704729
:1020D000704730B4C26844685510034604EB620090
:1020E000D20748BF62599B6830BC48BFD3581847D5
:1020F00043682BB183682BB9C06800F001007047BA
:10210000184670470120704710B5102104461AF098
:10211000A7FD204610BD10B5E42104461AF0A0FD2D
:10212000204610BD90F8252012B103685B6918475E
:1021300070479830884208B505D10BF09DFFBDE887
:10214000084000F009BB08BD70B5036804461B6B6E
:10215000154698472368294620465B6BBDE87040CA
:10216000184770B504461D46BDF91060FFF7ECFF37
:102170002368294620469B6B9847236831462046B2
:10218000DB6BBDE870401847094A02604FF480716C
:1021900000228184FF21C0E90122C0E90322C0E9B5
:1021A0000522C0E9072280F826108262704700BF2E
:1021B000980202082DE9F041044688B025460DF04A
:1021C00089F9334B0022E26345F8403B04F16C0788
:1021D0002846FFF7D9FF04F198063846FFF7D4FFE9
:1021E00030460AF029F92B4B0022C4E935344FF46C
:1021F000F078294BC4F8DC30C4F8E02011462846BA
:10220000CDF800804FF44873FFF7ABFF00224FF08A
:102210007F43A36611463846CDF800804FF44873DB
:10222000FFF79FFF4FF0FF33C4F894303046002291
:102230004FF43971FFF788FF0223ADF81030032304
:10224000ADF814300923ADF81830ADF81C3007ABE9
:1022500005AA009304A906AB30460AF049F80F4BD3
:10226000C4F8D03004F1D403C4F8C030201D29468E
:10227000039007F069FF0398394607F065FF03985C
:10228000314607F061FF204608B0BDE8F08100BF8D
:102290008CE5010874E501083321000811000700EE
:1022A00000487047B8E501080C20704713B50024BA
:1022B00051B1036801948DF8034001AA9C680DF1A7
:1022C0000303A04702B010BD0846FBE740897047F2
:1022D000808970478088704783798088184480B2ED
:1022E0007047C07900F07F007047C079C00970471F
:1022F000704710B5082104461AF0B2FC204610BD04
:102300007047704700F596730868496803C37047C3
:10231000704770474160704770470000064BC0F837
:1023200048310023C0F84C3100F5A073C0F84401D7
:10233000C0F83C31704700BFC52700080123037275
:10234000704770477047034610B49A6B8A4208463C
:1023500008D00A68B3F95010546D002223465DF886
:10236000044B18475DF8044B7047034610B49A6B52
:102370008A42084608D00A68B3F95010546D00220A
:1023800023465DF8044B18475DF8044B70477047CF
:102390007047704770470000044B0846198803686F
:1023A00049425B6D002209B2184700BF00A8002017
:1023B00030B4C26844685510034604EB6200D2078B
:1023C00048BF62599B6830BC48BFD3581847436820
:1023D0002BB183682BB9C06800F001007047184624
:1023E00070470120704700000B68084602495B6D8A
:1023F000B1F900100022184700A8002030B4C268CC
:1024000044685510034604EB6200D20748BF625986
:102410009B6830BC48BFD358184743682BB18368CA
:102420002BB9C06800F001007047184670470120C2
:10243000704710B4C26841685410034601EB620053
:10244000D20748BF0A599B685DF8044B48BFD35870
:10245000184743682BB183682BB9C06800F00100AE
:102460007047184670470120704710B50C2104468C
:102470001AF0F6FB204610BD10B5102104461AF0E4
:10248000EFFB204610BD10B54FF4AC7104461AF0B6
:10249000E7FB204610BD10B5542104461AF0E0FBBE
:1024A000204610BD10B5102104461AF0D9FB204675
:1024B00010BD10B5542104461AF0D2FB204610BDC1
:1024C00010B5102104461AF0CBFB204610BD08B50C
:1024D0000BF0D2FDBDE808400CF096B9054B1B7817
:1024E00001462BB1406818B103680C315B6E184788
:1024F000704700BF0BA80020054B1B7801462BB18D
:10250000406818B103680C315B6E1847704700BF14
:102510000BA800201F4B1B7810B5044613B90123EC
:10252000037210BD90F84D0094F84C300130C0B2E9
:10253000984284F84D0024D8B4F94E2000210DF0C3
:102540007BF910F0010283B221D04FF6FF71002811
:10255000D8BF0A461344A4F85030B4F85010238A68
:10256000C91A09B2A4F8501004F10C0000220CF0B2
:1025700091FD6068036804F13C01DB6FBDE8104029
:10258000184701232372002384F84D30C9E7A4F8CB
:102590005000E2E70BA800201F4B1B7810B5044643
:1025A00013B90123037210BD90F84D0094F84C301C
:1025B0000130C0B2984284F84D0024D8B4F94E20BE
:1025C00000210DF039F910F0010283B221D04FF64D
:1025D000FF710028D8BF0A461344A4F85030B4F85D
:1025E0005010238AC91A09B2A4F8501004F10C0043
:1025F00000220CF04FFD6068036804F13C01DB6FC2
:10260000BDE81040184701232372002384F84D30A1
:10261000C9E7A4F85000E2E70BA8002010B5044673
:10262000D0F83C0158B10368DB68984738B1D4F85A
:102630003C0103689B6898470023C4F83C3110BDF7
:102640001FB50C4B1B7804468BB10B4B1C22CDE9FC
:1026500000300123CDE90223406803686946DB6F3F
:1026600098476068036804F10C011B6E984704B03A
:1026700010BD00BF0BA80020F8EE01081FB50C4BE1
:102680001B7804468BB10B4B1C22CDE90030012393
:10269000CDE90223406803686946DB6F98476068AC
:1026A000036804F10C011B6E984704B010BD00BF15
:1026B0000BA80020B4EE0108F8B5044617460E46F4
:1026C0000BF0FAFC104B0025C4E954760F4E1C6049
:1026D000C4E952550E4B306823600E4BC4E95035A7
:1026E000036829469B68C4E94E559847284601F07F
:1026F000C7F9336893F876200AB1D86C00B99868A6
:1027000013F05DF92046F8BD58A800200CA8002061
:1027100044EE01082CEE0108064BC0F848310023B6
:10272000C0F84C3100F5A073C0F84401C0F83C314A
:10273000704700BFC5270008064BC0F8483100238A
:10274000C0F84C3100F5A073C0F84401C0F83C312A
:10275000704700BFC92A0008064BC0F84831002363
:10276000C0F84C3100F5A073C0F84401C0F83C310A
:10277000704700BFC12D0008064BC0F84831002348
:10278000C0F84C3100F5A073C0F84401C0F83C31EA
:10279000704700BF812C0008064BC0F84831002369
:1027A000C0F84C3100F5A073C0F84401C0F83C31CA
:1027B000704700BF8D29000803685B6A18470368EB
:1027C0005B6A18472DE9F14FD0E9545A0746A868CB
:1027D00003681B6A9847B0F5C07F05D2444B454A51
:1027E000A32145481AF06AFA686803681B6A98478B
:1027F0000F2803D8414B3F4AA421F2E7E868036859
:102800001B6A98470B2803D83D4B3A4AA521E8E7B5
:10281000DFF8F4900BF030FC0BF034FCD9F800003A
:1028200010B10368DB689847D9F8000010B103685D
:102830001B689847DFF8D480D8F8000010B103680F
:102840005B699847D7F8380110B103685B6898470F
:10285000D8F8000010B103681B689847D7F8380112
:1028600010B103689B689847E868036800215B6AB9
:1028700098474FF0000B234B036059460446C0F8BD
:1028800004B080F808B0A868FFF796FF064601F08C
:10289000CDF968685946FFF792FF3146054601F0C9
:1028A000ABF9C9F80040C7F83851C8F80060E5B185
:1028B0002B1DCAF800303368C5F808A03046DB6825
:1028C000F56398472B6828461B6898472146304691
:1028D0000CF0ACFF236820461B69984723685B69AE
:1028E000204601B0BDE8F04F18472B46E1E700BF96
:1028F000B8E6010846E7010844E801088BE801084A
:102900002EE9010890EE01084CA8002048A80020FC
:10291000F7B505460026184B4660067245F80C3B95
:10292000044628460F4608F0F3FE144BA563C4E99D
:102930000F3420220123C4E91123114B84F84C7079
:102940001B7884F84D60A4F850608BB10D4B0E4F8E
:10295000B3F900300093B7F90030324631462846CB
:10296000FFF7FFFB284608F04EFE3B88A4F84E30E8
:10297000204603B0F0BD00BF10EF0108F8EE0108DB
:102980000BA8002002A8002000A800202DE9F04795
:10299000D0E9544A0746A06803681B6A9847E328B1
:1029A00005D8424B424AA32142481AF087F9606891
:1029B00003681B6A98470F2803D83F4B3C4AA42161
:1029C000F2E7E06803681B6A9847532803D83B4B3B
:1029D000374AA521E8E7DFF8E8900BF04DFB0BF054
:1029E00051FBD9F8000010B10368DB689847D9F8AB
:1029F000000010B103681B689847DFF8C880D8F85A
:102A0000000010B103685B699847D7F8380110B12E
:102A100003685B689847D8F8000010B103681B682A
:102A20009847D7F8380110B103689B689847E06869
:102A3000036800215B6A984714210546FFF768FF89
:102A4000A068036800215B6A9847064601F09EF87B
:102A50006068036800215B6A98473146044601F0CC
:102A60007BF8C9F80050C7F83841C8F80060DCB1FD
:102A7000231DCAF800303368C4F808A03046DB686C
:102A8000F4639847236820461B68984729463046D8
:102A90000CF0CCFE2B6828461B6998472B6828460B
:102AA0005B69BDE8F04718472346E2E7B8E601084E
:102AB000D1E9010844E801088BE801082EE9010882
:102AC0004CA8002048A800202DE9F047D0E9544A3E
:102AD0000746A06803681B6A9847B0F5C07F05D217
:102AE000414B424AA32142481AF0E8F86068036863
:102AF0001B6A98470F2803D83E4B3C4AA421F2E7B3
:102B0000E06803681B6A9847532803D83A4B374A52
:102B1000A521E8E7DFF8E4900BF0AEFA0BF0B2FA8B
:102B2000D9F8000010B10368DB689847D9F80000B5
:102B300010B103681B689847DFF8C480D8F800001C
:102B400010B103685B699847D7F8380110B1036882
:102B50005B689847D8F8000010B103681B68984775
:102B6000D7F8380110B103689B689847E06803689C
:102B700000215B6A984714210546FFF7C9FE002132
:102B8000A068FFF719FE064601F050F860680021C2
:102B9000FFF715FE3146044601F02EF8C9F8005043
:102BA000C7F83841C8F80060DCB1231DCAF800300E
:102BB0003368C4F808A03046DB68F463984723689C
:102BC00020461B689847294630460CF02FFE2B689C
:102BD00028461B6998472B6828465B69BDE8F04783
:102BE00018472346E2E700BFB8E60108ECEA01080F
:102BF00044E801088BE801082EE901084CA80020F0
:102C000048A80020F7B505460026184B4660067216
:102C100045F80C3B044628460F4608F079FD144B56
:102C2000A563C4E90F3420220123C4E91123114B09
:102C300084F84C701B7884F84D60A4F8506093B110
:102C40000D4B0E4FB3F900300093B7F90030324608
:102C500031462846FFF785FA284608F0D4FC3B8821
:102C60005B42A4F84E30204603B0F0BDCCEE010824
:102C7000B4EE01080BA8002002A8002000A8002044
:102C80002DE9F047D0E9544A0746A06803681B6A5B
:102C90009847B0F5717F05D2424B434AA321434880
:102CA0001AF00CF8606803681B6A98470F2803D86D
:102CB0003F4B3D4AA421F2E7E06803681B6A98474E
:102CC000532803D83B4B384AA521E8E7DFF8E890C2
:102CD0000BF0D2F90BF0D6F9D9F8000010B1036867
:102CE000DB689847D9F8000010B103681B68984763
:102CF000DFF8C880D8F8000010B103685B69984716
:102D0000D7F8380110B103685B689847D8F800001D
:102D100010B103681B689847D7F8380110B10368F1
:102D20009B689847E068036800215B6A9847142114
:102D30000546FFF767FFA068036800215B6A9847B4
:102D4000064600F0A5FF6068036800215B6A9847AB
:102D50003146044600F082FFC9F80050C7F83841F8
:102D6000C8F80060DCB1231DCAF800303368C4F82D
:102D700008A03046DB68F4639847236820461B6848
:102D80009847294630460CF051FD2B6828461B69B0
:102D900098472B6828465B69BDE8F04718472346EB
:102DA000E2E700BFB8E60108FDEB010844E80108CE
:102DB0008BE801082EE901084CA8002048A8002053
:102DC0002DE9F047D0E9544A0746A06803681B6A1A
:102DD0009847B0F5C07F05D2414B424AA3214248F3
:102DE00019F06CFF606803681B6A98470F2803D8C6
:102DF0003E4B3C4AA421F2E7E06803681B6A98470F
:102E0000532803D83A4B374AA521E8E7DFF8E49086
:102E10000BF032F90BF036F9D9F8000010B1036865
:102E2000DB689847D9F8000010B103681B68984721
:102E3000DFF8C480D8F8000010B103685B699847D8
:102E4000D7F8380110B103685B689847D8F80000DC
:102E500010B103681B689847D7F8380110B10368B0
:102E60009B689847E068036800215B6A98471421D3
:102E70000546FFF7C7FE0021A068FFF79DFC064648
:102E800000F0D4FE60680021FFF799FC314604464B
:102E900000F0B2FEC9F80050C7F83841C8F8006029
:102EA000DCB1231DCAF800303368C4F808A03046EE
:102EB000DB68F4639847236820461B6898472946D7
:102EC00030460CF0B3FC2B6828461B6998472B68EA
:102ED00028465B69BDE8F04718472346E2E700BF94
:102EE000B8E6010812ED010844E801088BE8010882
:102EF0002EE901084CA8002048A80020006A70476D
:102F0000406A704770478B8880690A68DB0A50F80E
:102F100023001044704710B5C2B1137BB3B1547B8A
:102F2000D27A240204F4E0641443C26998B202EB3A
:102F3000840213888B4202D192F9020010BD05D899
:102F4000013880B204320028F3D1F7E70020F5E71A
:102F500010B52821044619F083FE204610BD00005C
:102F600030B589B00446BDF850500695BDF84C50B8
:102F700005959DF8405004959DF83C5003959DF8AB
:102F8000385002959DF8345001959DF830500095C9
:102F90000CF0ACF8064B2360119BA361129BE3611C
:102FA000159B2362169B6362204609B030BD00BFAB
:102FB0003CEF010870477047704730B4C2684468FE
:102FC0005510034604EB6200D20748BF62599B6864
:102FD00030BC48BFD358184743682BB183682BB91E
:102FE000C06800F001007047184670470120704724
:102FF00010B51021044619F033FE204610BD10B55F
:103000004FF4C071044619F02BFE204610BD08B5E0
:1030100000F19803994205D10BF02EF8BDE8084065
:10302000FFF7AABBE030814205D10BF025F8BDE8DF
:103030000840FFF7B1BB08BD1B4B73B51B88018F60
:103040008B4206462BD9194B1B682BB9184B194AD2
:103050001948AE2119F032FE13F81120174B1B68E6
:1030600053F82250164B186800F046FD2B6801906B
:1030700001469B6A284698472B6801991B6C0446B9
:10308000284698472B6801995B6A14FB00F4284690
:103090009847E4B2044486F8454002B070BD00236E
:1030A00080F84530F9E700BF60A800205CA8002048
:1030B0008CEF0108CEEF0108FCEF010864A80020A6
:1030C00068A800202DE9F04F04468DB0A0460025E9
:1030D0000CF000FA664BE56348F8403B04F16C0ADB
:1030E0004046FFF751F804F198075046FFF74CF8B7
:1030F00004F1E006384609F091FA304609F08EFAFC
:103100004FF48073A4F84C315A4BC4F828315A4B11
:10311000C4F850314FF6FF73A4F854314FF47F03D5
:10312000C4F85C31554BC4F85851C4E95C34544B75
:10313000A4F860514FF0FF3B4FF4F072C4E95E35E4
:10314000C4E94B55C4E94D55C4E94F55C4E951553F
:10315000C4E95AB5C4F86451009229462A4640464B
:103160004FF44873FEF7FDFF4FF07F42A2664FF425
:10317000F0724FF44873009229462A465046FEF7F3
:10318000F0FF3846C4F894B0D2229121FEF7DCFF5C
:103190000AA94FF00102ADF8282038460A4609A9CD
:1031A000ADF8245008F0C1FF0623A4F8D03038460B
:1031B000FFF742FF04F5B873C4F8C0303046C4E9E5
:1031C00035BBD22240F2E9110393FEF7BDFF4FF069
:1031D000010209A9ADF8282030460AAAADF824500A
:1031E00008F0A3FF0522A4F818213046FFF724FFBA
:1031F00004F59479039BC4F808314846C4E947BBF9
:1032000056224FF4AD71FEF79FFF4FF07F42A4F8B6
:103210005C5104ADC4F858214946284608F0D4FB57
:1032200095E8070004F5B27383E80700124B0A9390
:103230000AA904234846ADF82C3008F019FF201DD8
:103240004146039006F080FF0398514606F07CFF4C
:103250000398394606F078FF0398314606F074FF6C
:103260000398494606F070FF20460DB0BDE8F08F88
:1032700064F00108D8010208B0E601084CF001082A
:103280000F300008704770477047704730B4C2680D
:1032900044685510034604EB6200D20748BF6259E8
:1032A0009B6830BC48BFD358184743682BB183682C
:1032B0002BB9C06800F00100704718467047012024
:1032C000704710B51021044619F0CAFC204610BD05
:1032D00010B54FF47171044619F0C2FC204610BDC0
:1032E00000F19802914210B5034604D10368BDE88D
:1032F0001040DB6A1847E033994205D10AF0BCFE62
:10330000BDE81040FFF718BA10BD0000074A026080
:103310000022C0E90122C0E90322C0E90522C0E978
:1033200007224FF480728284704700BFA007020812
:1033300010B526220446002119F04CFD2046FFF767
:10334000E5FF0A4B23600A4BA3624FF6FF73A38588
:103350004FF47F020023C4E90C324FF0FF32C4E97E
:1033600010232387E363204610BD00BFD801020865
:10337000B0E601082DE9F04F2DED0C8B04468FB01F
:103380000CF0A8F822460026E64BE66342F8403BE4
:10339000104608EE102AFEF7F7FE04F16C031846FB
:1033A0000DEE103AFEF7F0FE04F19803184608EE11
:1033B000903A09F033F904F1E00304F58E781846E9
:1033C0000AEE103A09F038F84046FFF79FFFD64D55
:1033D000C4F81C5104F5A47304F5C2791846C4F866
:1033E00044610AEE903A09F027F8484609F024F8BB
:1033F00004F5E07318460BEE103A09F01DF804F5D9
:10340000FE7304F50E7A18460BEE903A04F5207719
:1034100009F012F85046FFF78BFF3846FFF776FFAA
:1034200004F52B73C4F88052C4F8A86218460CEE59
:10343000103A09F001F804F53A7318460CEE903A88
:1034400008F0FAFF04F54973184609EE103AFFF741
:103450006FFF04F55B73184609EE903AFFF768FFBB
:10346000B24BC4E9ED34B24B4FF4F075C4E9EF361A
:1034700018EE100A0095324631464FF44873FEF7B5
:1034800070FE4FF07F431DEE100AA36600954FF4C7
:103490004873324631464FF0FF3B0CADFEF761FEFC
:1034A00018EE900AC4F894B04FF4CB7240F23B117E
:1034B000FEF74AFE2A460BA918EE900A4FF00103C8
:1034C000ADF83030ADF82C6008F02FFE4FF003035C
:1034D000A4F8D03018EE900AFFF7AEFD04F56D7138
:1034E000C4E935BB1AEE100A0391C4F8C010324685
:1034F0003146FEF729FE4FF00303ADF828300BA943
:1035000005234FF0020B1AEE100AADF82C30ADF87F
:1035100030300AAA0B46009509A9ADF824B008F08E
:10352000E7FE844BC4F81831039BC4F80831EE233E
:1035300000934046792240F21221FEF712FE1AEE65
:10354000900A76222321FEF7FFFD4FF00303ADF82A
:1035500028300BA90423ADF82C30ADF830300B46E1
:103560000AA90A461AEE900A09A90095ADF824B0F6
:1035700008F0BEFE704BC4F880311AEE901A404637
:1035800006F0E2FD484676229B21FEF7DDFD08238A
:103590000BA9ADF82C30ADF830304FF003020B46DC
:1035A0000AA9ADF8282048460A46009509A9ADF8B1
:1035B00024B008F09DFE604BC4F8BC31494640463B
:1035C00006F0C2FD1BEE100AB2225F21FEF7BCFD21
:1035D00006230BA9ADF82C30ADF830304FF00302C4
:1035E0000B460AA91BEE100ADFF85491ADF828200B
:1035F00000950A4609A9ADF824B008F079FE1BEE43
:10360000101AC4F8F891404606F09EFD1BEE900A91
:103610003A225F21FEF798FD0A230AA94FF0030220
:103620001BEE900AADF82820ADF82C300A46ADF814
:10363000303009A90BAB0095ADF824B008F058FE66
:103640001BEE901AC4F83492404606F07DFD0F221E
:1036500050463321FEF778FD0DF110094FF07F43FE
:10366000C4F8683251464846A4F86C6208F0ACF9D8
:1036700099E8070004F51D7383E807002F4B0C93AE
:1036800029465046ADF834B008F0F2FC51464046A9
:1036900006F05AFDA72300933846C5239D225621E4
:1036A000FEF75FFD1CEE100A31466B22FEF74CFD63
:1036B0000B230BA9ADF82C30ADF830304FF00302DE
:1036C0000B460AA91CEE100ADFF878A0ADF82820F6
:1036D00000950A4609A9ADF824B008F009FE1CEED1
:1036E000101A3846C4F8E4A206F02EFD1CEE900A2B
:1036F0006B228921FEF728FD07230BA94FF0030257
:103700001CEE900AADF82820ADF82C300AAAADF8CE
:10371000303000950B4609A9ADF824B008F0E8FD5B
:1037200012E000BFB0F00108A8F8010898F0010805
:10373000E13200081100070016000F00B0E6010892
:103740000F001600070011001CEE901A3846C4F84E
:1037500020A306F0F9FC19EE100A3B225521FEF7D2
:10376000F3FC4FF07F4219EE101AC4F85423484678
:10377000A4F8586308F028F999E8070004F558738D
:1037800083E807002B4B0C934FF0010219EE100A4F
:103790002946ADF8342008F06BFC19EE101A3846B3
:1037A00006F0D2FC19EE900A12221E21FEF7CCFC84
:1037B0004FF07F4219EE901AC4F89C234846A4F8B3
:1037C000A06308F001F999E8070004F56A7383E83B
:1037D0000700184B0C9319EE900A2946ADF8346097
:1037E00008F046FC19EE901A384606F0ADFC201D94
:1037F00018EE101A039006F0A7FC1DEE101A03989D
:1038000006F0A2FC18EE901A039806F09DFC1AEE42
:10381000101A039806F098FC0398414606F094FCB1
:103820000398394606F090FC20460FB0BDEC0C8B97
:10383000BDE8F08FB0E601087047000030B5154DC7
:103840002C78BFF35B8F14F001048DB01ED1284695
:1038500019F008FAD0B13F2307930F4B06930F4B93
:103860000F49104808940122CDE904430423CDE90F
:103870000132CDE909440A2303940094FFF770FB59
:10388000094819F039FA284619F0F8F905480DB039
:1038900030BD00BF241800201C1D0208281D02088E
:1038A000682202902818002039380008704700006C
:1038B00030B5154D2C78BFF35B8F14F001048DB03B
:1038C0001FD1284619F0CEF9D8B13F2307930F4BEB
:1038D00006930F4B0F4910480894CDE90443012289
:1038E0000423CDE90132009317221423CDE90944C2
:1038F0000394FFF735FB094819F0FEF9284619F043
:10390000BDF905480DB030BD50180020201D02083B
:103910002C1D02087822029054180020AD380008AF
:103920007047000030B5154D2C78BFF35B8F14F055
:1039300001048DB01FD1284619F094F9D8B13F2366
:1039400007930F4B06930F4B0F4910480894CDE98E
:10395000044304220123CDE90123009302222823FA
:10396000CDE909440394FFF7FBFA094819F0C4F9BB
:10397000284619F083F905480DB030BD7C180020A9
:10398000241D0208301D0208BC230290801800206C
:103990002139000800207047002070470EB403B59D
:1039A00003AB002153F8042B01930BF0D1F902B0C3
:1039B0005DF804EB03B070470CB407B504AB53F8E3
:1039C000042B01930BF0C4F903B05DF804EB02B0D3
:1039D00070470000436C10B5044673B3038F2BB9D6
:1039E000184B194AC021194819F068F9C38E00EB29
:1039F00043035B8C0BB30CF0E3FC238F012B03D848
:103A0000134B144AC521EEE7E28E531C9BB2092BDF
:103A1000194688BFA3F10A0104EB410140F63F10AB
:103A2000498C814209D10A2B04EB420228BF0023B2
:103A300004EB4303508C588451842046BDE8104069
:103A40000CF0A2BBE0F00108E9F0010894F10108D4
:103A5000DEF10108ECF101080CF04EBB10B586B0A8
:103A600002AC84E806001A460AAB05930193099B51
:103A700000932146089B09F021FE06B010BD00000E
:103A800038B518BB124B13481B681349B3B11A68F9
:103A90009C681A4402605A681A440A601C440F4B1E
:103AA00000221A8000F038F8054600F033F80C4B7D
:103AB0001C600C4B1D600C4B188007E00B4B036027
:103AC0000B4B0B600B4B1C68002CE8D138BD00BFC2
:103AD000A8180020AC180020B0180020B41800204E
:103AE0005CA8002064A8002060A80020F4230290B5
:103AF000D82302908C240290044B1B6853F82100B9
:103B0000034B1B6803EB4000704700BFB018002058
:103B1000AC1800200720704700487047B8180020F4
:103B200010B5FFF7C5FE044C2060FFF7FBFE606098
:103B3000FFF784FEA06010BDB8180020704704385D
:103B40007047704710B51021044619F089F82046D7
:103B500010BDA0F10400F5E710B500228260044A10
:103B6000C16002F1080420320460426010BD00BF51
:103B7000C0F2010870477047FEF7A9BA10B5E421FA
:103B8000044619F06DF8204610BD000010B504463B
:103B9000FEF710FB014B2360204610BDF0F2010838
:103BA000704710B54FF4AC71044619F059F820462F
:103BB00010BD10B50446D0F8540100F0B1F820460D
:103BC000BDE810400AF0D8B810B50446FEF774FD01
:103BD000014B2360204610BD24F3010870470438D0
:103BE0007047704710B51021044619F039F8204687
:103BF00010BDA0F10400F5E710B500228260044A70
:103C0000C16002F1080420320460426010BD00BFB0
:103C100068F3010870477047FFF7CDB910B54FF44E
:103C2000C071044619F01CF8204610BD10B50446BA
:103C3000FFF748FA014B2360204610BD98F30108B6
:103C4000704704387047704710B51021044619F0CA
:103C500007F8204610BDA0F10400F5E710B50022DA
:103C60008260044AC16002F10804203204604260AC
:103C700010BD00BFC4F3010870477047FFF704BBD5
:103C800010B54FF47171044618F0EAFF204610BDDC
:103C900010B50446FFF76EFB014B2360204610BDB4
:103CA000F4F30108012808B502464FF0080118BFD7
:103CB0000022114802F028F8104801224FF48041F8
:103CC00002F022F800224FF400610D4802F01CF8C7
:103CD000012001F02FF801224FF40061084802F0A2
:103CE00013F8012001F026F8BDE80840034800223F
:103CF0004FF4804102F008B8000C0240000402407A
:103D00000018024010B54FF47A740020FFF7CAFF84
:103D1000013CFAD110BDFFF7F5BF002202607047E9
:103D2000704770470020704710B5044600F074FBE0
:103D3000A821E0B200F08CFB80B210BD13B50024C6
:103D40000221C0B28DF8074000F082FB8DF8070019
:103D50009DF8073003F00F038DF807309DF807300A
:103D6000022B88BF8DF80740044B9DF807209DF873
:103D700007005A7000229A7002B010BDC6180020C9
:103D800073B5154C1546A37862789A420E461FD932
:103D900003B3012B14BF0021092104230DEB0302FF
:103DA000C0B200F073FB9DF804309DF805201B02A3
:103DB00003F47063134333809DF806309DF80720A9
:103DC0001B0203F4706313432B80A3780133A370A9
:103DD00002B070BD0321E0E7C61800200122A42133
:103DE000C0B200F01BBB0022A421C0B200F016BB81
:103DF000FFF7F9BF7047000010B4094B1A789042E2
:103E00000AD05978884207D00AB129B901229854BA
:103E10005DF8044B00F000BB5DF8044B704700BF39
:103E2000C418002038B504460D460020C949FCF7E7
:103E300033FEC9490320FCF72FFEC8490020FCF7D8
:103E40002BFEC7490220FCF727FEC4490020FCF7DF
:103E500023FEC4490020FCF71FFE0A2000F02EFBC1
:103E6000C1490020FCF718FEC0490020FCF714FEF1
:103E70000A2000F023FBBE490020FCF70DFEBD49DF
:103E80000020FCF709FEBC490020FCF705FEBB49F9
:103E90000020FCF701FEBA490020FCF7FDFDB949FE
:103EA0000020FCF7F9FDAB490020FCF7F5FDB64911
:103EB0000020FCF7F1FDB5490020FCF7EDFDB44909
:103EC0000020FCF7E9FDB3490020FCF7E5FDB2490D
:103ED0000020FCF7E1FDB1490020FCF7DDFDB04911
:103EE0000020FCF7D9FDAF490020FCF7D5FDA34920
:103EF0000020FCF7D1FD97490020FCF7CDFDAA4931
:103F00000220FCF7C9FDA9490020FCF7C5FDA8491E
:103F10000020FCF7C1FDA7490020FCF7BDFDA64924
:103F20000020FCF7B9FDA5490020FCF7B5FDA44928
:103F30000020FCF7B1FD95490020FCF7ADFDA1493B
:103F40000020FCF7A9FD93490020FCF7A5FD9E4940
:103F50000020FCF7A1FD9D490020FCF79DFD9C4938
:103F60000220FCF799FD7D490020FCF795FD994959
:103F70000620FCF791FD98490020FCF78DFD97493C
:103F80000E20FCF789FD96490020FCF785FD954938
:103F90000E20FCF781FD94490020FCF77DFD93493C
:103FA0000A20FCF779FD92490020FCF775FD914944
:103FB0000020FCF771FD69490020FCF76DFD8E497A
:103FC0000A20FCF769FD8D490020FCF765FD8C494E
:103FD0000F20FCF761FD80490020FCF75DFD894959
:103FE0000F20FCF759FD7E490020FCF755FD86495E
:103FF0000A20FCF751FD7C490020FCF74DFD834968
:104000000F20FCF749FD7A490020FCF745FD804967
:104010000F20FCF741FD7F490020FCF73DFD7E4964
:104020000A20FCF739FD7D490020FCF735FD7C496D
:104030000A20FCF731FD49490020FCF72DFD7949A4
:104040000A20FCF729FD6D490020FCF725FD764983
:104050000F20FCF721FD60490020FCF71DFD73498E
:104060000F20FCF719FD5E490020FCF715FD704993
:104070000A20FCF711FD5C490020FCF70DFD6D499D
:104080000F20FCF709FD5A490020FCF705FD6A499D
:104090000F20FCF701FD3D490020FCF7FDFC6749BE
:1040A0000020FCF7F9FC66490020FCF7F5FC6549A7
:1040B0000020FCF7F1FC64490020FCF7EDFC6349AB
:1040C0000020FCF7E9FC23490020FCF7E5FC6049EF
:1040D0000320FCF7E1FC1F490020FCF7DDFC1D4933
:1040E0000020FCF7D9FC5B491020FCF7D5FC1949EE
:1040F0000020FCF7D1FC58491020FCF7CDFC002033
:104100005649FCF7C9FC782000F0D8F9002C00F0E3
:10411000C780022C03D152490020FCF7BDFC012DC1
:104120000BD150490020FCF7B7FC4F490420FCF7A5
:10413000B3FC4E490420FCF7AFFC4D490020FCF7CE
:10414000ABFC4C490020FCF7A7FC4B490020FCF7D6
:10415000A3FC93E024F401088AF401083AF401086E
:1041600010F5010850F4010866F401087CF4010818
:1041700082F4010884F4010886F4010888F4010837
:1041800026F4010828F401082AF401082CF4010897
:104190002EF4010830F4010832F4010834F4010867
:1041A00036F4010838F401088EF501083CF40108E2
:1041B0003EF4010840F4010842F4010844F4010807
:1041C00046F4010848F401084AF401084CF40108D7
:1041D00091F5010894F501084EF401089BF50108DA
:1041E00052F40108AAF5010854F401088EF40108FC
:1041F00056F4010874F4010899F4010858F4010810
:10420000A4F40108B4F40108C4F40108CFF40108CF
:10421000DFF401085AF40108EFF401085CF4010826
:10422000FAF4010805F5010813F5010823F5010862
:1042300033F501083EF501084EF5010876F4010852
:1042400078F401087AF401087EF4010880F401088A
:104250005EF501086CF501087DF501085EF40108C2
:1042600060F4010864F4010862F5010867F50108CB
:1042700068F401086AF401086CF401080A49002096
:10428000FCF70AFC09490020FCF706FC084900205D
:10429000FCF702FC07490020FCF7FEFB002038BDBC
:1042A0000549204639E700BF6EF4010870F40108A3
:1042B00024F4010872F4010862F4010870B52F4D6E
:1042C00088B0284602F064F90446002854D12C4AEC
:1042D0002C4B2D4E0190C5E900234FF48043C5E9D6
:1042E0000200C5E90430C5E906002862336B43F0DB
:1042F00002033363336B059003F002030193019BC8
:104300004FF480711223CDE9031302200423CDE979
:10431000060303A91D4801F069FB4FF4007303A9CC
:104320001A48039301F062FB0294336C43F40013C8
:104330003364336C03F400130293029B336A43F437
:1043400000133362336A23F40013336222460521DB
:104350001F2000F015FD1F2000F044FD224605211E
:10436000202000F00DFD202000F03CFD284608B084
:10437000BDE8704001F0B2BE08B070BDCC1800209E
:1043800000540040801A0600003802400004024039
:1043900010B586B0194B002400941A6B42F001024C
:1043A0001A631B6B03F001030093009B69B901239F
:1043B000CDE9013102230493114B039153F82000FE
:1043C00001A901F013FB06B010BD0129FBD10223A6
:1043D00004934FF488130293094B019153F8200082
:1043E000039401A901F002FB22460F21062000F0F0
:1043F000C7FC062000F0F6FCE5E700BF00380240ED
:104400004800002008B5034B012153F8200001F0BB
:1044100075FC08BD48000020FFF750BF7FB50123A1
:104420008DF817206422CDE901320DF117020092B8
:104430000A460146054801F013FF20B1034801F088
:10444000F5FEFFF73BFF07B05DF804FBCC1800203A
:104450007FB500230A468DF817304FF47A71012397
:10446000CDE901310DF1170100910146064801F037
:1044700087FF20B1044801F0D9FEFFF71FFF9DF828
:10448000170007B05DF804FBCC1800201FB54FF4EF
:104490007A74CDE90134009201230A4601460648A8
:1044A00001F06EFF044620B1034801F0BFFEFFF7A4
:1044B00005FFA0B204B010BDCC18002000F03ABC3B
:1044C00000B595B04FF480720C924FF080710522C8
:1044D00006920F9100220121CDE90312CDE90D22B0
:1044E000CDE911220B9213920092102202924FF406
:1044F000800203460191059206A96A46044802F02B
:10450000C0FB003818BF012015B05DF804FB00BFE8
:104510002019002000B595B04FF480730C9306234A
:1045200006931748002341F2883206A9CDE90D33DE
:10453000CDE911330F930B93139302F05EFBE0B9B7
:104540000223CDE9003301221023CDE902324FF4DA
:1045500080010523CDE905134FF0807304900F937C
:10456000074841F288336A4606A902F08AFB003800
:1045700018BF012015B05DF804FB0120FAE700BF69
:104580002019002000B591B04FF480730893EB23FD
:1045900002934FF4406309934FF4005305934FF097
:1045A00040720023CDE90A320A22079202A96A4624
:1045B00006480F93CDE90D33019302F0B2FB0038AA
:1045C00018BF012011B05DF804FB00BF20190020C6
:1045D00070B588B02C4B2D48002400949A6B42F0A3
:1045E00002029A639A6B02F002020092009A9A69A0
:1045F00042F002029A619A6922F002029A610194E1
:104600001A6B42F002021A631A6B02F00202019264
:10461000019A02941A6B42F020021A631B6B03F09A
:10462000200302934022029B0223CDE903230121B0
:104630000323CDE905130A2603A90925079601F0EE
:10464000D5F94FF4806303A91148039305940795A6
:1046500001F0CCF94FF4407303A90D48039307967A
:1046600001F0C4F9C02303A909480393079501F099
:10467000BDF922460F215B2000F082FB5B2000F099
:10468000B1FB08B070BD00BF00380240000402401A
:1046900000140240F0B5484C484B236091B02046CE
:1046A00002F098FA054610B1012011B0F0BD0146A4
:1046B0002046FFF78DFF01261023C4E90166E36061
:1046C0004FF0807797FAA7F3B3FA83F3013B2361A6
:1046D00020464FF48063C4E90535C4E9075502F06C
:1046E00025FA0028E0D1CDE90900CDE90D004FF40D
:1046F000807566230B9007900F9041F2883202A9D3
:1047000020460895029302F078FA08B10420CCE71D
:10471000992341F2883202A92046029302F06DFAF1
:104720000028F3D141F28830FFF7CAFE0028EDD10E
:10473000CDE90900CDE90C60CDE90E008523079095
:1047400041F2883202A92046089502930B9702F0A5
:1047500054FA0028DAD141F288320DF107012046DF
:1047600002F0C4FB0028D1D1FFF7D4FE0028CDD140
:1047700081230293F02292FAA2F29DF807300A21D7
:10478000B2FA82F201FA02F203F00F03134302A914
:1047900041F2883220468DF8073002F02EFA0028C8
:1047A000B4D141F288320DF10701204602F042FBFC
:1047B00000283FF47AAFA9E720190020001000A0DC
:1047C00008B55B2000F01CFB1448402101F0F4F90F
:1047D00013484FF4806101F0EFF911484FF48071F4
:1047E00001F0EAF90E484FF4007101F0E5F90C48C8
:1047F000802101F0E1F90A48402101F0DDF9094B7F
:104800009A6942F002029A619A6922F002029A6160
:104810009A6B22F002029A6308BD00BF00040240B6
:10482000001402400038024038B5084D084B2B6098
:10483000284602F0CFF9044628B901462846FFF77A
:10484000BFFF204638BD0124FBE700BF2019002030
:10485000001000A02DE9F743214C224D01264FF016
:1048600000081027214681464FF6FF722846C4E90A
:104870000067C4E90268CDF8048002F0DBFF30462F
:1048800000F058FA022321464FF6FF722846C4E989
:104890000037C4E9026802F0CDFF0323C4E9003702
:1048A000214608234FF6FF722846C4E9023802F079
:1048B000C1FF4FF40C7301930423C4E90037214670
:1048C000019BA6604FF6FF722846E36002F0B2FF3C
:1048D0004946284603B0BDE8F04302F0C9BF00BF17
:1048E0006C190020581A002070B506468EB00028BA
:1048F00000F0BD805F4B6048604C002500959A6BCE
:1049000042F001029A639A6B02F001020092009A4F
:1049100001951A6B42F480021A631A6B02F480024A
:104920000192019A02951A6B42F004021A631A6B03
:1049300002F004020292029A03951A6B42F00802F6
:104940001A631A6B02F008020392039A04951A6B19
:1049500042F010021A631A6B02F010020492049AD9
:1049600005951A6B42F020021A631A6B02F02002BE
:104970000592059A06951A6B42F040021A631A6B6B
:1049800002F040020692069A07951A6B42F08002E6
:104990001A631A6B02F080020792079A08951A6B45
:1049A00042F480721A631B6B03F480730893022233
:1049B000089B0C920123CDE90A2309A90C220D9230
:1049C000099301F013F84CF203732D48099309A9D8
:1049D00001F00CF84FF683732A48099309A901F0F6
:1049E00005F84FF63F032848099309A900F0FEFF98
:1049F00048F233132548099309A900F0F7FF4FF651
:104A00000C732348099309A900F0F0FF40F2FF63FB
:104A10002048099309A900F0E9FF80224FF40073B0
:104A2000C4E902234FF480614FF48053C4E90413B6
:104A30004FF48043C4E906354FF40033C4E9083528
:104A40000323C4E90A352563134B346320462360EE
:104A50006560A66300F08EFA204600F00BFA38205D
:104A60002A46052100F08CF9382000F0BBF90EB081
:104A700070BD00BF0038024000080240F819002055
:104A8000000C0240001002400014024000180240D6
:104A9000001C0240002002401064024038B5194C4E
:104AA000194D1A4B2360072102230422C5E9003166
:104AB000C5E90221C5E90433AB61E260402320224D
:104AC000C4E9042300214FF4C073C4E906314FF454
:104AD00000604FF48053C4E908032046C4E9011183
:104AE000A162FFF701FF2946204602F075FE084C3F
:104AF000003818BF0120207040F26950FFF7AAFE6D
:104B0000207838BD581A00207C190020400100A0F0
:104B10004D00002008B548B1382000F071F9044874
:104B2000044B0360BDE8084000F024BA08BD00BF94
:104B3000981900201064024038B5074C074B2360D9
:104B4000204602F069FE064D014618B9287020463D
:104B5000FFF7E0FF287838BD581A0020400100A078
:104B60004C0000202DE9F041164D174C2B680646ED
:104B700020780F4698476B6854209847C0B2112898
:104B80000AD06B6870209847C0B270231128237038
:104B900004D00320BDE8F081542323700B4BDFF8D1
:104BA00030802078C8F80050BE4234BF01260C2661
:104BB0001E70AB689847D8F800302078DB689847BB
:104BC0000020E7E7200000208C1A0020A41A002013
:104BD000A01A00202DE9F04FDFF8DCB0334ADBF8F3
:104BE000003006461B69107885B09847307058B180
:104BF000DFF8C8802E4F06F1020A03AD02A94FF07C
:104C0000000933784B4503D8002005B0BDE8F08F8C
:104C1000DBF8003025485B69007801912A46984707
:104C2000244B01991B7813F0080F1FBF0A882888AE
:104C300008802A809A0741BF0A88C2F5477203326A
:104C40000A805B0748BF2B88D8F8002031F8020B98
:104C500042BFC3F5EF7301332B8093B290428CBFF8
:104C6000C31A1B1A9BB235F8022B01933B689CB206
:104C70009A4288BF141B019B98BFA41AA4B21C447B
:104C8000C446052CC8BFC8F80000DCF80030C8BF17
:104C90003A60BE462AF8023BDEF80030AAF802303D
:104CA00008F10408043709F10109AAE78C1A002069
:104CB000981A0020A41A0020A01A0020901A0020A0
:104CC000054BD3F8882042F47002C3F888204FF0D7
:104CD00000629A60704700BF00ED00E008B50B4B22
:104CE0001A6842F400721A601A6842F480621A600C
:104CF0001A6842F480721A60032000F02FF80F2027
:104D0000FDF7E8F8FCF78AFE002008BD003C0240F1
:104D1000034A044B11681B780B441360704700BFB3
:104D2000A81A002054000020014B1868704700BFEB
:104D3000A81A002038B50446FFF7F6FF631C1CBF15
:104D4000054B1B78054618BFE418FFF7EDFF431B22
:104D5000A342FAD338BD00BF540000200749CA68F7
:104D600022F4E0620302120403F4E063120C134322
:104D700043F0BF6343F40033CB60704700ED00E0C5
:104D8000164B30B5DC68C4F30224C4F10705231DBB
:104D9000042D28BF0425062B4FF0FF338CBF033CA6
:104DA000002403FA05F521EA0501A34022EA0302E3
:104DB000A140002841EA0203ACBF00F16040084A6C
:104DC0004FEA0313B8BF00F00F00DBB2AABF00F533
:104DD0006140135480F8003330BD00BF00ED00E0A7
:104DE00014ED00E0002808DB4209012300F01F0059
:104DF00003FA00F0014B43F82200704700E100E0A5
:104E000000280DDB4309012200F01F0002FA00F028
:104E10002033044A42F82300BFF34F8FBFF36F8F54
:104E2000704700BF00E100E010B5044650B143797F
:104E300003F0FF0213B90271FCF710FE0123637146
:104E4000002010BD0120FCE7036810B5084C0246A5
:104E5000D9B210391820B1FBF0F0205CD06523F4F2
:104E60007F7020F003005F2988BF0430906510BD7B
:104E7000D1F5010870B50446FFF756FF0546002C32
:104E800073D0022384F835302268002384F834304C
:104E9000136823F00103136021680B68D8072FD42F
:104EA0000B68334DA0691D40D4E901231343E26828
:104EB00013432269134362691343E26903431343B3
:104EC000226A1343626A042A43EA050302BFD4E953
:104ED0000B5635432B430B604B69042A23F0070321
:104EE00043EA020333D1A26AE56A13437DB390B962
:104EF000012A21D032F0020229D1EA0127D51EE091
:104F0000FFF712FF401B0528C6D920236365032045
:104F100084F8350070BDB0F5005F14D1032A16D8AF
:104F200001A050F822F000BF3F4F0008FB4E0008E0
:104F30003F4F0008394F0008B5F1C07F07D140232B
:104F400063650120E4E7022AF9D9032AD5D04B6131
:104F50002046FFF779FFE26D3F23934083600020F6
:104F60000123606584F83530D4E70120D2E700BF23
:104F70003F8010F038B5054620B390F83530022B4D
:104F8000DCB21DD003681A6822F0010200241A6006
:104F900021221C605C609C60DC601C615A61FFF730
:104FA00053FFEA6D3F239340C5E90F44C5E911441F
:104FB000C5E9134483606C6585F8344085F8354055
:104FC000204638BD0124FBE770B50446866DFFF727
:104FD000ABFE94F83530022B054606D0802363657E
:104FE000002384F83430012070BD23681A6822F051
:104FF00016021A605A6922F080025A61226C0AB9BC
:10500000A26C1AB11A6822F008021A601A6822F01B
:1050100001021A6023681B6813F001030AD1E16DD5
:105020003F228A40B260012284F8352084F834306F
:105030001846D9E7FFF778FE401B0528EAD9202358
:1050400063650320002384F8350084F83430CBE70F
:1050500010B5044630B390F8393003F0FF021BB9A5
:1050600080F83820FCF712FD22686168022384F87A
:105070003930136823F440330B431360536BA1683A
:1050800023F007030B435363136CE16823F47F534E
:1050900023F03F030B43136400200123E06384F8F3
:1050A000393010BD0120FCE770477047036870B5C8
:1050B0005E681D68F207044614D5E90512D51A6822
:1050C00022F480721A60C26B42F00102C2630122B4
:1050D0009A60042380F83930002380F8383043691F
:1050E00003B19847B20616D5AB0414D523681A68E5
:1050F00022F400521A6020229A60E36B43F002030C
:10510000E363042384F83930002384F8383063697A
:105110000BB120469847300716D5290514D52368CA
:105120001A6822F400621A6008229A60E36B43F066
:105130000403E363042384F83930002384F838300F
:1051400063690BB12046984772070BD56B0509D5EB
:1051500023681A6822F480621A6004229A6020464A
:10516000FFF7A2FFB00714D5A90512D523681A6866
:1051700022F400721A6002229A60E36BE363012357
:1051800084F83930002384F8383023690BB1204685
:105190009847F20613D5EB0411D523681A6822F458
:1051A00080521A6010229A60E36BE363012384F853
:1051B0003930002384F838302046FFF776FF70BD81
:1051C000F0B590F83830012B4FF002032BD00122BC
:1051D00080F8393080F8382000EB0113D3E907421A
:1051E0005D6A184F44EA0242093C012C9CBF05F05D
:1051F0007F431A434FEA0116036888BF42EA0562FB
:1052000099B9596A39400A435A62012C82699A61F4
:1052100003D8426A22F07F429A62012380F8393033
:10522000002380F838301846F0BDD96939400A4368
:10523000DA618219012C92691A619CBF25F07F45C1
:105240001D62EAE7F0FFFC002DE9F04107460D463C
:1052500014461E46FFF768FD80463B685A6FD2072A
:105260000AD5069944EA062444EA014444EA85142E
:10527000DC660020BDE8F081FFF756FDA0EB0800DA
:10528000B0F57A7FE9D90320F4E7037C012B5DD0E8
:1052900003680022C3F8C420C3F8C820CA0748BF67
:1052A000D3F8C420816142BF6FEA12426FEA024222
:1052B000C3F8C4208A0742BFD3F8C42042F4F812CE
:1052C000C3F8C4204A0742BFD3F8C82042F0010205
:1052D000C3F8C8200A0742BFD3F8C82042F0020230
:1052E000C3F8C820CA0642BFD3F8C82042F00C0257
:1052F000C3F8C8208A0642BFD3F8C82042F0100283
:10530000C3F8C8204A0642BFD3F8C82042F02002A2
:10531000C3F8C8200A0642BFD3F8C82042F04002B2
:10532000C3F8C820CA0542BFD3F8C82042F08002A3
:10533000C3F8C8208A0542BFD3F8C82042F4F85207
:10534000C3F8C82000230374184670470220704732
:1053500073B50D460446002800F0A980437C0BB9C4
:10536000FCF7B6FB03236374002300932368D3F890
:10537000302442F08072C3F83024D3F8303403F084
:1053800080730093009BFFF7CFFC06462268D2F89B
:105390000C34D9047AD5D2F8303423F45E3323F4B4
:1053A000FE73C2F83034D5E90003DB0243EA800320
:1053B000A868D2F8301443EA00430B43C2F83034F3
:1053C00000230193D2F8303443F00103C2F83034A3
:1053D000D2F8303403F0010301930120019BFFF761
:1053E000A9FCFFF7A1FC06462368D3F80C24D205DC
:1053F00056D5D3F8A020616842F00602C3F8A02079
:10540000D3F8942022F00302C3F89420D3F8942018
:105410000A4342F00102C3F89420D3F8A420E168C3
:1054200022F00302C3F8A420D3F8A4200A43C3F84F
:10543000A4209A68A16822F0FF029A609A680A4341
:105440009A606A681B49012A38BF01224A43A96849
:1054500001F003018A4029684FF4FA504143B2FB3E
:10546000F1F2D3F8181421F03F01C3F81814D3F85F
:10547000181400200A43C3F81824C3F8C400C3F862
:10548000C80001236061A061637407E0FFF74CFC72
:10549000801BB0F57A7F7FF679AF032002B070BD34
:1054A000FFF742FC801BB0F57A7F9DD9F5E701201C
:1054B000F4E700BF00093D0070470368D3F80C24EF
:1054C000D10710B5044608D5D3F80824D20704D56F
:1054D0000122C3F81024FBF733FB2368D3F80C2414
:1054E000910709D5D3F80824920705D50222C3F8FD
:1054F00010242046FBF758FBA369002B4ED02168EF
:10550000D1F8BC20D1F8C430D1F8C0001A40D1F88D
:10551000C83091B2034019B1616941F00101616184
:1055200012F4F81F1EBF626942F002026261D807DE
:1055300042BF626942F004026261990742BF626938
:1055400042F00802626113F00C0F1EBF626942F064
:1055500010026261DA0642BF626942F020026261B3
:10556000980642BF626942F040026261590642BF3A
:10557000626942F0800262611A0642BF626942F4C7
:105580008072626113F4F85F1EBF636943F40073B5
:105590006361636913B12046FFF78EFF10BD037C82
:1055A000012B0BD003681A6B22F003021A631A6BEB
:1055B0001143196300230374184670470220704793
:1055C00030B5037C012B6AD003680C685A6B42F03B
:1055D00001025A63D3F8002422F00102C3F8002428
:1055E000D3F8002442F00102C3F80024DA6822F064
:1055F0000302DA60DA682243DA605A6922F00702AD
:105600005A61D1E906522A434D695C692A43224313
:105610005A611A694D6822F00F021A611C692C4305
:105620001C61D3F8004424F00E04C3F80044D3F8FE
:1056300000248C6842EA4502C3F800245A6E120C1A
:1056400012045A665A6E22435A66D3F8002422F096
:10565000F002C3F80024D1E903252A434D6AD3F8A8
:1056600000442A430D6A896A2A432243C3F800246E
:105670009A6E22F001029A669A6E0A439A66D3F8ED
:10568000082442F00102C3F80824D3F8082442F0A9
:105690000202C3F8082400230374184630BD022018
:1056A000FCE7000030B5037C012B2AD00268164BC2
:1056B000946E23409366D1E900352B438D68946E38
:1056C0002B43CD682B430D692B434D692B438D69CB
:1056D0002B43CD692B430D6A2B434D6A2B438D6AB7
:1056E0002B43CD6A096B2B4323439366936E23F0C0
:1056F00002039366936E0B4393660023037418466C
:1057000030BD0220FCE700BFFF80F0FE037C012BD0
:105710000BD00368DA6A22F01F02DA62DA6A1143F8
:10572000D96200230374184670470220704730B5D1
:10573000037C012B35D0D1E900240368944238BFA3
:105740001446D3F8982002F0FC22C3F89820D3F82E
:10575000982042EA04422243C3F89820D3F89C20C0
:1057600002F40042C3F89C20D1E90225120642EA65
:1057700005420D69D3F89C4049692A432243C3F886
:105780009C20D3F8A42022F47F42C3F8A420D3F8AD
:10579000A42042EA0122C3F8A4200023037418467F
:1057A00030BD0220FCE7000030B5037C012B5CD04B
:1057B00003680C689A688D6822F47F429A609A6840
:1057C00042EA04229A609A6F4C6892B29A679A6F82
:1057D00042EA04429A679C6F254A14409C679C6F7A
:1057E0002C439C67DC6FCD681440DC67DC6F2C4376
:1057F000DC67D3F880400D691440C3F88040D3F8CB
:1058000080402C43C3F88040D3F884404D69144055
:10581000C3F88440D3F884402C43C3F88440D3F8C1
:10582000844024F08074C3F88440D3F884408D69A8
:105830002C43C3F88440D3F88840CD69096A1440EA
:10584000C3F88840D3F888402C43C3F88840D3F885
:105850008C402240C3F88C20D3F88C200A43C3F834
:105860008C2000230374184630BD0220FCE700BFE3
:105870000000FFFF037C012B82B01CD002680023D4
:105880000093516841F001015160516801F001013C
:10589000009100990193D2F8041441F00801C2F874
:1058A0000414D2F80424037402F008020192019A4D
:1058B000184602B070470220FBE7037C012B1FBF94
:1058C0000268D2F8043443F00403C2F804341DBF64
:1058D0000023037418460220704737B5057C012D5C
:1058E000044609D001250574069D0095FFF7ACFC20
:1058F0000023237403B030BD0220FBE72DE9F84FED
:105900001C46037C012BDDE90A9806460F46154626
:1059100053D001230374FFF707FA834631684B6FB6
:1059200013F0010A1AD0032C20464FF0000228BFC2
:10593000032082421ED1A31AC1F8709042441BBBBF
:105940000134220245EA871592B22402154304F479
:105950007F042C43CC661846337409E0FFF7E4F962
:10596000A0EB0B00B0F57A7FD8D986F810A0032001
:10597000BDE8F88F18F8023001324FEAC20C03FA82
:105980000CF349EA0309D4E7042B4FF0000C9E46C0
:10599000604628BF4FF0040E12F800804FEAC0099D
:1059A000013008FA09F886454CEA080CF4D1C1F830
:1059B00070C0A3EB0E037244C1E70220D8E7037C5A
:1059C000012B10D00368D3F81C2422F0C062C3F866
:1059D0001C24D3F81C2442EA4161C3F81C140023A0
:1059E0000374184670470220704700002DE9F74FF6
:1059F000DFF8C0916D4A00230D6801249C4004EA41
:105A0000050CAC4340F0B9804D6805F003044FEA43
:105A100043080326671E06FA08F6012F6FEA0606FA
:105A200034D8876807EA060ECF6807FA08F747EA0E
:105A30000E078760476827EA0C0EC5F300179F40E2
:105A400047EA0E074760C76807EA060E8F6807FA3D
:105A500008F747EA0E07022CC76019D14FEAD30AAC
:105A600000EB8A0A03F0070BDAF820704FEA8B0B81
:105A70004FF00F0E0EFA0BFE27EA0E0E0F6907FA13
:105A80000BF747EA0E07CAF8207001E0032CDAD1C1
:105A9000076804FA08F43E40264315F4403F0660C8
:105AA0006BD04FF0000ACDF804A0D9F84460404C08
:105AB00046F48046C9F84460D9F8446006F480464C
:105AC0000196019E23F0030606F1804606F59C36FA
:105AD00003F0030ED6F808804FEA8E0E0F2707FA60
