:020000040800F2
:1000000000000520A5050008211F0008231F000887
:10001000251F0008271F0008291F000800000000F6
:100020000000000000000000000000002170000837
:100030002B1F000800000000B17000084169000893
:10004000F5050008F5050008F5050008F5050008A8
:10005000F5050008F5050008F5050008F505000898
:10006000F5050008F5050008F5050008F505000888
:10007000F5050008F5050008F5050008F505000878
:10008000F5050008F5050008F5050008F505000868
:10009000F5050008F5050008F5050008F505000858
:1000A000F5050008F5050008F5050008F505000848
:1000B000F5050008F5050008F5050008F505000838
:1000C000F5050008F5050008F5050008F505000828
:1000D000F5050008F5050008F5050008F505000818
:1000E000F5050008F5050008F5050008F505000808
:1000F000F5050008F5050008F5050008F5050008F8
:10010000F5050008F5050008F5050008F5050008E7
:10011000F5050008F50500082D1F0008F505000885
:10012000F5050008F5050008F5050008F5050008C7
:10013000F5050008F5050008F5050008F5050008B7
:10014000F5050008F5050008F5050008F5050008A7
:10015000F5050008F5050008F5050008F505000897
:10016000F5050008F5050008F5050008F505000887
:10017000F5050008F5050008F50500080000000079
:10018000F5050008F5050008F5050008F505000867
:10019000F5050008F5050008F5050008F505000857
:1001A000391F0008F5050008451F0008F50500087F
:0401B000511F0008D3
:1001C00010B5054C237833B9044B13B10448AFF391
:1001D00000800123237010BD4001002000000000BA
:1001E000C0B3010808B5034B1BB103490348AFF383
:1001F000008008BD0000000044010020C0B30108D9
:1002000001F0FF01102A2BDB10F0070F08D010F8C7
:10021000013B013A8B422DD010F0070F42B3F6D1CB
:10022000F0B441EA012141EA014122F007047FF0E4
:1002300000070023F0E80256083C85EA010586EA3B
:10024000010685FA47F5A3FA87F586FA47F6A5FA77
:1002500087F68EB9EED1F0BC01F0FF0102F0070283
:1002600032B110F8013B013A83EA010313B1F8D12E
:100270000020704701387047002D06BF354603380F
:10028000073815F0010F07D1013015F4807F02BF48
:10029000013015F4C03F0130F0BC0138704700BF99
:1002A00053B94AB9002908BF00281CBF4FF0FF31DD
:1002B0004FF0FF3000F074B9ADF1080C6DE904CED9
:1002C00000F006F8DDF804E0DDE9022304B0704731
:1002D0002DE9F047089D04468E46002B4DD18A42F9
:1002E000944669D9B2FA82F252B101FA02F3C2F12C
:1002F000200120FA01F10CFA02FC41EA030E9440BD
:100300004FEA1C48210CBEFBF8F61FFA8CF708FBDD
:1003100016E341EA034306FB07F199420AD91CEBB5
:10032000030306F1FF3080F01F81994240F21C81E7
:10033000023E63445B1AA4B2B3FBF8F008FB10332F
:1003400044EA034400FB07F7A7420AD91CEB040464
:1003500000F1FF3380F00A81A74240F20781644434
:10036000023840EA0640E41B00261DB1D4400023B9
:10037000C5E900433146BDE8F0878B4209D9002D1D
:1003800000F0EF800026C5E9000130463146BDE8A7
:10039000F087B3FA83F6002E4AD18B4202D3824211
:1003A00000F2F980841A61EB030301209E46002DC0
:1003B000E0D0C5E9004EDDE702B9FFDEB2FA82F215
:1003C000002A40F09280A1EB0C014FEA1C471FFA73
:1003D0008CFE0126200CB1FBF7F307FB131140EA5A
:1003E00001410EFB03F0884208D91CEB010103F127
:1003F000FF3802D2884200F2CB804346091AA4B2E9
:10040000B1FBF7F007FB101144EA01440EFB00FEBC
:10041000A64508D91CEB040400F1FF3102D2A64521
:1004200000F2BB800846A4EB0E0440EA03409CE7C0
:10043000C6F12007B34022FA07FC4CEA030C20FA6D
:1004400007F401FA06F31C43F9404FEA1C4900FA8D
:1004500006F3B1FBF9F8200C1FFA8CFE09FB18110A
:1004600040EA014108FB0EF0884202FA06F20BD97D
:100470001CEB010108F1FF3A80F08880884240F2CD
:100480008580A8F102086144091AA4B2B1FBF9F011
:1004900009FB101144EA014100FB0EFE8E4508D90C
:1004A0001CEB010100F1FF346CD28E456AD9023891
:1004B000614440EA0840A0FB0294A1EB0E01A14276
:1004C000C846A64656D353D05DB1B3EB080261EBE4
:1004D0000E0101FA07F722FA06F3F1401F43C5E9BE
:1004E000007100263146BDE8F087C2F12003D840F4
:1004F0000CFA02FC21FA03F3914001434FEA1C4736
:100500001FFA8CFEB3FBF7F007FB10360B0C43EA27
:10051000064300FB0EF69E4204FA02F408D91CEBD7
:10052000030300F1FF382FD29E422DD902386344D5
:100530009B1B89B2B3FBF7F607FB163341EA034175
:1005400006FB0EF38B4208D91CEB010106F1FF38C4
:1005500016D28B4214D9023E6144C91A46EA0046BB
:1005600038E72E46284605E70646E3E61846F8E64D
:100570004B45A9D2B9EB020864EB0C0E0138A3E796
:100580004646EAE7204694E74046D1E7D0467BE777
:10059000023B614432E7304609E76444023842E7EF
:1005A000704700BFDFF834D0002103E00C4B5B58EC
:1005B000435004310B480C4B42189A42F6D30B4A75
:1005C00002E0002342F8043B094B9A42F9D303F0BE
:1005D000A1F919F08FFE00F07FFF704700000520A1
:1005E000F0E8010800000020400100204001002048
:1005F00088A70020FEE700F0F5BD00F063BE0021F3
:10060000084602F0EFBC002002F026BD40687047AB
:10061000416070474FF0E022D2F8FC3D43F0807318
:10062000C2F8FC3DA2F55042136843F00103136089
:100630007047511A01EB5301B1FBF3F07047000012
:10064000014B5868704700BF001000E0704710B5BC
:100650000C21044619F0D5FD204610BD036810B5E5
:100660001B69044631B19847A26863689B1A184415
:10067000606010BD9847A060FBE7704770470000BE
:1006800008B5FFF7BCFF024B00221A6008BD00BF8F
:100690005C01002070B50D46FFF7B5FF0B4A93785B
:1006A00056781178D370C4B213F00100967051706F
:1006B00014700AD016F0010007D011F0010004D028
:1006C000E3075ABF01202870002070BD5C010020A4
:1006D00010B50421044619F094FD204610BD704762
:1006E00010B50421044619F08CFD204610BD000011
:1006F00008B54FF4F0714FF4487003F05DF8074B04
:1007000010B901221A7008BD1B78002BFBD1044BD5
:10071000044A0548272119F0A3FD00BF600100200D
:100720005CB401086FB4010899B401087FB50B4BA4
:100730001C780E4615465CB101A803F075F89DF8CB
:10074000043043B1BDF806303360BDF80A302B6089
:10075000204604B070BD1C46FAE700BF60010020CF
:1007600001280BD0032810D0C0B90D4B1A68B2FA7B
:1007700082F2520904210B4804F0F0B8084B5A6881
:10078000B2FA82F252094021F5E7054B0648DA68D1
:10079000B2FA82F252094FF48051EDE7704700BF80
:1007A00064010020000002400018024001280BD024
:1007B000032810D0C0B90D4B1A68003A18BF0122A7
:1007C00004210B4804F0CAB8084B5A68003A18BF15
:1007D00001224021F5E7054B0648DA68003A18BFC8
:1007E00001224FF48051EDE7704700BF6401002003
:1007F0000000024000180240012806D0032806D05D
:1008000048B90421044804F0AEB84021FAE703488F
:100810004FF48051F7E77047000002400018024093
:10082000012808B50AD003280AD068B9042107486E
:1008300004F08EF8431E5842584108BD4021F6E7A7
:1008400003484FF48051F3E70020F3E70000024033
:100850000018024070B5084D00240126E0B2FFF7F1
:10086000DFFF18B12B68012B18BF2E600134052C57
:1008700005F10405F2D170BD64010020012380F868
:10088000741080F87530704700207047034B416446
:10089000003918BF01211970704700BFE3A4002080
:1008A00000207047836B0BB10846184770474FF61E
:1008B000FF707047406803689B691847704770472E
:1008C000014B1868704700BF74010020704700009A
:1008D00038B50446094DFFF7BDFF204600F072FD14
:1008E000002384F84A302846FFF794FE012384F859
:1008F0006C30034B2561636138BD00BF800100206F
:100900007C0100200368044607B5D3F8803098477F
:10091000236820469B6F984700F02EFA23682046F4
:100920001B6F98470021064800912923152203F0E8
:10093000FEFD00F021FA236820461B6F9847F8E778
:100940001013002010B5044609F0EEFA2368204683
:10095000D3F8AC30BDE81040184700F032BD00F0CD
:1009600048BD00F048BD00F01BBD00F021BD00F007
:1009700045BD0000024B00221A7008F09DBC00BF6C
:100980001400002010B5044608F0A2FC94F84B3087
:1009900013B1024B01221A7010BD00BF14000020D9
:1009A00008F04EBC10B57C21044619F02AFC204604
:1009B00010BD90F877301BB1406803681B6818477A
:1009C0001846704710B590F8341090F874400C4BEE
:1009D0008C421A7809D03AB90A4A0B491488088817
:1009E00010800C8001221A7010BD002AFCD0054A2C
:1009F00005491488088810800C800022F3E700BFA6
:100A0000DCA40020D8A40020DAA4002008B5094BFB
:100A10001B888B4203D8084B1B88934205D9074B90
:100A2000074A08489E2119F01BFC074B1980074B09
:100A30001A8008BDD8A40020DAA40020FCB4010864
:100A40005FB50108A2B50108DEA40020E0A40020E3
:100A500070B50D4619460B4B1D6035B90A4B0B4A54
:100A60000B4840F2BB2119F0FBFBC0E90F52094BC8
:100A7000003A18BF01221A700368BDE87040D3F82D
:100A80008C30184774010020E7B501081FB6010833
:100A9000A2B50108E2A40020012807B50AD84B78C6
:100AA00000930B7808481522002103F040FD03B0A5
:100AB0005DF804FB01910B5C009339220346002191
:100AC000014803F045FDF2E71013002037B50B4A4B
:100AD0000B4C02231525137055700192442200928D
:100AE00000213922204603F033FD002100913523F7
:100AF0002A46204603F01BFD03B030BD8C010020C8
:100B00001013002007B50190FFF7E0FF019803B034
:100B10005DF804EB00F054BC07B5074B03EB800015
:100B20002A2301900093392204230021034803F073
:100B30000FFD03B05DF804FB04000020101300203B
:100B400070B5154D04460020FFF70AFE2A6892F89A
:100B50006630013382F8663000F002F90F4B2868E6
:100B60001A781B7880F84A2023B10D4D2B7803F0BA
:100B7000FF0623B1BDE870400020FFF717BE09F063
:100B8000D3F9084B30461E60FFF7C6FF204603F03E
:100B9000BEFC01232B7070BDE4A4002014000020D3
:100BA0008E01002078010020334B1A68013270B5A5
:100BB0001A60324B324C1968324B032A05462EDC40
:100BC000D4F8040420F00800C4F804044FF4C870FA
:100BD00000FB0211C3F8AC100CBFE823C82302339A
:100BE00028491B0443F4F1730B61274B4B61A3F5B8
:100BF000F073C1F88830254BC1F8B030012310469E
:100C00004B62FFF789FF1E4AD2F8043443F0080311
:100C10002846C2F80434BDE8704003F078BCD4F82C
:100C2000042422F00802C4F80424194AC3F8AC10C2
:100C30001A6102F101125A61164AC3F88820134A58
:100C4000C3F8B02001225A620020FFF765FFD4F8F4
:100C5000043443F00803C4F804340020FFF7A6FD71
:100C60000D4B00221A700D4B186820B10368BDE8C7
:100C700070401B6A184770BD780100207401002085
:100C8000006C014000680140E301CA009301800646
:100C9000E201CA000300CA008E010020E4A4002083
:100CA00008B5044B0146186801B1012109F056F955
:100CB000012008BDE4A40020054B064800225A602C
:100CC0009A60054A1A60054B0360FFF7D9BC00BF64
:100CD000800100207C01002020B4010848B40108F4
:100CE000012108B50022084605F0B9FE0A4B18603C
:100CF00028B90A4B0A4A28210A4819F0B1FA0022F9
:100D00000421012005F048FF074B186018B9074B74
:100D1000034A2C21F0E708BD9401002048B70108E0
:100D200091B70108C0B70108900100200BB8010875
:100D3000024B4FF0FF31186805F0DBBE9401002034
:100D4000014B186805F000BF94010020024B002100
:100D5000186805F0CEBE00BF94010020FFF7F0BF79
:100D600003480449006800231A4605F050BF00BF3D
:100D7000900100201800002013B5084C00231A46EB
:100D800001A9206805F073FF20684FF0FF330022AF
:100D900001A905F06CFF02B010BD00BF900100205A
:100DA00003685B6C18470120704703689B6A18470B
:100DB00082B0002301930D4B1A6B42F400021A63B8
:100DC0001A6B02F400020192019A1A6942F40002BD
:100DD0001A611A6922F400021A61054B054A1A6168
:100DE000054B4FF080629A6002B0704700380240B5
:100DF000D01200203D0E000800E100E040F2EF308C
:100E000070470000054B0360054B4FF08062C3F84C
:100E10008820BFF34F8FBFF36F8F7047A8B90108C9
:100E200000E100E010B504464FF45A61FFF7EAFF15
:100E3000204619F0E6F9204610BD0000024B1B6861
:100E4000586803685B691847E4A4002070B504463D
:100E500025460A4B0C30002660602672667245F803
:100E6000203B6022294609F0DFF904F55A63EE6061
:100E70002435AB42FBD1204670BD00BFA8B90108A4
:100E800008B50B290BD8DFE801F01206100A0A0A90
:100E90000A0808080808012008BD0520FCE7054BE2
:100EA000054A0648662119F0DBF90020F4E7022024
:100EB000F2E700BF4DB8010868B80108B2B80108F0
:100EC00008B50A2909D8DFE801F010060E0808085D
:100ED000080606060600012008BD054B054A06481F
:100EE000872119F0BDF90020F6E70220F4E700BFE2
:100EF0004DB80108FBB80108B2B801082DE9F84364
:100F00004F7F0C4639468146FFF7BAFF94F81E80A2
:100F1000054641464846FFF7B3FF41460646484668
:100F2000FFF7CEFFA18A628B424B521A1A649A6174
:100F3000228B521A1A61E28A586342EA01425A64C9
:100F400020696268D863DA60216894F81CC080293F
:100F50004FEA0C6226D010D8202945EA020461D05D
:100F600040295FD004295DD0324B2A4342F400323D
:100F70004745DA615AD0304A40E0B1F5807F07D06A
:100F8000B1F5007FF0D142F4003242F0090203E0F3
:100F900042F4003242F00A02DA61E2681A625E62EA
:100FA00058612AE0A4682A4342F40032211DD96224
:100FB000DA6122785E62586142B1012A21D01F4B6A
:100FC0001F4A204840F2111119F04AF9DA69618884
:100FD00022F47F42013922F0100242EA0122DA6152
:100FE0000120144BDA6942F02002DA61DA699206D4
:100FF000FCD410229A600028BDD0134A1A60BDE8C4
:10100000F8836288D969541E21F47F4222F01002CD
:1010100042EA0422BCF1FF0042F0100218BF012096
:10102000DA61DEE744F40034DC61B8E740F2012223
:10103000E4E700BF00B002400102010046B9010828
:1010400060B90108B2B801080102020070B50C468F
:10105000897FFFF735FFA68AE18A628B154B2569E8
:10106000586341EA0641921B5964DD631A6426689D
:10107000E168082E0DD19A611A615862207F0E4AEC
:1010800042EA0062DA610D4A19625D61DD601A6050
:1010900070BD0022D8611A6148090A0A02F4784238
:1010A00000F4FC600243C1F3C4010A439A63044A9A
:1010B000EDE700BF00B0024009000100010202009C
:1010C00001020300012070470C2070470C2303FB32
:1010D0000100083070470C2303FB01000830704703
:1010E00001207047E4207047E42303FB010008302F
:1010F0007047E42303FB010008307047012070476C
:101100001020704700EB01100830704700EB011011
:1011100008307047084601F0F7B8000010B5034BDF
:101120000360044607F0B2FD204610BD60BA010816
:1011300010B50446FFF7F2FF2046142119F061F8BC
:10114000204610BD10B5034B0360044607F09EFD1A
:10115000204610BD2CBA010810B50446FFF7F2FF77
:101160002046EC2119F04DF8204610BD10B5034B78
:101170000360044607F08AFD204610BDF8B9010857
:1011800010B50446FFF7F2FF2046182119F039F890
:10119000204610BD10B5084B0360044600F58C7066
:1011A000FFF7BCFF04F12C00FFF7CCFF04F11400A3
:1011B000FFF7DCFF204610BD94BA010808B50248CD
:1011C000FFF7E8FF08BD00BF9C01002010B50446F2
:1011D000FFF7E0FF20464FF4227119F012F8204685
:1011E00010BD00002DE9F34100F026FF054600F098
:1011F00027FF0024014623462846224600940CF08F
:10120000F7FD254B254A264D1A60204601F010FBBC
:1012100024480CF039FD2B78BFF35B8FDB0735D406
:10122000284618F0F0FF88B31F4C204B236004F5CC
:10123000987604F1140004F12C0804F58C776060B2
:10124000C4F80880E760266107F022FD184B63614F
:10125000404607F01DFD174BE362384607F018FDC6
:10126000154BC4F8183104F5967001F04BFB22467B
:1012700004F59671304601F03BFB304601F044F82E
:101280000E4819F00BF8284618F0C9FF0C4802B0B8
:10129000BDE8F041FFF71CBB40A500204412002030
:1012A000980100201C0000209C01002094BA010835
:1012B000F8B901082CBA010860BA0108BD1100088C
:1012C000C81100200148FFF71DBB00BFC811002056
:1012D00070B5234E234C244D244B23603046FFF73A
:1012E000B5FD28460FF030FF214B2248DC6000227C
:1012F0004FF48071C3E912121F491A86C3E919120B
:101300004FF080715967012183F878101B491A66E4
:101310000B604FF450710180194883F86C200180F4
:1013200018481A674FF4F071C3E90422C3E9062292
:10133000C3E90822C3E90A22C3E90E22C3E9102245
:10134000C3E91422C3E91622C3E9016501800E48EE
:1013500083F8342001800D490A700D4A1A6070BD6F
:10136000280400202404002048120020ECB40108C6
:10137000C8110020D8A4002001000001E4A400202E
:10138000DEA40020DAA40020E0A40020DCA40020D9
:1013900078B601080148FFF735BD00BF28040020DA
:1013A000024B902283F85A23704700BF00E100E00F
:1013B000024B4FF080629A60704700BF00E100E08E
:1013C0007047704770B5044607F08FFF23685D6E65
:1013D0000AF018F901462046A8472368D3F8885038
:1013E00000232046AC461A46BDE870404FF040410D
:1013F000604707F02BBF08F084B80000044B4FF0A3
:101400008062C3F88820BFF34F8FBFF36F8F7047A0
:1014100000E100E00149002006F05CBFA10C0008DB
:1014200008B5642005F00FFBFBE7000001484021F0
:1014300003F099BA0018024030B595B0102200218F
:1014400009A818F099FF1422002102A818F094FFAF
:1014500000241F4B00941A6C42F080521A641B6CDB
:1014600003F080530093009B1A4B01941A6842F4D6
:1014700040421A601B6803F4404301930122019B20
:101480004FF48033CDE9072302254FF48003082170
:10149000CDE90D534FF4B473CDE90F1304200623A7
:1014A000CDE9120307A8119504F006FE04F05AF8DE
:1014B0000F23CDE9023504944FF480534FF4A05428
:1014C000052102A8CDE9054304F0CAFB15B030BDE3
:1014D00000380240007000402DE98048BBB002F0A7
:1014E00027FAFFF7A9FF142200212DA8002418F0E5
:1014F00043FFC84B03941A6BC74842F010021A63AB
:101500001A6B02F010020392039A04941A6B42F0D1
:1015100002021A631A6B02F002020492049A059402
:101520001A6B42F040021A631A6B02F040020592F5
:10153000059A06941A6B42F008021A631A6B02F0BD
:1015400008020692069A07941A6B42F480721A6394
:101550001A6B02F480720792079A08941A6B42F091
:1015600020021A631A6B02F020020892089A09946A
:101570001A6B42F480621A631A6B02F48062099259
:10158000099A0A941A6B42F080021A631A6B02F0ED
:1015900080020A920A9A0B941A6B42F004021A63B0
:1015A0001A6B02F004020B920B9A0C941A6B42F025
:1015B00001021A631A6B02F001020C920C9A0D944C
:1015C0001A6B42F400721A631B6B03F40073224619
:1015D0004FF482510D930D9B03F0C0F98F48012207
:1015E000082103F0BBF98E482246462103F0B6F9E4
:1015F00022468C488021012603F0B0F94FF0030801
:101600004FF480538448CDF8C0802DA9CDE92D3604
:1016100011252F9403F014F8082280482DA9CDE954
:101620002D25CDE92F4403F00BF840237A482DA94E
:10163000CDE92D36CDE92F4403F002F84622784853
:101640002DA98027CDE92D26CDE92F4802F0F8FFFE
:101650002DA97448CDE92D75CDE92F4802F0F0FF92
:101660007148724D724A026002F008FA714AC5E987
:101670000A44C5E90C442846C5E90024C5E90244EA
:1016800002F010FB3146284602F0C4FB39462246E0
:101690006448694D03F062F9142002F075F9394687
:1016A0003246604803F05AF90A2002F06DF924220C
:1016B000214617A8109418F05FFE1822214611A8A1
:1016C00018F05AFE342221462DA818F055FE2C227F
:1016D00021460DEB070018F04FFE0227574A7D21E7
:1016E0004FF00409CDE90E1728460EA9C5E90024DC
:1016F000C5E9029602F056FC17A92846CDE9176401
:10170000CDE91944CDE91B44CDE91D441F9402F0F5
:1017100075FE1C2321210F22CDE911311921CDE9BC
:101720001321284611A9CDE9154402F02AFE4946A5
:10173000284602F015FE42F21071284602F069FFB9
:101740002146284602F0CBFB4FF480704FF4007125
:10175000CDE92D014FF4806A4FF40061CDE92FA14E
:101760004FF480534FF40051CDE931314FF48043B1
:101770004FF480314FF4003CCDE933314FF48021F8
:101780004FF4002ECDE935C14FF08071CDE937E13E
:1017900028462DA94FF0C80B399702F0ADFD102354
:1017A00020A92846CDE922B3CDE92044CDE924493A
:1017B000CDE92674CDE928442A9602F02BFD214676
:1017C000284602F016FD1E481E490462C0E90014B6
:1017D000402320214FF48052C0E904134FF4C0711C
:1017E0004FF48043C0E90923C0E9061407232DA95B
:1017F000CDE93038CDE92E39C0E90249CDE932775B
:101800002D9704F013FE01F0C1FF01F071FF3422A7
:10181000214619E00038024000180240002802402A
:1018200000000240001C0240C8120020D01200201C
:101830000030024000B0024010130020006C014054
:1018400074140020400100A020A818F095FDDFF8D6
:101850007C81534BA8F83440C8E90034CA214FF4C6
:10186000F173C8E90913CB2040F2E313C8E90B0375
:101870004046C8E90244C8E90446C8E90667C8F812
:10188000207088F8364003F037FDFF224FF0050C3A
:10189000CDE925244FF04042CDE928C24FF4F07342
:1018A00020A922464046CDE92337CDE92AB3CDE928
:1018B000204B2294CDF89CA0ADF8B0408DF8B240FA
:1018C00003F0E6FDD8F80020936923F0010393614B
:1018D000284602F0F9FD3146384601F0CDF82823BC
:1018E000152221462846009402F021FE2DA9284603
:1018F000CDE92D44CDE92F44CDE93144CDE9334440
:10190000CDE93544379402F0F7FC4FF44871224694
:10191000404603F0EBFDD8F8002022489369224DA1
:10192000DFF8AC80866033439361204B4FF0100E9C
:10193000C0E900361B23C0E903E3C0E905A4C0E900
:10194000074403F01DFF01F099FD01F0CDFC01F00B
:1019500043FC174B2C62C5E9008328464FF48043B3
:10196000C5E90434C5E90244C5E9064403F0E0F9D9
:10197000284603F085FAFEF73EFE04F0EFFF0D4A1D
:101980000D48214605F016F80C4B0D4A186021460B
:101990000C4805F00FF80C4B186004F0F1FFFEE75F
:1019A00000680140281400202C130020001000A023
:1019B000801A0600E0BA010821140008C4120020B1
:1019C000BCBA0108FB050008C012002080130020EB
:1019D000005400400268034B9A4201D101F0C2BF9B
:1019E000704700BF001000407047000082B00E4BEF
:1019F00000220092596C41F480415964596C01F401
:101A00008041009100990192196C41F08051196454
:101A10001B6C03F080530193019B0F216FF00100B9
:101A200002B001F0D7BF00BF003802400268094B86
:101A30009A4282B00BD100230193074B1A6B42F4F8
:101A400080521A631B6B03F480530193019B02B015
:101A5000704700BF003002400038024007B50F4B0E
:101A600002689A4216D10022A3F5F0430192196B45
:101A700041F4000119631B6B03F40003019305217A
:101A80005A20019B01F0A6FF5A2003B05DF804EB39
:101A900001F0D2BF03B05DF804FB00BF00B002400C
:101AA00010B5044688B01422002103A818F064FC85
:101AB0002268174B9A4228D103F54C430024019425
:101AC0005A6C144842F000625A645A6C02F0006288
:101AD0000192019A02941A6B42F400721A631B6B12
:101AE00003F4007302930422029B0223CDE9032333
:101AF00003A90D23079302F0A3FD5C2022460521D4
:101B000001F068FF5C2001F097FF08B010BD00BF36
:101B1000006C01400024024030B5044689B0142214
:101B2000002103A818F028FC22681A4B9A422FD1F2
:101B3000194C1A4800250195236B43F002032363D7
:101B4000236B03F002030193019B4FF440721223B5
:101B5000CDE9032301210323CDE90513042303A9C0
:101B6000079302F06DFD0295236C43F40013236488
:101B7000236C03F400130293029B236A43F40013C3
:101B80002362236A23F400132362642001F0FCFE25
:101B900009B030BD0054004000380240000402404B
:101BA00008B502680A4B9A4210D10A4A0A48136CD7
:101BB00023F4001313644FF4807102F027FEBDE894
:101BC000084005484FF4007102F020BE08BD00BF78
:101BD00000540040003802400004024010B50446A2
:101BE00090B03C22002101A818F0C6FB2268124BDD
:101BF0009A421FD1082301934FF4B473059301A8AF
:101C00000623089304F0F6F808B1FFF7EDFE0B4B3E
:101C100000220092596C41F0806159645B6C03F0C2
:101C20008063009358200521009B01F0D3FE5820CB
:101C300001F002FF10B010BD006801400038024002
:101C4000F0B5044689B01422002103A818F094FBD3
:101C50002268244B9A4242D1234B2448002400940A
:101C60009A6B42F002029A639A6B02F002020092AF
:101C7000009A01941A6B42F002021A631A6B02F086
:101C800002020192019A02941A6B42F020021A6336
:101C90001B6B03F02003029302260325029B0A27F5
:101CA000402303A9CDE90336CDE9065702F0C8FC6D
:101CB0004FF49863CDE903360D48092303A9079330
:101CC000CDE9054502F0BCFC4FF440730848079786
:101CD00003A9CDE90336CDE9054502F0B1FC09B011
:101CE000F0BD00BF001000A0003802400004024018
:101CF0000014024008B50268094B9A420FD1094A04
:101D00000948936B23F002039363402102F07EFDA8
:101D1000BDE8084005484FF4F86102F077BD08BD02
:101D2000001000A0003802400004024000140240ED
:101D3000F0B587B000230393304B1C68002C5AD1B8
:101D400001221A602E4B00949A6B2E4842F0010239
:101D50009A639B6B03F001030093022703260C2573
:101D6000009B01A94FF68373CDE90137CDE90465E6
:101D700002F066FC48F233132348059501A9CDE92A
:101D80000137CDE9034602F05BFC4CF203731F48B8
:101D9000059501A9CDE90137CDE9034602F050FCD4
:101DA00040F2FF631A48059501A9CDE90137CDE955
:101DB000034602F045FC4FF63F031648059501A97E
:101DC000CDE90137CDE9034602F03AFC4FF47F43F9
:101DD0001148059501A9CDE90137CDE9034602F087
:101DE0002FFC0D230D48059501A9CDE90137CDE95B
:101DF000034602F025FC07B0F0BD00BFAC14002084
:101E0000003802400010024000180240000C02405E
:101E10000020024000140240001C02400008024062
:101E200008B5174B1A6852BB01221A60154A1648AA
:101E3000936B23F0010393634FF6837102F0E6FC8A
:101E4000124848F2331102F0E1FC11484CF20371E0
:101E500002F0DCFC0F4840F2FF6102F0D7FC0E48B4
:101E60004FF63F0102F0D2FC0C484FF47F4102F0E4
:101E7000CDFCBDE808400A480D2102F0C7BC08BDF2
:101E8000A814002000380240001002400018024050
:101E9000000C02400020024000140240001C0240DE
:101EA0000008024030B5014689B00022362001F01A
:101EB00091FD362001F0C0FD0025154B02951A6CEE
:101EC000144C42F010021A641B6C03F010030293CE
:101ED00001A903A8029B03F06FFF03F05DFF0E4B07
:101EE000236040F2E733E36040000C4BB0FBF3F0BB
:101EF0000138606020462561A56004F043FC20B9EC
:101F0000204604F0F9FA09B030BD0120FBE700BF1C
:101F100000380240B01400200010004040420F0082
:101F20007047FEE7FEE7FEE7FEE77047014804F072
:101F300021BB00BFB0140020014803F04CBA00BF21
:101F400080130020014801F0DBBE00BFD01200204A
:101F5000014802F0DCB800BF1013002001207047D8
:101F600008B518F0AFF9162303604FF0FF3008BD35
:101F700008B518F0A7F916230360FEE770B50D4603
:101F800014460E46731B9C4201DC204670BDAFF325
:101F9000008006F8010BF5E770B50D4614460E46B5
:101FA000731B9C4201DC204670BD16F8010BAFF399
:101FB0000080F5E74FF0FF3070474FF400534B605F
:101FC0000020704701207047002070470A4A1168BE
:101FD00008B5034609B90949116010686946034408
:101FE0008B4206D918F06EF90C2303604FF0FF30D6
:101FF00008BD1360FCE700BFF814002088A700208C
:10200000704710B50421044618F0FBF8204610BDB7
:10201000012908B506D0022908D059B900F042FCC0
:10202000006808BD00F03EFC4068FAE700F03AFCAA
:102030008068F6E70020F4E70048704718BB010805
:102040000320704713B5002451B1036801948DF843
:10205000034001AA9C680DF10303A04702B010BD24
:102060000846FBE740897047808970478088704741
:1020700083798088184480B27047C07900F07F006F
:102080007047C079C00970477047704700F5967374
:102090000868496803C370477047704741607047DC
:1020A00070470000064BC0F848310023C0F84C319F
:1020B00000F5A073C0F84401C0F83C31704700BF80
:1020C000652100080123037270477047704710B400
:1020D000C26841685410034601EB6200D20748BF52
:1020E0000A599B685DF8044B48BFD35818474368AA
:1020F0002BB183682BB9C06800F001007047184607
:1021000070470120704710B50C21044618F079F88B
:10211000204610BD10B51021044618F072F8204674
:1021200010BD10B54FF4AC71044618F06AF82046A3
:1021300010BD08B509F066FABDE8084009F02ABEEE
:1021400010B50446D0F83C0158B10368DB689847E5
:1021500038B1D4F83C0103689B6898470023C4F861
:102160003C3110BD2DE9F14FD0E9545A0746A8681B
:1021700003681B6A9847E32805D8454B454AA321C5
:10218000454818F06DF8686803681B6A98470F287F
:1021900003D8424B3F4AA421F2E7E86803681B6A70
:1021A00098470B2803D83E4B3A4AA521E8E7DFF8C9
:1021B000F89009F027FA09F02BFAD9F8000010B1CD
:1021C0000368DB689847D9F8000010B103681B6802
:1021D0009847DFF8D880D8F8000010B103685B6931
:1021E0009847D7F8380110B103685B689847D8F86A
:1021F000000010B103681B689847D7F8380110B188
:1022000003689B689847E868036800215B6A984701
:102210004FF0000B234B03600446C0F804B080F875
:1022200008B0A868036859465B6A9847064600F0FC
:1022300097FB6868036859465B6A984731460546CC
:1022400000F072FBC9F80040C7F83851C8F80060C8
:10225000E5B12B1DCAF800303368C5F808A0304638
:10226000DB68F56398472B6828461B68984721462A
:1022700030460AF0A1FD236820461B699847236871
:102280005B69204601B0BDE8F04F18472B46E1E7F7
:1022900054BB0108E2BB0108E6BC01082DBD0108E2
:1022A000D0BD0108E0BE010824A5002020A5002023
:1022B00070B504460D46164609F0C4F90E4B0021D0
:1022C000C4E954650D4D1C60C4E952110C4B2360E8
:1022D00028680C4BC4E950310368C4E94E119B686F
:1022E00098472B6893F876200AB1D86C00B99868A3
:1022F00010F075FD204670BD30A50020E4A400203C
:1023000094BE01087CBE0108064BC0F8483100238A
:10231000C0F84C3100F5A073C0F84401C0F83C315E
:10232000704700BF65210008006A7047406A704727
:1023300070478B8880690A68DB0A50F823001044D4
:10234000704710B5C2B1137BB3B1547BD27A24026B
:1023500004F4E0641443C26998B202EB8402138867
:102360008B4202D192F9020010BD05D8013880B22B
:1023700004320028F3D1F7E70020F5E710B5282153
:10238000044617F03EFF204610BD000030B589B06E
:102390000446BDF850500695BDF84C5005959DF883
:1023A000405004959DF83C5003959DF83850029597
:1023B0009DF8345001959DF8305000950AF05CF975
:1023C000064B2360119BA361129BE361159B236263
:1023D000169B6362204609B030BD00BF04BF0108F0
:1023E0000020704781807047C1807047018170472D
:1023F000418170477047704770477047704710B40D
:10240000C4880368121B84885B6D091B12B25DF8D7
:10241000044B09B218474FF6FF7383814FF0FF3327
:1024200003621368C361106070477047704770475C
:102430007047704790F825201AB190F8242002B117
:1024400018607047704770477047704730B4C26873
:1024500044685510034604EB6200D20748BF625936
:102460009B6830BC48BFD358184743682BB183687A
:102470002BB9C06800F00100704718467047012072
:10248000704710B51021044617F0BBFE204610BD62
:1024900010B5E421044617F0B4FE204610BD90F8B4
:1024A000252012B103685B691847704700F1980254
:1024B0008A4202D10368DB6A1847704770B5036827
:1024C00004461B6B154698472368294620465B6BDC
:1024D000BDE87040184770B504461D46BDF9106050
:1024E000FFF7ECFF2368294620469B6B984723683B
:1024F00031462046DB6BBDE870401847094A026050
:102500004FF4807100228184FF21C0E90122C0E9DB
:102510000322C0E90522C0E9072280F82610826262
:10252000704700BF34CF01082DE9F043044689B05D
:1025300026460AF095FA0025304BE56346F8403B05
:1025400004F16C083046FFF7D9FF04F198074046C4
:10255000FFF7D4FF384607F07BFF294BC4E9353439
:10256000284B4FF4F079C4E937352A4629463046DE
:10257000CDF800904FF44873FFF7ADFF4FF07F4365
:10258000A3662A4629464046CDF800904FF448738A
:10259000FFF7A1FF4FF0FF33C4F894303846D22242
:1025A0004FF4B971FFF78AFF0123ADF8143002230D
:1025B000ADF81830ADF81C3007AB05AA009304A99C
:1025C00006AB3846ADF8105007F08EFE0E4BC4F83F
:1025D000D03004F1D403C4F8C030201D314603903C
:1025E00006F0DAFB0398414606F0D6FB039839461D
:1025F00006F0D2FB204609B0BDE8F08374BF0108A5
:102600005CBF0108AD24000814000F0070470000F3
:1026100030B5154D2C78BFF35B8F14F001048DB0ED
:102620001ED1284617F0EFFDD0B13F2307930F4B83
:1026300006930F4B0F49104808940122CDE904433B
:102640000423CDE90132CDE909440A23039400941F
:10265000FFF79CFE094817F021FE284617F0DFFD22
:1026600005480DB030BD00BFFC140020B0E80108E3
:10267000BCE80108D07B0090001500200D26000862
:102680007047000030B5154D2C78BFF35B8F14F008
:1026900001048DB01ED1284617F0B5FDD0B13F23FF
:1026A00007930F4B06930F4B0F49104808940122D4
:1026B000CDE904430423CDE90132CDE909441423D3
:1026C00003940094FFF762FE094817F0E7FD2846DF
:1026D00017F0A5FD05480DB030BD00BF281500203E
:1026E000B4E80108C0E80108E07B00902C15002048
:1026F000812600087047000030B5154D2C78BFF3D7
:102700005B8F14F001048DB01ED1284617F07BFDBD
:10271000D0B13F2307930F4B06930F4B0F4910483F
:1027200008940122CDE904430423CDE90132CDE927
:102730000944282303940094FFF728FE094817F062
:10274000ADFD284617F06BFD05480DB030BD00BF4C
:1027500054150020B8E80108C4E80108F07B009097
:1027600058150020F526000800207047002070470B
:102770000EB403B503AB002153F8042B019309F009
:10278000ADFD02B05DF804EB03B070470CB407B5C3
:1027900004AB53F8042B019309F0A0FD03B05DF8DE
:1027A00004EB02B070470000436C10B5044673B3ED
:1027B000038F2BB9184B194AC021194817F050FD47
:1027C000C38E00EB43035B8C0BB30BF009F8238F34
:1027D000012B03D8134B144AC521EEE7E28E531C9C
:1027E0009BB2092B194688BFA3F10A0104EB4101F2
:1027F00040F63F10498C814209D10A2B04EB42027A
:1028000028BF002304EB4303508C58845184204696
:10281000BDE810400AF0C8BEA4BF0108ADBF010862
:1028200058C00108A2C00108B0C001080AF074BE77
:1028300038B510BB114B12481B681249B3B11A6866
:102840009C681A4402605A681A440A601C440E4B81
:1028500000221A8000F026F8054600F021F80B4B04
:102860001C600B4B1D600B4B188006E00B600A4B85
:102870000A4A1C680260002CE9D138BD801500208E
:1028800084150020881500208C15002034A5002018
:102890003CA5002038A50020087C0090007C00901A
:1028A00001207047004870479015002010B5FFF7D1
:1028B000E9FE044C2060FFF71FFF6060FFF7A8FEF1
:1028C000A06010BD90150020704710B54FF4AC719A
:1028D000044617F096FC204610BD10B50446D0F80B
:1028E000540100F012F82046BDE8104008F00ABD7F
:1028F00010B50446FFF7DCFC014B2360204610BDF9
:102900008CC101080022026070477047704704388C
:102910007047704710B51021044617F072FC20462E
:1029200010BDA0F10400F5E710B500228260044A52
:10293000C16002F1080420320460426010BD00BF93
:10294000D0C1010870477047FFF77EBDFEF76EBD2E
:1029500010B5E421044617F054FC204610BD0000D9
:1029600010B50446FFF7E0FD014B2360204610BD83
:1029700000C2010870470020704710B5044600F0FF
:1029800075FBA821E0B200F08DFB80B210BD000005
:1029900013B500240221C0B28DF8074000F082FB7D
:1029A0008DF807009DF8073003F00F038DF807300E
:1029B0009DF80730022B88BF8DF80740044B9DF827
:1029C00007209DF807005A7000229A7002B010BDCF
:1029D0009E15002073B5154C1546A37862789A426F
:1029E0000E461FD903B3012B14BF00210921042374
:1029F0000DEB0302C0B200F073FB9DF804309DF8AC
:102A000005201B0203F47063134333809DF80630E6
:102A10009DF807201B0203F4706313432B80A378F7
:102A20000133A37002B070BD0321E0E79E150020C2
:102A30000122A421C0B200F01BBB0022A421C0B21D
:102A400000F016BBFFF7F9BF7047000010B4094B48
:102A50001A7890420AD05978884207D00AB129B929
:102A6000012298545DF8044B00F000BB5DF8044B64
:102A7000704700BF9C15002038B504460D46002065
:102A8000C949FEF709F8C9490320FEF705F8C84906
:102A90000020FEF701F8C7490220FDF7FDFFC449F9
:102AA0000020FDF7F9FFC4490020FDF7F5FF0A20DB
:102AB00000F02EFBC1490020FDF7EEFFC0490020C9
:102AC000FDF7EAFF0A2000F023FBBE490020FDF7D6
:102AD000E3FFBD490020FDF7DFFFBC490020FDF703
:102AE000DBFFBB490020FDF7D7FFBA490020FDF707
:102AF000D3FFB9490020FDF7CFFFAB490020FDF718
:102B0000CBFFB6490020FDF7C7FFB5490020FDF710
:102B1000C3FFB4490020FDF7BFFFB3490020FDF714
:102B2000BBFFB2490020FDF7B7FFB1490020FDF718
:102B3000B3FFB0490020FDF7AFFFAF490020FDF71C
:102B4000ABFFA3490020FDF7A7FF97490020FDF741
:102B5000A3FFAA490220FDF79FFFA9490020FDF726
:102B60009BFFA8490020FDF797FFA7490020FDF72C
:102B700093FFA6490020FDF78FFFA5490020FDF730
:102B80008BFFA4490020FDF787FF95490020FDF742
:102B900083FFA1490020FDF77FFF93490020FDF747
:102BA0007BFF9E490020FDF777FF9D490020FDF740
:102BB00073FF9C490220FDF76FFF7D490020FDF760
:102BC0006BFF99490620FDF767FF98490020FDF744
:102BD00063FF97490E20FDF75FFF96490020FDF740
:102BE0005BFF95490E20FDF757FF94490020FDF744
:102BF00053FF93490A20FDF74FFF92490020FDF74C
:102C00004BFF91490020FDF747FF69490020FDF780
:102C100043FF8E490A20FDF73FFF8D490020FDF755
:102C20003BFF8C490F20FDF737FF80490020FDF75F
:102C300033FF89490F20FDF72FFF7E490020FDF764
:102C40002BFF86490A20FDF727FF7C490020FDF76E
:102C500023FF83490F20FDF71FFF7A490020FDF76E
:102C60001BFF80490F20FDF717FF7F490020FDF76C
:102C700013FF7E490A20FDF70FFF7D490020FDF775
:102C80000BFF7C490A20FDF707FF49490020FDF7AB
:102C900003FF79490A20FDF7FFFE6D490020FDF78B
:102CA000FBFE76490F20FDF7F7FE60490020FDF797
:102CB000F3FE73490F20FDF7EFFE5E490020FDF79C
:102CC000EBFE70490A20FDF7E7FE5C490020FDF7A6
:102CD000E3FE6D490F20FDF7DFFE5A490020FDF7A6
:102CE000DBFE6A490F20FDF7D7FE3D490020FDF7C6
:102CF000D3FE67490020FDF7CFFE66490020FDF7AF
:102D0000CBFE65490020FDF7C7FE64490020FDF7B2
:102D1000C3FE63490020FDF7BFFE23490020FDF7F5
:102D2000BBFE60490320FDF7B7FE1F490020FDF7F9
:102D3000B3FE1D490020FDF7AFFE5B491020FDF7F3
:102D4000ABFE19490020FDF7A7FE58491020FDF7FA
:102D5000A3FE00205649FDF79FFE782000F0D8F929
:102D6000002C00F0C780022C03D152490020FDF74F
:102D700093FE012D0BD150490020FDF78DFE4F49E8
:102D80000420FDF789FE4E490420FDF785FE4D49DC
:102D90000020FDF781FE4C490020FDF77DFE4B49E8
:102DA0000020FDF779FE93E030C2010896C20108C9
:102DB00046C201081CC301085CC2010872C20108B6
:102DC00088C201088EC2010890C2010892C201089F
:102DD00094C2010832C2010834C2010836C2010897
:102DE00038C201083AC201083CC201083EC20108CB
:102DF00040C2010842C2010844C201089AC3010846
:102E000048C201084AC201084CC201084EC201086A
:102E100050C2010852C2010854C2010856C201083A
:102E200058C201089DC30108A0C301085AC2010885
:102E3000A7C301085EC20108B6C3010860C2010849
:102E40009AC2010862C2010880C20108A5C2010835
:102E500064C20108B0C20108C0C20108D0C20108A2
:102E6000DBC20108EBC2010866C20108FBC201080F
:102E700068C2010806C3010811C301081FC3010885
:102E80002FC301083FC301084AC301085AC3010800
:102E900082C2010884C2010886C201088AC20108F0
:102EA0008CC201086AC3010878C3010889C30108FC
:102EB0006AC201086CC2010870C201086EC3010831
:102EC00073C3010874C2010876C2010878C2010800
:102ED0000A490020FDF7E0FD09490020FDF7DCFD6F
:102EE00008490020FDF7D8FD07490020FDF7D4FD73
:102EF000002038BD0549204639E700BF7AC20108E5
:102F00007CC2010830C201087EC201086EC20108FD
:102F100070B52F4D88B0284602F064F904460028A9
:102F200054D12C4A2C4B2D4E0190C5E900234FF46F
:102F30008043C5E90200C5E90430C5E906002862FE
:102F4000336B43F002033363336B059003F00203EA
:102F50000193019B4FF480711223CDE903130220EA
:102F60000423CDE9060303A91D4801F069FB4FF4D2
:102F7000007303A91A48039301F062FB0294336CB7
:102F800043F400133364336C03F400130293029B85
:102F9000336A43F400133362336A23F40013336259
:102FA000224605211F2000F015FD1F2000F044FDE2
:102FB00022460521202000F00DFD202000F03CFDE0
:102FC000284608B0BDE8704001F0B2BE08B070BD40
:102FD000A415002000540040801A0600003802406A
:102FE0000004024010B586B0194B002400941A6BFF
:102FF00042F001021A631B6B03F001030093009B74
:1030000069B90123CDE9013102230493114B0391E6
:1030100053F8200001A901F013FB06B010BD0129EF
:10302000FBD1022304934FF488130293094B0191BF
:1030300053F82000039401A901F002FB22460F215E
:10304000062000F0C7FC062000F0F6FCE5E700BF14
:10305000003802404800002008B5034B012153F816
:10306000200001F075FC08BD48000020FFF750BFAC
:103070007FB501238DF817206422CDE901320DF1CF
:10308000170200920A460146054801F013FF20B1DD
:10309000034801F0F5FEFFF73BFF07B05DF804FBC6
:1030A000A41500207FB500230A468DF817304FF491
:1030B0007A710123CDE901310DF11701009101462B
:1030C000064801F087FF20B1044801F0D9FEFFF760
:1030D0001FFF9DF8170007B05DF804FBA415002042
:1030E0001FB54FF47A74CDE90134009201230A46EA
:1030F0000146064801F06EFF044620B1034801F086
:10310000BFFEFFF705FFA0B204B010BDA41500205C
:1031100000F03ABC00B595B04FF480720C924FF0BD
:103120008071052206920F9100220121CDE9031240
:10313000CDE90D22CDE911220B92139200921022BB
:1031400002924FF4800203460191059206A96A4655
:10315000044802F0C0FB003818BF012015B05DF82C
:1031600004FB00BFF815002000B595B04FF4807344
:103170000C93062306931748002341F2883206A9D0
:10318000CDE90D33CDE911330F930B93139302F077
:103190005EFBE0B90223CDE9003301221023CDE923
:1031A00002324FF480010523CDE905134FF08073FF
:1031B00004900F93074841F288336A4606A902F04B
:1031C0008AFB003818BF012015B05DF804FB012010
:1031D000FAE700BFF815002000B591B04FF48073F6
:1031E0000893EB2302934FF4406309934FF4005389
:1031F00005934FF040720023CDE90A320A2207926C
:1032000002A96A4606480F93CDE90D33019302F0F7
:10321000B2FB003818BF012011B05DF804FB00BFFD
:10322000F815002070B588B02C4B2D480024009470
:103230009A6B42F002029A639A6B02F002020092C9
:10324000009A9A6942F002029A619A6922F0020297
:103250009A6101941A6B42F002021A631A6B02F02F
:1032600002020192019A02941A6B42F020021A6340
:103270001B6B03F0200302934022029B0223CDE943
:10328000032301210323CDE905130A2603A90925F8
:10329000079601F0D5F94FF4806303A91148039311
:1032A0000594079501F0CCF94FF4407303A90D483C
:1032B0000393079601F0C4F9C02303A909480393B7
:1032C000079501F0BDF922460F215B2000F082FB3B
:1032D0005B2000F0B1FB08B070BD00BF00380240B9
:1032E0000004024000140240F0B5484C484B2360F3
:1032F00091B0204602F098FA054610B1012011B0B5
:10330000F0BD01462046FFF78DFF01261023C4E9DA
:103310000166E3604FF0807797FAA7F3B3FA83F37F
:10332000013B236120464FF48063C4E90535C4E9BD
:10333000075502F025FA0028E0D1CDE90900CDE9D2
:103340000D004FF4807566230B9007900F9041F2AB
:10335000883202A920460895029302F078FA08B153
:103360000420CCE7992341F2883202A92046029337
:1033700002F06DFA0028F3D141F28830FFF7CAFE5F
:103380000028EDD1CDE90900CDE90C60CDE90E00B2
:103390008523079041F2883202A9204608950293BE
:1033A0000B9702F054FA0028DAD141F288320DF17D
:1033B0000701204602F0C4FB0028D1D1FFF7D4FE5C
:1033C0000028CDD181230293F02292FAA2F29DF837
:1033D00007300A21B2FA82F201FA02F203F00F0377
:1033E000134302A941F2883220468DF8073002F0DB
:1033F0002EFA0028B4D141F288320DF1070120469F
:1034000002F042FB00283FF47AAFA9E7F81500204C
:10341000001000A008B55B2000F01CFB1448402100
:1034200001F0F4F913484FF4806101F0EFF911480D
:103430004FF4807101F0EAF90E484FF4007101F089
:10344000E5F90C48802101F0E1F90A48402101F03A
:10345000DDF9094B9A6942F002029A619A6922F0F9
:1034600002029A619A6B22F002029A6308BD00BFC1
:1034700000040240001402400038024038B5084DF4
:10348000084B2B60284602F0CFF9044628B90146C4
:103490002846FFF7BFFF204638BD0124FBE700BFE9
:1034A000F8150020001000A02DE9F743214C224D13
:1034B00001264FF000081027214681464FF6FF7283
:1034C0002846C4E90067C4E90268CDF8048002F028
:1034D000DBFF304600F058FA022321464FF6FF7218
:1034E0002846C4E90037C4E9026802F0CDFF03238F
:1034F000C4E90037214608234FF6FF722846C4E985
:10350000023802F0C1FF4FF40C7301930423C4E9A5
:1035100000372146019BA6604FF6FF722846E36004
:1035200002F0B2FF4946284603B0BDE8F04302F07E
:10353000C9BF00BF441600203017002070B50646F2
:103540008EB0002800F0BD805F4B6048604C0025C5
:1035500000959A6B42F001029A639A6B02F00102A5
:103560000092009A01951A6B42F480021A631A6B5A
:1035700002F480020192019A02951A6B42F0040251
:103580001A631A6B02F004020292029A03951A6BF4
:1035900042F008021A631A6B02F008020392039ABF
:1035A00004951A6B42F010021A631A6B02F01002B3
:1035B0000492049A05951A6B42F020021A631A6B62
:1035C00002F020020592059A06951A6B42F040021D
:1035D0001A631A6B02F040020692069A07951A6B5C
:1035E00042F080021A631A6B02F080020792079A77
:1035F00008951A6B42F480721A631B6B03F4807394
:1036000008930222089B0C920123CDE90A2309A901
:103610000C220D92099301F013F84CF203732D481C
:10362000099309A901F00CF84FF683732A4809930E
:1036300009A901F005F84FF63F032848099309A9A5
:1036400000F0FEFF48F233132548099309A900F062
:10365000F7FF4FF60C732348099309A900F0F0FF18
:1036600040F2FF632048099309A900F0E9FF802296
:103670004FF40073C4E902234FF480614FF4805388
:10368000C4E904134FF48043C4E906354FF4003312
:10369000C4E908350323C4E90A352563134B3463B1
:1036A000204623606560A66300F08EFA204600F095
:1036B0000BFA38202A46052100F08CF9382000F05A
:1036C000BBF90EB070BD00BF0038024000080240D8
:1036D000D0160020000C02400010024000140240EE
:1036E00000180240001C024000200240106402400A
:1036F00038B5194C194D1A4B2360072102230422B7
:10370000C5E90031C5E90221C5E90433AB61E260D6
:1037100040232022C4E9042300214FF4C073C4E9EC
:1037200006314FF400604FF48053C4E9080320468B
:10373000C4E90111A162FFF701FF2946204602F00A
:1037400075FE084C003818BF0120207040F2695007
:10375000FFF7AAFE207838BD30170020541600204D
:10376000400100A04D00002008B548B1382000F00D
:1037700071F90448044B0360BDE8084000F024BA26
:1037800008BD00BF701600201064024038B5074C19
:10379000074B2360204602F069FE064D014618B92A
:1037A00028702046FFF7E0FF287838BD301700204A
:1037B000400100A04C0000202DE9F041164D174CAF
:1037C0002B68064620780F4698476B685420984728
:1037D000C0B211280AD06B6870209847C0B270231D
:1037E0001128237004D00320BDE8F08154232370F6
:1037F0000B4BDFF830802078C8F80050BE4234BF51
:1038000001260C261E70AB689847D8F80030207847
:10381000DB6898470020E7E72000002064170020BD
:103820007C170020781700202DE9F04FDFF8DCB07E
:10383000334ADBF8003006461B69107885B098479C
:10384000307058B1DFF8C8802E4F06F1020A03AD80
:1038500002A94FF0000933784B4503D8002005B08A
:10386000BDE8F08FDBF8003025485B6900780191F6
:103870002A469847244B01991B7813F0080F1FBF65
:103880000A88288808802A809A0741BF0A88C2F5DA
:10389000477203320A805B0748BF2B88D8F80020A4
:1038A00031F8020B42BFC3F5EF7301332B8093B2A3
:1038B00090428CBFC31A1B1A9BB235F8022B01939E
:1038C0003B689CB29A4288BF141B019B98BFA41A04
:1038D000A4B21C44C446052CC8BFC8F80000DCF8DC
:1038E0000030C8BF3A60BE462AF8023BDEF800301E
:1038F000AAF8023008F10408043709F10109AAE71F
:1039000064170020701700207C1700207817002013
:1039100068170020054BD3F8882042F47002C3F8E2
:1039200088204FF000629A60704700BF00ED00E011
:1039300008B50B4B1A6842F400721A601A6842F418
:1039400080621A601A6842F480721A60032000F0E4
:103950002FF80020FEF7A6FAFEF748F8002008BD71
:10396000003C0240034A044B11681B780B4413606F
:10397000704700BF8017002054000020014B1868DA
:10398000704700BF8017002038B50446FFF7F6FFE8
:10399000631C1CBF054B1B78054618BFE418FFF7D6
:1039A000EDFF431BA342FAD338BD00BF54000020F3
:1039B0000749CA6822F4E0620302120403F4E063D8
:1039C000120C134343F0BF6343F40033CB607047E2
:1039D00000ED00E0164B30B5DC68C4F30224C4F1FE
:1039E0000705231D042D28BF0425062B4FF0FF33A8
:1039F0008CBF033C002403FA05F521EA0501A3402E
:103A000022EA0302A140002841EA0203ACBF00F110
:103A10006040084A4FEA0313B8BF00F00F00DBB262
:103A2000AABF00F56140135480F8003330BD00BFD9
:103A300000ED00E014ED00E0002808DB420901235E
:103A400000F01F0003FA00F0014B43F8220070471A
:103A500000E100E000280DDB4309012200F01F0017
:103A600002FA00F02033044A42F82300BFF34F8FDC
:103A7000BFF36F8F704700BF00E100E010B5044650
:103A800050B1437903F0FF0213B90271FDF7CEFF85
:103A900001236371002010BD0120FCE7036810B50D
:103AA000084C0246D9B210391820B1FBF0F0205C66
:103AB000D06523F47F7020F003005F2988BF0430B5
:103AC000906510BDDDC3010870B50446FFF756FFD1
:103AD0000546002C73D0022384F835302268002379
:103AE00084F83430136823F00103136021680B68F5
:103AF000D8072FD40B68334DA0691D40D4E90123AA
:103B00001343E26813432269134362691343E26972
:103B100003431343226A1343626A042A43EA0503F8
:103B200002BFD4E90B5635432B430B604B69042A83
:103B300023F0070343EA020333D1A26AE56A134381
:103B40007DB390B9012A21D032F0020229D1EA01D5
:103B500027D51EE0FFF712FF401B0528C6D92023FA
:103B60006365032084F8350070BDB0F5005F14D1A3
:103B7000032A16D801A050F822F000BF933B00089A
:103B80004F3B0008933B00088D3B0008B5F1C07F18
:103B900007D1402363650120E4E7022AF9D9032A0B
:103BA000D5D04B612046FFF779FFE26D3F2393406C
:103BB000836000200123606584F83530D4E701205C
:103BC000D2E700BF3F8010F038B5054620B390F82B
:103BD0003530022BDCB21DD003681A6822F00102D6
:103BE00000241A6021221C605C609C60DC601C6107
:103BF0005A61FFF753FFEA6D3F239340C5E90F4435
:103C0000C5E91144C5E9134483606C6585F8344007
:103C100085F83540204638BD0124FBE770B50446E1
:103C2000866DFFF7ABFE94F83530022B054606D0C3
:103C300080236365002384F83430012070BD23683D
:103C40001A6822F016021A605A6922F080025A613C
:103C5000226C0AB9A26C1AB11A6822F008021A6022
:103C60001A6822F001021A6023681B6813F001032E
:103C70000AD1E16D3F228A40B260012284F83520EA
:103C800084F834301846D9E7FFF778FE401B052842
:103C9000EAD9202363650320002384F8350084F8E3
:103CA0003430CBE710B5044630B390F8393003F028
:103CB000FF021BB980F83820FDF7D0FE226861684A
:103CC000022384F83930136823F440330B43136024
:103CD000536BA16823F007030B435363136CE16834
:103CE00023F47F5323F03F030B431364002001238D
:103CF000E06384F8393010BD0120FCE7704770475D
:103D0000036870B55E681D68F207044614D5E905BE
:103D100012D51A6822F480721A60C26B42F0010256
:103D2000C26301229A60042380F83930002380F8AE
:103D30003830436903B19847B20616D5AB0414D5A1
:103D400023681A6822F400521A6020229A60E36BFA
:103D500043F00203E363042384F83930002384F83A
:103D6000383063690BB120469847300716D52905CE
:103D700014D523681A6822F400621A6008229A6037
:103D8000E36B43F00403E363042384F83930002336
:103D900084F8383063690BB12046984772070BD519
:103DA0006B0509D523681A6822F480621A60042220
:103DB0009A602046FFF7A2FFB00714D5A90512D5D7
:103DC00023681A6822F400721A6002229A60E36B78
:103DD000E363012384F83930002384F83830236901
:103DE0000BB120469847F20613D5EB0411D5236892
:103DF0001A6822F480521A6010229A60E36BE3631F
:103E0000012384F83930002384F838302046FFF746
:103E100076FF70BDF0B590F83830012B4FF00203FB
:103E20002BD0012280F8393080F8382000EB0113C4
:103E3000D3E907425D6A184F44EA0242093C012C6B
:103E40009CBF05F07F431A434FEA0116036888BF01
:103E500042EA056299B9596A39400A435A62012C0B
:103E600082699A6103D8426A22F07F429A620123F2
:103E700080F83930002380F838301846F0BDD96911
:103E800039400A43DA618219012C92691A619CBF98
:103E900025F07F451D62EAE7F0FFFC002DE9F041C7
:103EA00007460D4614461E46FFF768FD80463B68F0
:103EB0005A6FD2070AD5069944EA062444EA014417
:103EC00044EA8514DC660020BDE8F081FFF756FD6A
:103ED000A0EB0800B0F57A7FE9D90320F4E7037C72
:103EE000012B5DD003680022C3F8C420C3F8C820AA
:103EF000CA0748BFD3F8C420816142BF6FEA1242AB
:103F00006FEA0242C3F8C4208A0742BFD3F8C42034
:103F100042F4F812C3F8C4204A0742BFD3F8C820BD
:103F200042F00102C3F8C8200A0742BFD3F8C820F4
:103F300042F00202C3F8C820CA0642BFD3F8C82024
:103F400042F00C02C3F8C8208A0642BFD3F8C8204A
:103F500042F01002C3F8C8204A0642BFD3F8C82076
:103F600042F02002C3F8C8200A0642BFD3F8C82096
:103F700042F04002C3F8C820CA0542BFD3F8C820A7
:103F800042F08002C3F8C8208A0542BFD3F8C82097
:103F900042F4F852C3F8C82000230374184670474F
:103FA0000220704773B50D460446002800F0A98032
:103FB000437C0BB9FDF774FD032363740023009366
:103FC0002368D3F8302442F08072C3F83024D3F849
:103FD000303403F080730093009BFFF7CFFC06465C
:103FE0002268D2F80C34D9047AD5D2F8303423F4CC
:103FF0005E3323F4FE73C2F83034D5E90003DB02EC
:1040000043EA8003A868D2F8301443EA00430B4324
:10401000C2F8303400230193D2F8303443F0010366
:10402000C2F83034D2F8303403F001030193012098
:10403000019BFFF7A9FCFFF7A1FC06462368D3F814
:104040000C24D20556D5D3F8A020616842F00602B0
:10405000C3F8A020D3F8942022F00302C3F89420E0
:10406000D3F894200A4342F00102C3F89420D3F815
:10407000A420E16822F00302C3F8A420D3F8A4200E
:104080000A43C3F8A4209A68A16822F0FF029A604C
:104090009A680A439A606A681B49012A38BF01225C
:1040A0004A43A96801F003018A4029684FF4FA5095
:1040B0004143B2FBF1F2D3F8181421F03F01C3F8E9
:1040C0001814D3F8181400200A43C3F81824C3F8AE
:1040D000C400C3F8C80001236061A061637407E0F5
:1040E000FFF74CFC801BB0F57A7F7FF679AF032099
:1040F00002B070BDFFF742FC801BB0F57A7F9DD9FE
:10410000F5E70120F4E700BF00093D0070470368B0
:10411000D3F80C24D10710B5044608D5D3F80824E9
:10412000D20704D50122C3F81024FCF709FD236847
:10413000D3F80C24910709D5D3F80824920705D5A4
:104140000222C3F810242046FCF72EFDA369002BA1
:104150004ED02168D1F8BC20D1F8C430D1F8C000CD
:104160001A40D1F8C83091B2034019B1616941F0E9
:104170000101616112F4F81F1EBF626942F0020280
:104180006261D80742BF626942F004026261990726
:1041900042BF626942F00802626113F00C0F1EBF59
:1041A000626942F010026261DA0642BF626942F05F
:1041B00020026261980642BF626942F04002626179
:1041C000590642BF626942F0800262611A0642BF2C
:1041D000626942F48072626113F4F85F1EBF636922
:1041E00043F400736361636913B12046FFF78EFFE8
:1041F00010BD037C012B0BD003681A6B22F0030265
:104200001A631A6B1143196300230374184670472D
:104210000220704730B5037C012B6AD003680C681C
:104220005A6B42F001025A63D3F8002422F00102D3
:10423000C3F80024D3F8002442F00102C3F800249C
:10424000DA6822F00302DA60DA682243DA605A6937
:1042500022F007025A61D1E906522A434D695C698E
:104260002A4322435A611A694D6822F00F021A61EB
:104270001C692C431C61D3F8004424F00E04C3F8DD
:104280000044D3F800248C6842EA4502C3F80024B5
:104290005A6E120C12045A665A6E22435A66D3F8AA
:1042A000002422F0F002C3F80024D1E903252A43B8
:1042B0004D6AD3F800442A430D6A896A2A4322438F
:1042C000C3F800249A6E22F001029A669A6E0A439D
:1042D0009A66D3F8082442F00102C3F80824D3F800
:1042E000082442F00202C3F808240023037418468D
:1042F00030BD0220FCE7000030B5037C012B2AD042
:104300000268164B946E23409366D1E900352B4327
:104310008D68946E2B43CD682B430D692B434D69FB
:104320002B438D692B43CD692B430D6A2B434D6A7B
:104330002B438D6A2B43CD6A096B2B432343936632
:10434000936E23F002039366936E0B4393660023F0
:104350000374184630BD0220FCE700BFFF80F0FE6A
:10436000037C012B0BD00368DA6A22F01F02DA62A9
:10437000DA6A1143D9620023037418467047022099
:10438000704730B5037C012B35D0D1E90024036898
:10439000944238BF1446D3F8982002F0FC22C3F8A8
:1043A0009820D3F8982042EA04422243C3F8982088
:1043B000D3F89C2002F40042C3F89C20D1E90225E6
:1043C000120642EA05420D69D3F89C4049692A4326
:1043D0002243C3F89C20D3F8A42022F47F42C3F8E0
:1043E000A420D3F8A42042EA0122C3F8A420002389
:1043F0000374184630BD0220FCE7000030B5037C92
:10440000012B5CD003680C689A688D6822F47F42A7
:104410009A609A6842EA04229A609A6F4C6892B253
:104420009A679A6F42EA04429A679C6F254A144041
:104430009C679C6F2C439C67DC6FCD681440DC67E5
:10444000DC6F2C43DC67D3F880400D691440C3F85F
:104450008040D3F880402C43C3F88040D3F8844098
:104460004D691440C3F88440D3F884402C43C3F80A
:104470008440D3F8844024F08074C3F88440D3F897
:1044800084408D692C43C3F88440D3F88840CD69BB
:10449000096A1440C3F88840D3F888402C43C3F815
:1044A0008840D3F88C402240C3F88C20D3F88C206D
:1044B0000A43C3F88C2000230374184630BD022041
:1044C000FCE700BF0000FFFF037C012B82B01CD083
:1044D000026800230093516841F001015160516866
:1044E00001F00101009100990193D2F8041441F008
:1044F0000801C2F80414D2F80424037402F008027C
:104500000192019A184602B070470220FBE7037C33
:10451000012B1FBF0268D2F8043443F00403C2F831
:1045200004341DBF0023037418460220704737B5BA
:10453000057C012D044609D001250574069D0095D2
:10454000FFF7ACFC0023237403B030BD0220FBE76F
:104550002DE9F84F1C46037C012BDDE90A9806463D
:104560000F46154653D001230374FFF707FA83461D
:1045700031684B6F13F0010A1AD0032C20464FF01C
:10458000000228BF032082421ED1A31AC1F87090F6
:1045900042441BBB0134220245EA871592B2240231
:1045A000154304F47F042C43CC661846337409E0A9
:1045B000FFF7E4F9A0EB0B00B0F57A7FD8D986F8C5
:1045C00010A00320BDE8F88F18F8023001324FEA3E
:1045D000C20C03FA0CF349EA0309D4E7042B4FF0A9
:1045E000000C9E46604628BF4FF0040E12F8008073
:1045F0004FEAC009013008FA09F886454CEA080C70
:10460000F4D1C1F870C0A3EB0E037244C1E70220DD
:10461000D8E7037C012B10D00368D3F81C2422F0C8
:10462000C062C3F81C24D3F81C2442EA4161C3F8D9
:104630001C140023037418467047022070470000C2
:104640002DE9F74FDFF8C0916D4A00230D68012472
:104650009C4004EA050CAC4340F0B9804D6805F07D
:1046600003044FEA43080326671E06FA08F6012FE3
:104670006FEA060634D8876807EA060ECF6807FA9D
:1046800008F747EA0E078760476827EA0C0EC5F36C
:1046900000179F4047EA0E074760C76807EA060E03
:1046A0008F6807FA08F747EA0E07022CC76019D18E
:1046B0004FEAD30A00EB8A0A03F0070BDAF82070FE
:1046C0004FEA8B0B4FF00F0E0EFA0BFE27EA0E0E81
:1046D0000F6907FA0BF747EA0E07CAF8207001E0E6
:1046E000032CDAD1076804FA08F43E40264315F497
:1046F000403F06606BD04FF0000ACDF804A0D9F817
:104700004460404C46F48046C9F84460D9F844609F
:1047100006F480460196019E23F0030606F18046CA
:1047200006F59C3603F0030ED6F808804FEA8E0E8D
:104730000F2707FA0EF7A04228EA07074ED004F524
:104740008064A0424CD004F58064A0424AD004F5B5
:104750008064A04248D004F58064A04246D004F5AD
:104760008064A04244D004F58064A04242D004F5A5
:104770008064A04240D004F58064A0423ED004F59D
:104780008064A0420CBF09240A2404FA0EF43C43BE
:10479000B46094686FEA0C06EF0254BF34404CEAF0
:1047A00004049460D468AF0254BF34404CEA04045B
:1047B000D4605468AF0354BF34404CEA04045460DE
:1047C0001468ED0354BF34404CEA04041460013310
:1047D000102B7FF43BAF03B0BDE8F08F5446D4E715
:1047E0000124D2E70224D0E70324CEE70424CCE757
:1047F0000524CAE70624C8E70724C6E70824C4E757
:10480000003C014000000240003802402DE9F04F1A
:104810004A4CDFF83091DFF830A1DFF830B10022E8
:10482000012303FA02FE3EEA01030EEA01076ED1FC
:1048300022F0030505F1804505F59C35404BD5F880
:10484000088002F0030C4FEA8C0C0F2606FA0CF6D7
:10485000984206EA08085FD003F5806398425DD06D
:1048600003F5806398425BD003F58063984259D08A
:1048700003F58063984257D0484557D0504557D0EC
:10488000584557D003F58053984255D003F58063BF
:1048900098420CBF09230A2303FA0CF3434513D1B2
:1048A000236823EA07032360636823EA070363603E
:1048B000E36823EA0703E360A36823EA0703A3602E
:1048C000AB6823EA0603AB6005680326530006FACB
:1048D00003F325EA0305056022FA06F500EB8505DA
:1048E00002F0070C2E6A4FEA8C0C0F2707FA0CF720
:1048F00026EA07072F62C56825EA0305C5604568F3
:1049000025EA0E054560856825EA030383600132C8
:10491000102A85D1BDE8F08F0023BDE70123BBE756
:104920000223B9E70323B7E70423B5E70523B3E779
:104930000623B1E70723AFE70823ADE7003C0140BA
:10494000000002400014024000180240001C024017
:104950000369194214BF0120002070470AB1816128
:1049600070470904FBE7436901EA030221EA0301F6
:1049700041EA02418161704701684B6913F4806329
:104980004FF0000210D06FF480634B61202302636C
:1049900080F83D3080F83E20036C80F83C2043F0E6
:1049A0000403036401207047184670472DE9F84658
:1049B00006460F4691461D464FEA114A3368BAF142
:1049C000010F0CBF5C699C6927EA0404A4B2B4FA25
:1049D00084F46409A14501D0002017E06A1CEED0E0
:1049E000FEF7CCFF089BC01AA84201D8002DE5D1E4
:1049F00000232022336386F83D2086F83E30326C57
:104A000086F83C3042F0200232640120BDE8F8868E
:104A10002DE9F04104460F46164698462568686918
:104A200027EA000080B2B8B16B695A0516D52B6829
:104A300043F400732B606FF480636B6120220023CA
:104A4000236384F83D2084F83E30226C42F0040257
:104A5000226484F83C300120BDE8F081731CDED074
:104A6000FEF78CFFA0EB0800B04201D8002ED5D194
:104A700000232022236384F83D2084F83E30226CFA
:104A800042F02002E4E770B504460D461646216860
:104A90004B6913F0400301D0002010E04A69D206B0
:104AA0000ED56FF010024A612022236384F83D2066
:104AB00084F83E30226C226484F83C30012070BDC2
:104AC000FEF75CFF801BA84201D8002DDFD1002338
:104AD0002022236384F83D2084F83E30226C42F08B
:104AE0002002E8E770B504460D46164623685B6968
:104AF0005B0701D5002070BD2046FFF73DFFA8B938
:104B00006A1CF3D0FEF73AFF801BA84201D8002DA3
:104B1000ECD100232022236384F83D2084F83E302A
:104B2000226C84F83C3042F0200222640120E2E74B
:104B300070B504460D46164623685B691B0601D511
:104B4000002070BD2046FFF717FFA8B96A1CF3D0FC
:104B5000FEF714FF801BA84201D8002DECD10023E2
:104B60002022236384F83D2084F83E30226C84F8B0
:104B70003C3042F0200222640120E2E72DE9F043BC
:104B80001546026885B0DDE90C789946136843F450
:104B9000807313600E463B46CDF8008000224FF034
:104BA00001110446FFF702FF236838B11B68DB05DB
:104BB00002D54FF40073236403200AE006F0FE06DA
:104BC0001E61194943463A462046FFF721FF18B1B6
:104BD000012005B0BDE8F083236803905A69039271
:104BE0009B690393424639462046039BFFF7A0FF8B
:104BF00040B1236C042B01BF2268136843F4007397
:104C00001360E5E7B9F1010F236802D1EDB21D6130
:104C1000DFE72A0A1A61394642462046FFF788FF35
:104C20000028E6D12368F1E7020001002DE9FF47E3
:104C30009A46036815461A6842F480621A601A6838
:104C4000DDE90C7842F480721A600E463B46CDF8DE
:104C5000008000224FF001110446FFF7A7FE2368F1
:104C600048B11B68DB0502D54FF4007323640320B1
:104C700004B0BDE8F0875FFA86F906F0FE061E6113
:104C80002A4943463A462046FFF7C2FE08B10120B2
:104C9000EEE7236803905A6903929B6903934246A7
:104CA00039462046039BFFF743FF40B1236C042B9A
:104CB00001BF2268136843F400731360E7E7BAF199
:104CC000010F23681AD1EDB21D61424639462046D4
:104CD000FFF72EFF0028E9D12268136843F48073A0
:104CE00013604FF001110246CDF800803B4620468C
:104CF000FFF75CFE226860B11368B3E72A0A1A6105
:104D0000394642462046FFF713FF0028CED12368DC
:104D1000D9E749F001031361044943463A46204666
:104D2000FFF776FE003818BF0120A1E7020001005E
:104D300070B5044608B9012070BD90F83D3003F00D
:104D4000FF021BB980F83C20FCF7E6FE242384F820
:104D50003D3023681A6822F001021A601A6842F492
:104D600000421A601A6822F400421A6001F014F836
:104D70003F4B65689D4294BF3E4B3F4B98428CBF72
:104D800000230123002BD6D12268394E53683B49BA
:104D9000B0FBF1F123F03F030B43B542536088BFF2
:104DA0004FF49676136A88BF714323F03F0384BFA4
:104DB0004FF47A76B1FBF6F1013119431162D169F2
:104DC000431E2B4821F44F41854221F0FF0132D888
:104DD0006D0040F6FC70B3FBF5F30133034242D0A3
:104DE000C3F30B030B43D361D4E9073011680343CA
:104DF00021F0C0010B4313609168D4E9030321F44F
:104E00000341034321F0FF010B439360D4E90530D4
:104E1000D168034321F0FF010B43D360136843F0D3
:104E20000103136000202023206484F83D302063B8
:104E300084F83E0080E7A06850B905EB4505B3FB58
:104E4000F5F30133C3F30B037BB143F40043C9E72C
:104E500019204543B3FBF5F30133C3F30B0323B12F
:104E600043F44043BEE70423BCE70123BAE700BF95
:104E7000A08601007F841E00FF083D0040420F0015
:104E800010B5044698B10268242380F83D301368B9
:104E900023F001031360FCF783FE0020206484F8F4
:104EA0003C0084F83D00206384F83E0010BD0120E2
:104EB000FCE700002DE9F743044699460C9E0F4697
:104EC0009046FEF75BFD94F83D30202B054603D05D
:104ED000022003B0BDE8F08300903C491923012271
:104EE0002046FFF763FD0028F2D194F83C30012BF7
:104EF000EED02068012384F83C300368D9075EBFF8
:104F0000036843F001030360036823F40063036054
:104F1000212384F83D30402384F83E30002323646D
:104F20000A9B6362BDF82C306385638D2385284B13
:104F3000E362CDE900654B46424639462046FFF71D
:104F40001DFE00282AD00120C3E7FFF7F1FD40B184
:104F5000236C042B01BF2268136843F400731360B1
:104F6000F1E7636A27681A4612F8011B3961626229
:104F7000628D218D013A92B262857A69481E80B2B3
:104F8000520720850AD548B15A783A6102336362E4
:104F9000638D013B02399BB221856385238D2A46AF
:104FA00031462046002BD0D1FFF79CFD0028CFD101
:104FB0002268136843F400731360202384F83D30A3
:104FC00084F83C0084F83E0083E700BF0200100034
:104FD0000000FFFF2DE9F043044687B09946109F7B
:104FE0000D469046FEF7CAFC94F83D30202B06464D
:104FF00004D00225284607B0BDE8F083009076492A
:10500000192301222046FFF7D1FC0028F1D194F8A2
:105010003C30012BEDD02068012384F83C3003683C
:10502000DB075EBF036843F001030360036823F4FA
:1050300000630360222384F83D30402384F83E302F
:10504000002323640E9B6362BDF83C306385638D4F
:105050002385624BE3622946CDE900764B46424602
:105060002046FFF7E3FD054608B10125C2E7228D82
:105070002368B2B902905A6902929A690292029A1E
:105080001A6842F400721A60DFF85481238D002BF5
:105090002CD1202284F83D2084F83C3084F83E3026
:1050A000A8E7012A0AD11A6822F480621A600390E4
:1050B0005A6903929A690392039AE1E7022A0ED190
:1050C0001A6822F480621A601A6842F400621A6058
:1050D00004905A6904929B690493049BD4E7059059
:1050E0005A6905929B690593059BCDE7032B56D81A
:1050F000012B15D1324639462046FFF7C4FC002863
:10510000B3D123681A69636A1A70636A01336362F0
:10511000238D013B2385638D013B9BB26385B5E7FE
:10512000022B00963B464FF000024146204619D123
:10513000FFF73CFC002898D123681A6842F40072FB
:105140001A601A69636A1A70626A531C6362238D5B
:10515000013B2385638D013B9BB2638523681B69FB
:105160005370D2E7FFF722FC00287FF47EAF23685C
:105170001A6822F480621A601A69636A1A70636A94
:10518000009601336362238D013B2385638D013BD0
:105190009BB2638502463B4641462046C8E73246FD
:1051A00039462046FFF76FFC00287FF45EAF236886
:1051B0001A69636A1A70626A531C6362238D013B29
:1051C0002385638D013B9BB2638523685969490739
:1051D0007FF55CAFC3E700BF020010000000FFFFD7
:1051E0000400010090F83D0070470068D1F800C04D
:1051F000D201843283182DE9F043C6685D684C689B
:10520000D1F8189005F470455D60C5680CF1010790
:10521000C5F30B45C6F30B463D44264445EA064517
:105220005D60C568CE68C5F30A052E449D6805F427
:1052300070459D60C7688D68C7F30A0701353D4416
:1052400045EA06459D601D690E6925F007051D614B
:105250004FF0000E1E619D6991F8327091F8318017
:10526000C3F818E091F8305045EA096545EA082589
:1052700045EA07459D615D6925F0FF055D614D6962
:105280005D61DD6925F4E06525F00705DD61D1E9A3
:1052900007573D43DD619D6A4D6AC3F828E09D6272
:1052A0001EB3012E23D0B51E022D22D9072E0CBF0E
:1052B00002250125DE6A06F0E026DE62A4EB0C047E
:1052C0008E6AC96A6C436E43033444EA0644DC6266
:1052D0001C6B24F4FF6424F007041C6319638358D7
:1052E00043F001038350BDE8F0830425E2E7032582
:1052F000E0E70225DEE7000038B50446002863D069
:1053000090F8A13003F0FF021BB980F8A020FCF751
:1053100065FC022384F8A13023689A6922F0704268
:105320009A61D4E901200243E06899690243206947
:1053300002430A439A619A68244960690A409A6064
:105340009A6842EA0042A06902439A60DA68E0691A
:105350000A40DA60DA6842EA0042206A0243DA6010
:105360001A69606A0A401A611A6942EA0042A06A30
:1053700002431A615A69114059615A69E16A42EA65
:105380000142216B0A435A61D96A94F8360094F8B5
:10539000355001F07F41D962D96A94F834200A432C
:1053A00042EA052242EA0042DA625A6B42F0060201
:1053B0005A639A6942F001029A6100200123C4F8FD
:1053C000A40084F8A13038BD0120FCE700F800F00B
:1053D000704770477047036870B59E6B5D6B7207CE
:1053E000044614D5690712D55A6B22F004025A6399
:1053F0000422DA63D0F8A43043F00103C0F8A430EB
:10540000002380F8A12080F8A030FFF7E1FFB20769
:1054100016D5AB0714D523685A6B22F002025A63E3
:105420000222DA63D4F8A4301343C4F8A43004236E
:1054300084F8A130002384F8A0302046FFF7C8FF8D
:10544000F00710D5E9070ED523685A6B22F0010248
:105450005A630122DA63002384F8A12084F8A03083
:105460002046FFF7B6FF320711D52B070FD523686B
:105470005A6B22F008025A630822DA63012384F887
:10548000A130002384F8A0302046FFF7A3FF70BDB1
:105490002DE9F04190F8A030012B06460F469446C6
:1054A0004FF002001FD04FF0010886F8A08086F868
:1054B000A10034240D4604FB02640FCD38340FC420
:1054C0000FCD0FC40FCD0FC42B682360304662464A
:1054D0003946FFF78AFE33680020C3F8248086F837
:1054E000A18086F8A000BDE8F081000030B590F8FA
:1054F000A030012B4FF002032CD0342404FB020413
:1055000080F8A130A46C3CB3012C27D0A51E9D428D
:1055100002D9072C18BF01230468D2018432224427
:105520004B43D46A24F0FF5424F4F814D4620C4C96
:10553000656A45F001056562D56A45EA0343D362B1
:10554000636A43F001036362012380F8A130002302
:1055500080F8A030184630BD0423DDE70323DBE7E5
:105560000068014037B500230193184B184D1A6CA1
:1055700042F080521A641B6C03F080530193019B2C
:10558000144B01221A64FEF7F9F904466B68DA033A
:105590000BD5104B0E4D01225A64FEF7EFF904466D
:1055A0006B689B030AD5002006E0FEF7E7F9001BB5
:1055B000B0F57A7FEAD9032003B030BDFEF7DEF9FB
:1055C000001BB0F57A7FEBD9F5E700BF0038024049
:1055D0000070004000000E422DE9F0474E6A3EB1D7
:1055E000B2F1406F1FBF8B6A046803F1FF33236180
:1055F000D1F81890D1E90775B9F1000F4FD04B6978
:105600000068D1F800A0D1F834E046EA0909D1E9F0
:105610000B484FEA834C49EA020935B38B680E699F
:10562000C36149EA05059FB14AEA0703234343EAF8
:105630000803CC6843EA0E033343234343EA0C03D5
:105640002B43B2F1406F43610DD04B6883610AE098
:105650004AEA040343EA080343EA0E03334343EAF6
:105660000C032B434361BDE8F0876FB14AEA07039F
:10567000234343EA0803CC6843EA0E03234343EA87
:105680000C0343EA0903DCE74AEA040343EA08039C
:1056900043EA0E0343EA0C0343EA0903E2E745B396
:1056A00004688B68E36146EA05034E690869D1F82E
:1056B00034C043EA0205B604D1E90B8387B138430D
:1056C00040EA08000343C86843EA0C03034333433A
:1056D0002B43B2F1406F6361C5D04B68A361C2E751
:1056E00040EA0800034343EA0C0333432B4363615E
:1056F000B9E77FB1CC6A006846EA07031343234346
:105700000C6B23434C6B2343CC6823434C6943EA23
:10571000844396E7002EA6D0CB6A006833430E6B15
:105720001A4332434E6B4B69324342EA8342426131
:1057300099E72DE9F041DDF8188004460E4615463C
:105740001F4622689368334214BF01230023AB42F3
:1057500001D1002012E0B8F1FF3FF3D0FEF70EF9BF
:10576000C01B404502D8B8F1000FEAD1042384F8E9
:105770004130636C43F0010363640120BDE8F081B4
:1057800030B585B00446FEF7F9F80346002C47D043
:1057900094F8412002F0FF014AB9039084F84010C8
:1057A0002046FCF74DFA41F28832039BA264206840
:1057B000A1680268013922F4F85242EA012202602B
:1057C000A26C0092202100222046FFF7B2FF10BBFE
:1057D000E569E36822682B43256A11682B436568F5
:1057E00021F07F4143EA056321F0D0010B431360B0
:1057F000D4E905310B432169556843EA014309495E
:1058000029400B435360136843F0010313600123E5
:10581000606484F84130002384F8403005B030BD26
:105820000120FBE7FEF8E0FF10B5044668B102680E
:10583000136823F001031360FCF75CFA0020606436
:1058400084F8410084F8400010BD0120FCE72DE9F8
:10585000F043044685B017468946FEF78FF894F862
:105860004020012A034634D0012284F8402094F8D5
:105870004120012A5FFA82F84FF0020627D1002268
:105880006264039084F84160009720212046FFF76E
:1058900050FF0546A0B9024649462046FFF79CFE48
:1058A000D9F82420039B4AB9009742463146204646
:1058B000FFF73FFF054618B92368DE6084F8418092
:1058C000002384F84030284605B0BDE8F083354613
:1058D000F6E70225F7E72DE9FF41044615461E4687
:1058E0008846FEF74BF894F84020012A034640D042
:1058F000012284F8402094F84120012AD7B236D101
:10590000422100226264039084F841100096202115
:105910002046FFF70EFF20BB21682A688A626A686A
:105920004A62AA68CA620A68286922F440020243ED
:1059300042F480020A60EA68C8F8282041464FF025
:1059400000622046FFF748FE039B00963A46082176
:105950002046FFF7EEFE20B923680822DA6084F8BB
:105960004170002384F8403004B0BDE8F08102208B
:10597000F7E70220F8E7F7B5044616460F46FDF7AD
:10598000FDFF94F84020012A034632D0012284F81A
:10599000402094F84120012A29D10022822162640A
:1059A00084F84110A16C009120462021FFF7C1FE30
:1059B0000546B0B923687268186820F008001043E3
:1059C000082A186007D132681A631022DA601A6850
:1059D00042F480121A604FF0406239462046FFF7C9
:1059E000FBFD002384F84030284603B0F0BD0225BB
:1059F000F7E70225F8E71FB50446FDF7BFFF0346AA
:105A000094F8410010F002003AD00022216884F896
:105A100040200A6812F0040234D00A68E06B039355
:105A200022F004020A60FEF7F9F8039B18B1626CD9
:105A300042F0040262642268916889061DD51168EB
:105A4000039341F002011160A26C00920221012235
:105A50002046FFF76EFE039B90B922680221D160B9
:105A6000A26C0092202102462046FFF762FE38B960
:105A70002268536923F040635361012384F8413065
:105A800004B010BD1046D6E7F0B5044685B0164602
:105A90000F46FDF773FF94F840202568012A03465E
:105AA0004CD0012284F8402094F84120012AD0B241
:105AB00042D100226264002F39D0122284F84120A2
:105AC0002A690132E2622A6967620132A2626A6966
:105AD00022F040626A61E26AA2B9009601220221C4
