:020000040800F2
:1000000000000520E10D0008F9280008FB28000881
:10001000FD280008FF280008012900080000000052
:100020000000000000000000000000001187000830
:100030000329000800000000A18700082D800008A7
:10004000310E0008310E0008310E0008310E000894
:10005000310E0008310E0008310E0008310E000884
:10006000310E0008310E0008310E0008310E000874
:10007000310E0008310E0008310E0008310E000864
:10008000310E0008310E0008310E0008310E000854
:10009000310E0008310E0008310E0008310E000844
:1000A000310E0008310E0008310E0008310E000834
:1000B000310E0008310E0008310E0008310E000824
:1000C000310E0008310E0008310E0008310E000814
:1000D000310E0008310E0008310E0008310E000804
:1000E000310E0008310E0008310E0008310E0008F4
:1000F000310E0008310E0008310E0008310E0008E4
:10010000310E0008310E0008310E0008310E0008D3
:10011000310E0008310E000805290008310E0008D4
:10012000310E000811290008310E0008310E0008B8
:10013000310E0008310E0008310E0008310E0008A3
:10014000310E0008310E0008310E0008310E000893
:10015000310E0008310E0008310E0008310E000883
:10016000310E0008310E0008310E0008310E000873
:10017000310E0008310E0008310E000800000000AA
:10018000310E0008310E0008310E0008310E000853
:10019000310E0008310E0008310E0008310E000843
:1001A0001D290008310E000829290008310E000819
:0401B00035290008E5
:1001C00010B5054C237833B9044B13B10448AFF391
:1001D00000800123237010BD4001002000000000BA
:1001E00014E7010808B5034B1BB103490348AFF3FB
:1001F000008008BD000000004401002014E7010851
:1002000001F0FF01102A2BDB10F0070F08D010F8C7
:10021000013B013A8B422DD010F0070F42B3F6D1CB
:10022000F0B441EA012141EA014122F007047FF0E4
:1002300000070023F0E80256083C85EA010586EA3B
:10024000010685FA47F5A3FA87F586FA47F6A5FA77
:1002500087F68EB9EED1F0BC01F0FF0102F0070283
:1002600032B110F8013B013A83EA010313B1F8D12E
:100270000020704701387047002D06BF354603380F
:10028000073815F0010F07D1013015F4807F02BF48
:10029000013015F4C03F0130F0BC0138704700BF99
:1002A00081F0004102E000BF83F0004330B54FEA27
:1002B00041044FEA430594EA050F08BF90EA020F94
:1002C0001FBF54EA000C55EA020C7FEA645C7FEA27
:1002D000655C00F0E2804FEA5454D4EB5555B8BF4A
:1002E0006D420CDD2C4480EA020281EA030382EABB
:1002F000000083EA010180EA020281EA0303362D4D
:1003000088BF30BD11F0004F4FEA01314FF4801C1F
:100310004CEA113102D0404261EB410113F0004F31
:100320004FEA03334CEA133302D0524263EB4303E8
:1003300094EA050F00F0A780A4F10104D5F1200E86
:100340000DDB02FA0EFC22FA05F2801841F10001E1
:1003500003FA0EF2801843FA05F359410EE0A5F1B5
:1003600020050EF1200E012A03FA0EFC28BF4CF0E6
:10037000020C43FA05F3C01851EBE37101F000459C
:1003800007D54FF0000EDCF1000C7EEB00006EEBA9
:100390000101B1F5801F1BD3B1F5001F0CD3490833
:1003A0005FEA30004FEA3C0C04F101044FEA44528A
:1003B00012F5800F80F09A80BCF1004F08BF5FEA11
:1003C000500C50F1000041EB045141EA050130BDF1
:1003D0005FEA4C0C404141EB0101013C28BFB1F503
:1003E000801FE9D291F0000F04BF01460020B1FA4E
:1003F00081F308BF2033A3F10B03B3F120020CDA21
:100400000C3208DD02F1140CC2F10C0201FA0CF0FE
:1004100021FA02F10CE002F11402D8BFC2F1200C63
:1004200001FA02F120FA0CFCDCBF41EA0C01904019
:10043000E41AA2BF01EB0451294330BD6FEA040462
:100440001F3C1CDA0C340EDC04F11404C4F120024D
:1004500020FA04F001FA02F340EA030021FA04F35F
:1004600045EA030130BDC4F10C04C4F1200220FAB6
:1004700002F001FA04F340EA0300294630BD21FAF4
:1004800004F0294630BD94F0000F83F4801306BFBA
:1004900081F480110134013D4EE77FEA645C18BFAE
:1004A0007FEA655C29D094EA050F08BF90EA020F45
:1004B00005D054EA000C04BF1946104630BD91EA3D
:1004C000030F1EBF0021002030BD5FEA545C05D140
:1004D0004000494128BF41F0004130BD14F580047F
:1004E0003CBF01F5801130BD01F0004545F0FE41F3
:1004F00041F470014FF0000030BD7FEA645C1ABF28
:10050000194610467FEA655C1CBF0B46024650EA5E
:10051000013406BF52EA033591EA030F41F400218A
:1005200030BD00BF90F0000F04BF0021704730B510
:100530004FF4806404F132044FF000054FF00001E5
:1005400050E700BF90F0000F04BF0021704730B5A6
:100550004FF4806404F1320410F0004548BF40427B
:100560004FF000013EE700BF42004FEAE2014FEAD0
:1005700031014FEA02701FBF12F07F4393F07F4FAB
:1005800081F06051704732F07F4208BF704793F0AE
:100590007F4F04BF41F40021704730B54FF46074C1
:1005A00001F0004521F000411CE700BF50EA0102C4
:1005B00008BF704730B54FF000050AE050EA01026D
:1005C00008BF704730B511F0004502D5404261EBDD
:1005D00041014FF4806404F132045FEA915C3FF41E
:1005E000D8AE4FF003025FEADC0C18BF03325FEABB
:1005F000DC0C18BF033202EBDC02C2F1200300FA6C
:1006000003FC20FA02F001FA03FE40EA0E0021FA90
:1006100002F11444BDE600BF70B54FF0FF0C4CF47E
:10062000E06C1CEA11541DBF1CEA135594EA0C0F30
:1006300095EA0C0F00F0DEF82C4481EA030621EA6B
:100640004C5123EA4C5350EA013518BF52EA0335A6
:1006500041F4801143F4801338D0A0FB02CE4FF058
:100660000005E1FB02E506F00042E0FB03E54FF088
:100670000006E1FB03569CF0000F18BF4EF0010E80
:10068000A4F1FF04B6F5007F64F5407404D25FEA7C
:100690004E0E6D4146EB060642EAC62141EA55512F
:1006A0004FEAC52040EA5E504FEACE2EB4F1FD0C71
:1006B00088BFBCF5E06F1ED8BEF1004F08BF5FEAEF
:1006C000500E50F1000041EB045170BD06F00046A1
:1006D00046EA010140EA020081EA0301B4EB5C044E
:1006E000C2BFD4EB0C0541EA045170BD41F4801146
:1006F0004FF0000E013C00F3AB8014F1360FDEBF6B
:10070000002001F0004170BDC4F10004203C35DA46
:100710000C341BDC04F11404C4F1200500FA05F3C9
:1007200020FA04F001FA05F240EA020001F000426A
:1007300021F0004110EBD37021FA04F642EB0601E0
:100740005EEA430E08BF20EAD37070BDC4F10C040A
:10075000C4F1200500FA04F320FA05F001FA04F2CE
:1007600040EA020001F0004110EBD37041F10001BA
:100770005EEA430E08BF20EAD37070BDC4F12005C5
:1007800000FA05F24EEA020E20FA04F301FA05F22D
:1007900043EA020321FA04F001F0004121FA04F2D5
:1007A00020EA020000EBD3705EEA430E08BF20EAA5
:1007B000D37070BD94F0000F0FD101F000464000DF
:1007C00041EB010111F4801F08BF013CF7D041EA61
:1007D000060195F0000F18BF704703F00046520065
:1007E00043EB030313F4801F08BF013DF7D043EA36
:1007F0000603704794EA0C0F0CEA135518BF95EAEC
:100800000C0F0CD050EA410618BF52EA4306D1D172
:1008100081EA030101F000414FF0000070BD50EA91
:10082000410606BF1046194652EA430619D094EA1B
:100830000C0F02D150EA013613D195EA0C0F05D105
:1008400052EA03361CBF104619460AD181EA030159
:1008500001F0004141F0FE4141F470014FF0000011
:1008600070BD41F0FE4141F4780170BD70B54FF0AC
:10087000FF0C4CF4E06C1CEA11541DBF1CEA13552C
:1008800094EA0C0F95EA0C0F00F0A7F8A4EB05040E
:1008900081EA030E52EA03354FEA013100F0888005
:1008A0004FEA03334FF0805545EA131343EA1263CE
:1008B0004FEA022245EA111545EA10654FEA002683
:1008C0000EF000419D4208BF964244F1FD0404F53C
:1008D000407402D25B084FEA3202B61A65EB030598
:1008E0005B084FEA32024FF480104FF4002CB6EB55
:1008F000020E75EB030E22BFB61A754640EA0C00D5
:100900005B084FEA3202B6EB020E75EB030E22BF14
:10091000B61A754640EA5C005B084FEA3202B6EB55
:10092000020E75EB030E22BFB61A754640EA9C0014
:100930005B084FEA3202B6EB020E75EB030E22BFE4
:10094000B61A754640EADC0055EA060E18D04FEAA2
:10095000051545EA16754FEA06164FEAC30343EA42
:1009600052734FEAC2025FEA1C1CC0D111F4801F0F
:100970000BD141EA00014FF000004FF0004CB6E708
:1009800011F4801F04BF01430020B4F1FD0C88BFA7
:10099000BCF5E06F3FF6AFAEB5EB030C04BFB6EBB2
:1009A000020C5FEA500C50F1000041EB045170BDA5
:1009B0000EF0004E4EEA113114EB5C04C2BFD4EBD2
:1009C0000C0541EA045170BD41F480114FF0000E56
:1009D000013C90E645EA060E8DE60CEA135594EAD2
:1009E0000C0F08BF95EA0C0F3FF43BAF94EA0C0FD5
:1009F0000AD150EA01347FF434AF95EA0C0F7FF44A
:100A000025AF104619462CE795EA0C0F06D152EA9D
:100A100003353FF4FDAE1046194622E750EA410681
:100A200018BF52EA43067FF4C5AE50EA41047FF492
:100A30000DAF52EA43057FF4EBAE12E74FEA4102F5
:100A4000B2F1E04324BFB3F5001CDCF1FE5C0DD92C
:100A500001F0004C4FEAC0024CEA5070B2F1004F76
:100A600040EB830008BF20F00100704711F0804F79
:100A700021D113F13872BCBF01F00040704741F43E
:100A800080114FEA5252C2F11802C2F1200C10FA42
:100A90000CF320FA02F018BF40F001004FEAC12326
:100AA0004FEAD32303FA0CFC40EA0C0023FA02F3CA
:100AB0004FEA4303CCE77FEA625307D150EA0133A0
:100AC0001EBF4FF0FE4040F44000704701F0004070
:100AD00040F0FE4040F40000704700BF53B94AB9EF
:100AE000002908BF00281CBF4FF0FF314FF0FF3036
:100AF00000F074B9ADF1080C6DE904CE00F006F811
:100B0000DDF804E0DDE9022304B070472DE9F04789
:100B1000089D04468E46002B4DD18A42944669D9E1
:100B2000B2FA82F252B101FA02F3C2F1200120FAC4
:100B300001F10CFA02FC41EA030E94404FEA1C4812
:100B4000210CBEFBF8F61FFA8CF708FB16E341EA0E
:100B5000034306FB07F199420AD91CEB030306F194
:100B6000FF3080F01F81994240F21C81023E6344B5
:100B70005B1AA4B2B3FBF8F008FB103344EA034459
:100B800000FB07F7A7420AD91CEB040400F1FF336E
:100B900080F00A81A74240F207816444023840EAAB
:100BA0000640E41B00261DB1D4400023C5E90043E4
:100BB0003146BDE8F0878B4209D9002D00F0EF8067
:100BC0000026C5E9000130463146BDE8F087B3FA9A
:100BD00083F6002E4AD18B4202D3824200F2F98082
:100BE000841A61EB030301209E46002DE0D0C5E985
:100BF000004EDDE702B9FFDEB2FA82F2002A40F0D1
:100C00009280A1EB0C014FEA1C471FFA8CFE0126D3
:100C1000200CB1FBF7F307FB131140EA01410EFB77
:100C200003F0884208D91CEB010103F1FF3802D21E
:100C3000884200F2CB804346091AA4B2B1FBF7F018
:100C400007FB101144EA01440EFB00FEA64508D93B
:100C50001CEB040400F1FF3102D2A64500F2BB8078
:100C60000846A4EB0E0440EA03409CE7C6F12007C7
:100C7000B34022FA07FC4CEA030C20FA07F401FA0D
:100C800006F31C43F9404FEA1C4900FA06F3B1FB96
:100C9000F9F8200C1FFA8CFE09FB181140EA0141FB
:100CA00008FB0EF0884202FA06F20BD91CEB010198
:100CB00008F1FF3A80F08880884240F28580A8F1F0
:100CC00002086144091AA4B2B1FBF9F009FB101142
:100CD00044EA014100FB0EFE8E4508D91CEB0101E0
:100CE00000F1FF346CD28E456AD90238614440EA83
:100CF0000840A0FB0294A1EB0E01A142C846A64603
:100D000056D353D05DB1B3EB080261EB0E0101FA8B
:100D100007F722FA06F3F1401F43C5E900710026E8
:100D20003146BDE8F087C2F12003D8400CFA02FC3E
:100D300021FA03F3914001434FEA1C471FFA8CFE4E
:100D4000B3FBF7F007FB10360B0C43EA064300FB3E
:100D50000EF69E4204FA02F408D91CEB030300F1DC
:100D6000FF382FD29E422DD9023863449B1B89B293
:100D7000B3FBF7F607FB163341EA034106FB0EF31C
:100D80008B4208D91CEB010106F1FF3816D28B42C9
:100D900014D9023E6144C91A46EA004638E72E4695
:100DA000284605E70646E3E61846F8E64B45A9D28D
:100DB000B9EB020864EB0C0E0138A3E74646EAE7FC
:100DC000204694E74046D1E7D0467BE7023B6144AA
:100DD00032E7304609E76444023842E7704700BF13
:100DE000DFF834D0002103E00C4B5B584350043152
:100DF0000B480C4B42189A42F6D30B4A02E00023F0
:100E000042F8043B094B9A42F9D303F0BDFB1CF0B6
:100E10001BFC00F08BFF704700000520C02102087A
:100E200000000020400100204001002070C200208E
:100E3000FEE700F0F9BD00F067BE0021084602F0B1
:100E40000BBF002002F042BF40687047416070470E
:100E50004FF0E022D2F8FC3D43F08073C2F8FC3D35
:100E6000A2F55042136843F0010313607047511A12
:100E700001EB5301B1FBF3F070470000014B5868E0
:100E8000704700BF001000E0704710B50C21044609
:100E90001BF0E6FD204610BD036810B51B69044633
:100EA00031B19847A26863689B1A1844606010BD0E
:100EB0009847A060FBE770477047000008B5FFF750
:100EC000BCFF024B00221A6008BD00BF5C0100207D
:100ED00070B50D46FFF7B5FF0B4A93785678117839
:100EE000D370C4B213F001009670517014700AD020
:100EF00016F0010007D011F0010004D0E3075ABF3B
:100F000001202870002070BD5C01002010B5042174
:100F100004461BF0A5FD204610BD704710B5042106
:100F200004461BF09DFD204610BD000008B54FF49F
:100F3000F0714FF4487003F079FA074B10B90122B1
:100F40001A7008BD1B78002BFBD1044B044A0548DE
:100F500027211CF02FFB00BF60010020B0E7010833
:100F6000C3E70108EDE701087FB50B4B1C780E467F
:100F700015465CB101A803F091FA9DF8043043B125
:100F8000BDF806303360BDF80A302B60204604B04F
:100F900070BD1C46FAE700BF6001002001280BD09D
:100FA000032810D0C0B90D4B1A68B2FA82F2520968
:100FB00004210B4804F016BC084B5A68B2FA82F2BE
:100FC00052094021F5E7054B0648DA68B2FA82F289
:100FD00052094FF48051EDE7704700BF64010020D3
:100FE000000002400018024001280BD0032810D056
:100FF000C0B90D4B1A68003A18BF012204210B48F2
:1010000004F0F0BB084B5A68003A18BF0122402197
:10101000F5E7054B0648DA68003A18BF01224FF49D
:101020008051EDE7704700BF6401002000000240DE
:1010300000180240012806D0032806D048B9042130
:10104000044804F0D4BB4021FAE703484FF4805130
:10105000F7E770470000024000180240012808B579
:101060000AD003280AD068B90421074804F0B4FB69
:10107000431E5842584108BD4021F6E703484FF44B
:101080008051F3E70020F3E700000240001802401F
:1010900070B5084D00240126E0B2FFF7DFFF18B15C
:1010A0002B68012B18BF2E600134052C05F10405B7
:1010B000F2D170BD64010020012380F8741080F823
:1010C0007530704700207047034B4164003918BFEA
:1010D00001211970704700BFCBBF0020002070476E
:1010E000836B0BB10846184770474FF6FF70704787
:1010F000406803689B69184770477047014B186840
:10110000704700BF740100207047000038B50446E6
:10111000094DFFF7BDFF204600F076FD002384F85F
:101120004A302846FFF794FE012384F86C30034BC5
:101130002561636138BD00BF800100207C01002073
:101140000368044607B5D3F88030984723682046E3
:101150009B6F984700F02EFA236820461B6F984734
:101160000021064800912923152204F024F900F0FB
:1011700021FA236820461B6F9847F8E7B013002038
:1011800010B504460AF048FA23682046D3F8AC307C
:10119000BDE81040184700F036BD00F04CBD00F02F
:1011A0004CBD00F01FBD00F025BD00F049BD0000A2
:1011B000024B00221A7009F0F7BB00BF1400002098
:1011C00010B5044609F0FCFB94F84B3013B1024B08
:1011D00001221A7010BD00BF1400002009F0A8BB46
:1011E00010B57C2104461BF03BFC204610BD90F856
:1011F00077301BB1406803681B6818471846704772
:1012000010B590F8341090F874400C4B8C421A785A
:1012100009D03AB90A4A0B491488088810800C8012
:1012200001221A7010BD002AFCD0054A0549148815
:10123000088810800C800022F3E700BFC4BF0020A4
:10124000C0BF0020C2BF002008B5094B1B888B42DD
:1012500003D8084B1B88934205D9074B074A084817
:101260009E211CF0A7F9074B1980074B1A8008BD77
:10127000C0BF0020C2BF00204CE80108AFE8010851
:10128000F2E80108C6BF0020C8BF002070B50D46B7
:1012900019460B4B1D6035B90A4B0B4A0B4840F2FF
:1012A000BB211CF087F9C0E90F52094B003A18BF67
:1012B00001221A700368BDE87040D3F88C301847DB
:1012C0007401002037E901086FE90108F2E801081C
:1012D000CABF0020012807B50AD84B7800930B78C5
:1012E00008481522002104F066F803B05DF804FBFD
:1012F00001910B5C0093392203460021014804F060
:101300006BF8F2E7B013002037B50B4A0B4C022301
:101310001525137055700192442200920021392244
:10132000204604F059F80021009135232A46204632
:1013300004F041F803B030BD8C010020B013002050
:1013400007B50190FFF7E0FF019803B05DF804EBEB
:1013500000F058BC07B5074B03EB80002A2301902F
:101360000093392204230021034804F035F803B028
:101370005DF804FB04000020B013002070B5154D8B
:1013800004460020FFF70AFE2A6892F8663001330F
:1013900082F8663000F002F90F4B28681A781B7843
:1013A00080F84A2023B10D4D2B7803F0FF0623B1BE
:1013B000BDE870400020FFF717BE0AF02DF9084B7A
:1013C00030461E60FFF7C6FF204603F0E4FF01230E
:1013D0002B7070BDCCBF0020140000208E010020B7
:1013E00078010020334B1A68013270B51A60324B15
:1013F000324C1968324B032A05462EDCD4F804041B
:1014000020F00800C4F804044FF4C87000FB021177
:10141000C3F8AC100CBFE823C823023328491B04CF
:1014200043F4F1730B61274B4B61A3F5F073C1F8E3
:101430008830254BC1F8B030012310464B62FFF7CE
:1014400089FF1E4AD2F8043443F008032846C2F844
:101450000434BDE8704003F09EBFD4F8042422F0A9
:101460000802C4F80424194AC3F8AC101A6102F146
:1014700001125A61164AC3F88820134AC3F8B020F3
:1014800001225A620020FFF765FFD4F8043443F0CC
:101490000803C4F804340020FFF7A6FD0D4B00221A
:1014A0001A700D4B186820B10368BDE870401B6AC4
:1014B000184770BD7801002074010020006C0140C5
:1014C00000680140E301CA0093018006E201CA00FE
:1014D0000300CA008E010020CCBF002008B5044BD9
:1014E0000146186801B101210AF0B0F8012008BDD9
:1014F000CCBF0020054B064800225A609A60054A7E
:101500001A60054B0360FFF7D9BC00BF80010020C3
:101510007C01002074E701089CE70108012108B55F
:101520000022084606F011FE0A4B186028B90A4B43
:101530000A4A28210A481CF03DF800220421012013
:1015400006F0A0FE074B186018B9074B034A2C2180
:10155000F0E708BD9401002098EA0108E1EA0108DB
:1015600010EB01089001002057EB0108024B4FF0EF
:10157000FF31186806F033BE94010020014B186853
:1015800006F058BE94010020024B0021186806F0B6
:1015900026BE00BF94010020FFF7F0BF03480449B6
:1015A000006800231A4606F0A8BE00BF9001002084
:1015B0001800002013B5084C00231A4601A9206822
:1015C00006F0CBFE20684FF0FF33002201A906F0A1
:1015D000C4FE02B010BD00BF9001002003685B6C28
:1015E00018470120704703689B6A184782B00023A0
:1015F00001930D4B1A6B42F400021A631A6B02F44A
:1016000000020192019A1A6942F400021A611A69F1
:1016100022F400021A61054B054A1A61054B4FF08E
:1016200080629A6002B070470038024010130020B8
:101630007916000800E100E040F2EF30704700004A
:10164000054B0360054B4FF08062C3F88820BFF361
:101650004F8FBFF36F8F7047F0EC010800E100E09F
:1016600010B504464FF45A61FFF7EAFF20461BF01D
:10167000F7F9204610BD0000024B1B68586803684C
:101680005B691847CCBF002070B5044625460A4B5D
:101690000C30002660602672667245F8203B60229E
:1016A00029460AF039F904F55A63EE602435AB4255
:1016B000FBD1204670BD00BFF0EC010808B50B2936
:1016C0000BD8DFE801F01206100A0A0A0A08080817
:1016D0000808012008BD0520FCE7054B054A06481F
:1016E00066211BF067FF0020F4E70220F2E700BF4D
:1016F00099EB0108B4EB0108FEEB010808B50A29D3
:1017000009D8DFE801F010060E08080808060606EA
:101710000600012008BD054B054A064887211BF03D
:1017200049FF0020F6E70220F4E700BF99EB01082B
:1017300043EC0108FEEB01082DE9F8434F7F0C460E
:1017400039468146FFF7BAFF94F81E8005464146A8
:101750004846FFF7B3FF414606464846FFF7CEFF2F
:10176000A18A628B424B521A1A649A61228B521AD6
:101770001A61E28A586342EA01425A642069626847
:10178000D863DA60216894F81CC080294FEA0C62A3
:1017900026D010D8202945EA020461D040295FD024
:1017A00004295DD0324B2A4342F400324745DA61C6
:1017B0005AD0304A40E0B1F5807F07D0B1F5007FC4
:1017C000F0D142F4003242F0090203E042F4003268
:1017D00042F00A02DA61E2681A625E6258612AE047
:1017E000A4682A4342F40032211DD962DA612278CA
:1017F0005E62586142B1012A21D01F4B1F4A204826
:1018000040F211111BF0D6FEDA69618822F47F42A2
:10181000013922F0100242EA0122DA610120144B60
:10182000DA6942F02002DA61DA699206FCD4102209
:101830009A600028BDD0134A1A60BDE8F883628818
:10184000D969541E21F47F4222F0100242EA042298
:10185000BCF1FF0042F0100218BF0120DA61DEE7A0
:1018600044F40034DC61B8E740F20122E4E700BF51
:1018700000B00240010201008EEC0108A8EC010852
:10188000FEEB01080102020070B50C46897FFFF7EC
:1018900035FFA68AE18A628B154B2569586341EAB8
:1018A0000641921B5964DD631A642668E168082EBC
:1018B0000DD19A611A615862207F0E4A42EA006295
:1018C000DA610D4A19625D61DD601A6070BD002247
:1018D000D8611A6148090A0A02F4784200F4FC60EF
:1018E0000243C1F3C4010A439A63044AEDE700BF0F
:1018F00000B00240090001000102020001020300E1
:10190000012070470C2070470C2303FB01000830B6
:1019100070470C2303FB010008307047012070471B
:101920004FF4927070474FF4927303FB010008303C
:1019300070474FF4927303FB010008307047012099
:1019400070471020704700EB01100830704700EB23
:10195000011008307047084601F0D6B910B5034BA6
:101960000360044608F00AFD204610BDA8ED0108FA
:1019700010B50446FFF7F2FF204614211BF070F863
:10198000204610BD10B5034B0360044608F0F6FC7A
:10199000204610BD74ED010810B50446FFF7F2FFB4
:1019A00020464FF496711BF05BF8204610BD0000F6
:1019B00010B5034B0360044608F0E0FC204610BD60
:1019C00040ED010810B50446FFF7F2FF204618214C
:1019D0001BF046F8204610BD10B5084B03600446C6
:1019E00000F5AC70FFF7BAFF04F12C00FFF7CAFF57
:1019F00004F11400FFF7DCFF204610BDDCED010808
:101A000008B50248FFF7E8FF08BD00BF9C010020B1
:101A100010B50446FFF7E0FF20464FF432711BF08B
:101A20001FF8204610BD00002DE9F34100F0F6FF3D
:101A3000054600F0F7FF00240146234628462246CB
:101A400000940EF0C5FE254B254A264D1A6020460F
:101A500001F068FC24480EF007FE2B78BFF35B8F83
:101A6000DB0735D428461AF0FDFF88B31F4C204B06
:101A7000236004F5B87604F1140004F12C0804F591
:101A8000AC776060C4F80880E760266108F078FCF5
:101A9000184B6361404608F073FC174BE36238460D
:101AA00008F06EFC154BC4F8583104F5B67001F01F
:101AB000B5FC224604F5B671304601F0A5FC30466F
:101AC00001F022F90E481BF093FD28461AF0D6FFCC
:101AD0000C4802B0BDE8F041FFF718BB28C0002059
:101AE00084120020980100201C0000209C0100208E
:101AF000DCED010840ED010874ED0108A8ED0108D6
:101B0000011A0008081200200148FFF719BB00BFA6
:101B10000812002070B5234E234C244D244B236023
:101B20003046FFF7B1FD284611F0FEFF214B224859
:101B3000DC6000224FF48071C3E912121F491A863B
:101B4000C3E919124FF080715967012183F87810A9
:101B50001B491A660B604FF450710180194883F8D5
:101B60006C20018018481A674FF4F071C3E9042211
:101B7000C3E90622C3E90822C3E90A22C3E90E2207
:101B8000C3E91022C3E91422C3E91622C3E901659F
:101B900001800E4883F8342001800D490A700D4AF7
:101BA0001A6070BD680400206404002088120020C0
:101BB0003CE8010808120020C0BF0020010000011D
:101BC000CCBF0020C6BF0020C2BF0020C8BF00207D
:101BD000C4BF0020C8E901080148FFF731BD00BFBC
:101BE00068040020024B902283F85A23704700BFFC
:101BF00000E100E0024B4FF080629A60704700BF46
:101C000000E100E07047704770B5044608F0E5FE5B
:101C100023685D6E0CF062F901462046A8472368F0
:101C2000D3F8885000232046AC461A46BDE87040E1
:101C30004FF04041604708F081BE08F0DABF000075
:101C4000044B4FF08062C3F88820BFF34F8FBFF37F
:101C50006F8F704700E100E00149002007F0B2BE3D
:101C6000DD14000808B5642006F063FAFBE7000005
:101C700002468BB20148002106F056B848150020F4
:101C80000148002106F0BAB84815002030B595B0DB
:101C90001022002109A81BF019FD1422002102A81E
:101CA0001BF014FD00241F4B00941A6C42F080526C
:101CB0001A641B6C03F080530093009B1A4B019431
:101CC0001A6842F440421A601B6803F440430193CF
:101CD0000122019B4FF48033CDE9072302254FF405
:101CE00080030821CDE90D534FF4B473CDE90F13F0
:101CF00004200623CDE9120307A8119505F020F969
:101D000004F074FB0F23CDE9023504944FF48053A3
:101D10004FF4A054052102A8CDE9054304F0E4FEE8
:101D200015B030BD00380240007000402DE98048F9
:101D3000BBB00024C94D02F035FCFFF7A7FF142209
:101D400000212DA81BF0C2FC03942B6BC44843F068
:101D500010032B632B6B03F010030393039B04947A
:101D60002B6B43F002032B632B6B03F002030493F2
:101D7000049B05942B6B43F040032B632B6B03F008
:101D800040030593059B06942B6B43F008032B63DC
:101D90002B6B03F008030693069B07942B6B43F40D
:101DA00080732B632B6B03F480730793079B08945A
:101DB0002B6B43F020032B632B6B03F02003089362
:101DC000089B09942B6B43F480632B632B6B03F408
:101DD00080630993099B0A942B6B43F080032B6368
:101DE0002B6B03F080030A930A9B0B942B6B43F03D
:101DF00001032B632B6B03F001030B930B9B0C94E0
:101E00002B6B43F004032B632B6B03F004030C9345
:101E10000C9B0D942B6B43F400732B632B6B03F41F
:101E2000007322464FF480510D930D9B03F0DAFCB2
:101E30008C480122082103F0D5FC8B48224646211C
:101E400003F0D0FC22468948802103F0CBFC4FF000
:101E5000010803264FF48053814830962DA911279D
:101E6000CDE92D382F9403F02FFB08237D482DA9B1
:101E7000CDE92D37CDE92F4403F026FB46237A48E0
:101E80002DA94FF08009CDE92D38CDE92F4603F07B
:101E90001BFB2DA97548CDE92D97CDE92F4603F001
:101EA00013FB7348734F744B036002F021FC734BB8
:101EB000C7E90A44C7E90C443846C7E90034C7E912
:101EC000024402F033FE4146384602F0E7FE49463E
:101ED000224666486A4F03F085FC142002F08EFB10
:101EE00049464246614803F07DFC0A2002F086FB29
:101EF0002422214617A810941BF0E8FB1822214643
:101F000011A81BF0E3FB342221462DA81BF0DEFBB9
:101F10002C2221460DEB09001BF0D8FB594B4FF04A
:101F200002094FF0040BC7E900340EA97D2338469F
:101F3000CDE90E39C7E902B802F078FF17A9384693
:101F4000CDE91784CDE91944CDE91B44CDE91D4401
:101F50001F9403F097F91C222123CDE911230F21AF
:101F60001923CDE91313384611A9CDE9154403F01F
:101F70004CF95946384603F037F942F210713846A9
:101F800003F08BFA2146384602F0EDFE4FF48070E4
:101F90004FF400734FF4806CCDE92D034FF40063D0
:101FA0004FF4805ECDE92FC34FF40053CDE931E308
:101FB0004FF4804A4FF480334FF40032CDE933A31D
:101FC0004FF48023CDE935234FF400214FF0807387
:101FD000CDE9371338462DA94FF0100ACDF8E4901B
:101FE00003F0CEF8C82320A93846CDE9223ACDE93E
:101FF000244BCDE92044CDE92694CDE92844CDF801
:10200000A88003F04BF82146384603F036F81E4806
:102010001E4A0462C0E9002420234022C0E90432A1
:102020004FF4C0724FF4805C4FF480432DA9C0E997
:1020300006240722C0E909C3CDE92E2BCDE93026BD
:10204000C0E9024BCDE93299CDF8B49005F032F9F0
:1020500002F0D6F902F086F9214619E00038024074
:10206000001802400028024000000240001C02400C
:1020700008130020101300200030024000B002407E
:10208000B0130020006C014014150020400100A096
:10209000342220A81BF01AFB824E834AB4864FF0EC
:1020A000CA0EC6E900244FF4F172C6E909E24FF006
:1020B000CB0B40F2E3123046C6E90BB2C6E902444C
:1020C000C6E90448C6E90689C6F8209086F8364075
:1020D00004F056F8FF21CDE925144FF0050B4FF41D
:1020E0008061C8234FF4F072CDE9271B4FF04041C7
:1020F000CDE92913CDE9232920A92B923046224688
:10210000CDE921342094ADF8B0408DF8B24004F010
:1021100003F93268936923F001039361384603F0B1
:1021200017F94146484601F0E1FA282315222146D5
:102130000094384603F03FF92DA93846CDE92D44E7
:10214000CDE92F44CDE93144CDE93344CDE93544DF
:10215000379403F015F84FF448712246304604F0E6
:1021600009F9326851489369514E43EA0803936173
:10217000504B04621B22C0E900384FF48063C0E971
:102180000423C0E9028AC0E9064404F03DFA01F0E4
:10219000AFFF01F0E3FE01F059FE4749474B3462BF
:1021A000C6E9001330464FF48043C6E90434C6E95B
:1021B0000244C6E9064403F0FFFC304603F0A4FDE8
:1021C0005246214617A81BF081FA1C22214620A85E
:1021D000CDE911441BF07AFA202221462DA81BF0EC
:1021E00075FA374E374BB460C6E900343046E02309
:1021F000C6E90334C6E9054405F014FB4FF48053E7
:1022000017A93046179305F001FC304605F036FB60
:1022100011A93046CDE9114405F0F2FD22466023B4
:1022200020A93046CDE92034CDE92244CDE924442B
:10223000269405F085FB4FF400532DA930463293C8
:10224000CDE92D44CDE92F443194349405F016FEA8
:10225000304600F02DFA2D942B6B43F480032B6352
:102260002B6B03F48003224659462D9339202D9B76
:1022700002F0EAF9392002F019FAFEF7DAFD05F06A
:10228000E3FE114A1148214605F00AFF104B114A9E
:1022900018602146104805F003FF104B186005F048
:1022A000E5FEFEE72014002000680140C81400206D
:1022B000CC130020001000A000540040801A06003B
:1022C000481500200000014028EE0108651C0008A8
:1022D0000413002004EE0108370E0008001300204C
:1022E0000268034B9A4201D102F076B9704700BFF1
:1022F000001000407047000082B00E4B0022009298
:10230000596C41F480415964596C01F48041009149
:1023100000990192196C41F0805119641B6C03F013
:1023200080530193019B0F216FF0010002B002F076
:102330008BB900BF003802400268094B9A4282B054
:102340000BD100230193074B1A6B42F480521A639E
:102350001B6B03F480530193019B02B0704700BFD5
:10236000003002400038024007B50F4B02689A4225
:1023700016D10022A3F5F0430192196B41F400013C
:1023800019631B6B03F40003019305215A20019B81
:1023900002F05AF95A2003B05DF804EB02F086B956
:1023A00003B05DF804FB00BF00B0024010B5044666
:1023B00088B01422002103A81BF088F92268174B6B
:1023C0009A4228D103F54C43002401945A6C1448D6
:1023D00042F000625A645A6C02F000620192019A63
:1023E00002941A6B42F400721A631B6B03F40073BD
:1023F00002930422029B0223CDE9032303A90D23A8
:10240000079303F061F85C202246052102F01CF9D5
:102410005C2002F04BF908B010BD00BF006C014019
:102420000024024030B5044689B01422002103A8DC
:102430001BF04CF922681A4B9A422FD1194C1A48BA
:1024400000250195236B43F002032363236B03F004
:1024500002030193019B4FF440721223CDE9032341
:1024600001210323CDE90513042303A9079303F0F6
:102470002BF80295236C43F400132364236C03F4BC
:1024800000130293029B236A43F400132362236A1E
:1024900023F400132362642002F0B0F809B030BDC9
:1024A00000540040003802400004024008B50268B1
:1024B0000A4B9A4210D10A4A0A48136C23F40013BB
:1024C00013644FF4807103F0E5F8BDE80840054857
:1024D0004FF4007103F0DEB808BD00BF00540040A7
:1024E000003802400004024010B5044690B03C227F
:1024F000002101A81BF0EAF82268124B9A421FD172
:10250000082301934FF4B473059301A8062308939D
:1025100004F0B4FB08B1FFF7EDFE0B4B0022009274
:10252000596C41F0806159645B6C03F080630093E7
:1025300058200521009B02F087F8582002F0B6F8D9
:1025400010B010BD0068014000380240F0B50446EC
:1025500089B01422002103A81BF0B8F82268244B8C
:102560009A4242D1234B2448002400949A6B42F0B3
:1025700002029A639A6B02F002020092009A01949E
:102580001A6B42F002021A631A6B02F00202019205
:10259000019A02941A6B42F020021A631B6B03F03B
:1025A0002003029302260325029B0A27402303A946
:1025B000CDE90336CDE9065702F086FF4FF4986364
:1025C000CDE903360D48092303A90793CDE9054555
:1025D00002F07AFF4FF440730848079703A9CDE94A
:1025E0000336CDE9054502F06FFF09B0F0BD00BF2D
:1025F000001000A000380240000402400014024015
:1026000008B50268094B9A420FD1094A0948936BF1
:1026100023F002039363402103F03CF8BDE8084037
:1026200005484FF4F86103F035B808BD001000A06C
:1026300000380240000402400014024037B5184B35
:1026400002689A42054628D10023164A0193516C2C
:10265000154C41F001015164526C144902F0010221
:102660000192019A4FF04062C4E9001240224FF4F7
:102670008060C4E902234FF40062C4E904024FF40D
:1026800000522046C4E90623C4E9083302F056F894
:1026900008B1FFF72FFE6C62A56303B030BD00BF29
:1026A000000001400038024050130020286402401E
:1026B00010B5044686B01422002101A81BF006F8CC
:1026C00022680E4B9A4216D1002300930C4B0D4802
:1026D0001A6B42F001021A631B6B03F001030093B3
:1026E000009B4FF480720223CDE9012301A901234D
:1026F000059302F0E9FE06B010BD00BF00000140E6
:102700000038024000000240F0B587B00023039378
:10271000304B1C68002C5AD101221A602E4B0094B9
:102720009A6B2E4842F001029A639B6B03F00103FF
:102730000093022703260C25009B01A94FF6837303
:10274000CDE90137CDE9046502F0BEFE48F233134E
:102750002348059501A9CDE90137CDE9034602F0EB
:10276000B3FE4CF203731F48059501A9CDE901376B
:10277000CDE9034602F0A8FE40F2FF631A48059532
:1027800001A9CDE90137CDE9034602F09DFE4FF6E0
:102790003F031648059501A9CDE90137CDE9034668
:1027A00002F092FE4FF47F431148059501A9CDE94F
:1027B0000137CDE9034602F087FE0D230D4805954C
:1027C00001A9CDE90137CDE9034602F07DFE07B04E
:1027D000F0BD00BF941500200038024000100240F8
:1027E00000180240000C0240002002400014024089
:1027F000001C02400008024008B5174B1A6852BB83
:1028000001221A60154A1648936B23F00103936363
:102810004FF6837102F03EFF124848F2331102F086
:1028200039FF11484CF2037102F034FF0F4840F2B7
:10283000FF6102F02FFF0E484FF63F0102F02AFF22
:102840000C484FF47F4102F025FFBDE808400A48DC
:102850000D2102F01FBF08BD901500200038024076
:102860000010024000180240000C0240002002400C
:1028700000140240001C02400008024030B501462E
:1028800089B00022362001F0DFFE362001F00EFF75
:102890000025154B02951A6C144C42F010021A6474
:1028A0001B6C03F01003029301A903A8029B04F020
:1028B000C7F904F0B5F90E4B236040F2E733E3604B
:1028C00040000C4BB0FBF3F00138606020462561FE
:1028D000A56004F0A7FF20B9204604F0DDFD09B093
:1028E00030BD0120FBE700BF0038024098150020F2
:1028F0000010004040420F007047FEE7FEE7FEE791
:10290000FEE77047014804F057BE00BF981500204D
:10291000014802F04DB800BF50130020014803F0F9
:102920009EBC00BF20140020014802F02DB900BF5A
:1029300010130020014802F02EBB00BFB01300208E
:102940000120704708B51AF067FE162303604FF0A8
:10295000FF3008BD08B51AF05FFE16230360FEE7DE
:1029600070B50D4614460E46731B9C4201DC204692
:1029700070BDAFF3008006F8010BF5E770B50D46AA
:1029800014460E46731B9C4201DC204670BD16F8AF
:10299000010BAFF30080F5E74FF0FF3070474FF4C5
:1029A00000534B60002070470120704700207047A3
:1029B0000A4A116808B5034609B909491160106847
:1029C000694603448B4206D91AF026FE0C230360A5
:1029D0004FF0FF3008BD1360FCE700BFE01500209A
:1029E00070C20020704710B5042104461AF038F870
:1029F000204610BD012908B506D0022908D059B9D2
:102A000000F0DCFC006808BD00F0D8FC4068FAE784
:102A100000F0D4FC8068F6E70020F4E70048704737
:102A200060EE01080220704713B5002451B103681D
:102A300001948DF8034001AA9C680DF10303A0479F
:102A400002B010BD0846FBE7408970478089704797
:102A50008088704783798088184480B27047C07935
:102A600000F07F007047C079C0097047704710B50B
:102A70000821044619F0F4FF204610BD7047704746
:102A800000F596730868496803C37047704770473C
:102A90004160704770470000064BC0F84831002382
:102AA000C0F84C3100F5A073C0F84401C0F83C31C7
:102AB000704700BF592B000801230372704770470D
:102AC000704710B4C26841685410034601EB6200BD
:102AD000D20748BF0A599B685DF8044B48BFD358DA
:102AE000184743682BB183682BB9C06800F0010018
:102AF0007047184670470120704710B50C210446F6
:102B000019F0AEFF204610BD10B51021044619F093
:102B1000A7FF204610BD10B54FF4AC71044619F064
:102B20009FFF204610BD08B50BF0D8F9BDE808405E
:102B30000BF09CBD10B50446D0F83C0158B10368B9
:102B4000DB68984738B1D4F83C0103689B68984724
:102B50000023C4F83C3110BD2DE9F14FD0E9545A9F
:102B60000746A86803681B6A9847B0F5927F05D2AC
:102B7000454B464AA32146481AF01CFD6868036885
:102B80001B6A98470F2803D8424B404AA421F2E71A
:102B9000E86803681B6A98470B2803D83E4B3B4AFA
:102BA000A521E8E7DFF8F8900BF098F90BF09CF915
:102BB000D9F8000010B10368DB689847D9F8000025
:102BC00010B103681B689847DFF8D880D8F8000078
:102BD00010B103685B699847D7F8380110B10368F2
:102BE0005B689847D8F8000010B103681B689847E5
:102BF000D7F8380110B103689B689847E868036804
:102C000000215B6A98474FF0000B244B0360044699
:102C1000C0F804B080F808B0A868036859465B6A39
:102C20009847064600F026FC6868036859465B6AC8
:102C300098473146054600F003FCC9F80040C7F844
:102C40003851C8F80060E5B12B1DCAF80030336870
:102C5000C5F808A03046DB68F56398472B6828461E
:102C60001B689847214630460CF012FD2368204629
:102C70001B69984723685B69204601B0BDE8F04FA7
:102C800018472B46E1E700BF98EE010826EF010840
:102C90002AF0010871F0010814F1010824F201087A
:102CA0000CC0002008C00020F8B5044617460E46A8
:102CB0000BF034F9104B0025C4E954760F4E1C601C
:102CC000C4E952550E4B306823600E4BC4E95035B1
:102CD000036829469B68C4E94E559847284600F08A
:102CE00021FB336893F876200AB1D86C00B9986854
:102CF00012F065FD2046F8BD18C00020CCBF0020B2
:102D0000D8F10108C0F10108064BC0F84831002392
:102D1000C0F84C3100F5A073C0F84401C0F83C3154
:102D2000704700BF592B0008006A7047406A70471F
:102D300070478B8880690A68DB0A50F823001044CA
:102D4000704710B5C2B1137BB3B1547BD27A240261
:102D500004F4E0641443C26998B202EB840213885D
:102D60008B4202D192F9020010BD05D8013880B221
:102D700004320028F3D1F7E70020F5E710B5282149
:102D8000044619F06DFE204610BD000030B589B034
:102D90000446BDF850500695BDF84C5005959DF879
:102DA000405004959DF83C5003959DF8385002958D
:102DB0009DF8345001959DF8305000950CF0C8F8FE
:102DC000064B2360119BA361129BE361159B236259
:102DD000169B6362204609B030BD00BF48F201086F
:102DE0000020704781807047C18070470181704723
:102DF000418170477047704770477047704710B403
:102E0000C4880368121B84885B6D091B12B25DF8CD
:102E1000044B09B218474FF6FF7383814FF0FF331D
:102E200003621368C3611060704770477047704752
:102E30007047704790F825201AB190F8242002B10D
:102E400018607047704770477047704730B4C26869
:102E500044685510034604EB6200D20748BF62592C
:102E60009B6830BC48BFD358184743682BB1836870
:102E70002BB9C06800F00100704718467047012068
:102E8000704710B51021044619F0EAFD204610BD28
:102E900010B54FF49271044619F0E2FD204610BDC2
:102EA00090F8252012B103685B691847704700F15C
:102EB000E0028A4202D10368DB6A1847704770B5A6
:102EC000036804461B6B154698472368294620462D
:102ED0005B6BBDE87040184770B504461D46BDF9F0
:102EE0001060FFF7ECFF2368294620469B6B98474C
:102EF000236831462046DB6BBDE870401847000070
:102F00000022C0E90122C0E90322C0E90522C0E98C
:102F100007224FF480728284014A0260704700BF2A
:102F2000A0F2010810B52622044600211AF0CEFBBB
:102F30002046FFF7E5FF044B2360FF2384F826308B
:102F40000023A362204610BD480402082DE9F04F7B
:102F500004468DB0A04600250CF0EEF9574BE56312
:102F600048F8403B04F16C09404604F19806FFF72D
:102F7000D9FF4846FFF7D6FF2946262230461AF0E9
:102F8000A5FB3046FFF7BCFF4D4BC4F898304D4BC6
:102F9000C4F8C03004F1E0074FF6FF7B4FF47F0325
:102FA0004FF0FF3AC4F8CC302946C4E936A5A4F85E
:102FB000C4B02622C4F8C850A4F8D050C4F8D450E5
:102FC00038461AF083FB3846FFF79AFF3E4BC4F8A9
:102FD000E0303E4BA4F810B1C4E945343C4B84F8D2
:102FE00012B14FF001024FF4F07BC4E9473584F889
:102FF0000421A4F80EA12A4629464046C4F80851E7
:1030000084F80C51CDF800B04FF44873FFF764FF1B
:103010004FF07F43A3662A464FF44873294648463B
:10302000CDF800B0FFF758FFC4F894A0AD223046A9
:10303000D921FFF744FF0DF1100A264BC4F8C83020
:1030400031465046A4F8CC5008F0B4FD9AE8070089
:1030500004F1D40383E807001A4B0A930AA9304607
:10306000ADF82C5009F0FAF83846F72240F23B113F
:10307000FFF725FF0AAA4FF0010309A93846ADF86A
:103080002830ADF8245009F047F904F58A73C4F8E4
:103090000831201D4146039007F0F6F90398494690
:1030A00007F0F2F90398314607F0EEF90398394634
:1030B00007F0EAF920460DB0BDE8F08F20F30108D3
:1030C0008803020890EE01081405020808F30108BD
:1030D000AF2E00085D0702FF7047000030B5154DA8
:1030E0002C78BFF35B8F14F001048DB01ED12846FD
:1030F00019F0B8FCD0B13F2307930F4B06930F4B49
:103100000F49104808940122CDE904430423CDE976
:103110000132CDE909440A2303940094FFF736FEF7
:1031200009481AF065FA284619F0A8FC05480DB0C0
:1031300030BD00BFE41500205C2102088C2102088C
:10314000184F0190E8150020D930000870470000A2
:1031500030B5154D2C78BFF35B8F14F001048DB0A2
:103160001ED1284619F07EFCD0B13F2307930F4BA8
:1031700006930F4B0F49104808940122CDE90443F0
:103180000423CDE90132CDE90944142303940094CA
:10319000FFF7FCFD09481AF02BFA284619F06EFCDF
:1031A00005480DB030BD00BF101600206021020898
:1031B00090210208284F0190141600204D3100087C
:1031C0007047000030B5164D2C78BFF35B8F14F0BC
:1031D00001048DB020D1284619F044FCE0B13F2312
:1031E0000793104B0693104B05930123CDE903433E
:1031F000029304220823CDE900320C490C480894BC
:1032000028231022CDE90944FFF7C0FD09481AF030
:10321000EFF9284619F032FC05480DB030BD00BF6B
:103220003C1600206421020894210208384F0190C6
:1032300040160020C1310008002070470020704770
:103240000EB403B503AB002153F8042B01930BF02C
:10325000B1FC02B05DF804EB03B070470CB407B5E5
:1032600004AB53F8042B01930BF0A4FC03B05DF8FE
:1032700004EB02B070470000436C10B5044673B312
:10328000038F2BB9184B194AC02119481AF092F92B
:10329000C38E00EB43035B8C0BB30CF091FF238FC9
:1032A000012B03D8134B144AC521EEE7E28E531CC1
:1032B0009BB2092B194688BFA3F10A0104EB410117
:1032C00040F63F10498C814209D10A2B04EB42029F
:1032D00028BF002304EB4303508C588451842046BC
:1032E000BDE810400CF050BE50F3010859F301083E
:1032F00004F401084EF401085CF401080CF0FCBD74
:1033000010B586B002AC84E806001A460AAB0593F5
:103310000193099B00932146089B0AF001F906B02E
:1033200010BD000038B518BB124B13481B68134979
:10333000B3B11A689C681A4402605A681A440A6059
:103340001C440F4B00221A8000F038F8054600F0AC
:1033500033F80C4B1C600C4B1D600C4B188007E0C5
:103360000B4B03600B4B0B600B4B1C68002CE8D124
:1033700038BD00BF681600206C16002070160020B3
:10338000741600201CC0002024C0002020C0002093
:103390001C5001901850019044500190044B1B6840
:1033A00053F82100034B1B6803EB4000704700BF3C
:1033B000701600206C1600200120704700487047EE
:1033C0007816002010B5FFF7C3FE044C2060FFF70D
:1033D000F9FE6060FFF782FEA06010BD7816002045
:1033E000704710B54FF4AC71044619F039FB204614
:1033F00010BD10B50446D0F8540100F012F8204674
:10340000BDE810400AF0EABB10B50446FFF74CFCDB
:10341000014B2360204610BD38F5010800220260F0
:1034200070477047704704387047704710B51021D7
:10343000044619F015FB204610BDA0F10400F5E785
:1034400010B500228260044AC16002F108042032F3
:103450000460426010BD00BF7CF5010870477047F2
:10346000FFF7F2BC10B54FF49271044619F0F8FA68
:10347000204610BD10B50446FFF768FD014B2360E0
:10348000204610BDACF5010810B5044C04F820002E
:1034900004EB800042708170C37010BD8416002060
:1034A0002D28A8BF2D20C0F15A0007EE900AF8EE93
:1034B000E77A10B517EE900AFDF756F819A3D3E98D
:1034C0000023FDF7A9F80022134BFDF7CFF9FDF714
:1034D000B5FA00EE100A19F0EBFA1049104A002074
:1034E0000B7813700123CC5C07EE104AB8EEC77A54
:1034F000C7EE007AFCEEE77A17EE904AD454013317
:10350000042BF0D10130752801F1040102F104020D
:10351000E6D110BDAFF30080008066408416002025
:1035200058180020F1D4C853FB210940F8B5184AB7
:10353000184C0020012740F6F826937851781B029A
:1035400043EA0143D17825460B43172107FA01FCD2
:103550001CEA030F14BF4FF0960C4FF04B0C0139CF
:1035600025F802CBF2D21830B04202F1040204F185
:103570003004E2D16422002107481AF0A7F8054878
:1035800040F62A31FEF774FB044B00221A60F8BDA6
:1035900058180020301A0020203000202C1A00205B
:1035A00008B5FEF76DFB024B01221A6008BD00BF93
:1035B0002C1A002010B5002414F001031DBFFF23B6
:1035C0001A46E1211A4608BF194620460134FFF782
:1035D0005BFF752CF0D12D20FFF762FFBDE8104096
:1035E000FFF7A4BFFFF7E6BF70470020704710B594
:1035F000044600F075FBA821E0B200F08DFB80B21C
:1036000010BD000013B500240221C0B28DF80740A0
:1036100000F082FB8DF807009DF8073003F00F03E0
:103620008DF807309DF80730022B88BF8DF80740D2
:10363000044B9DF807209DF807005A7000229A70ED
:1036400002B010BD8630002073B5154C1546A37826
:1036500062789A420E461FD903B3012B14BF002192
:10366000092104230DEB0302C0B200F073FB9DF8A7
:1036700004309DF805201B0203F47063134333806C
:103680009DF806309DF807201B0203F47063134376
:103690002B80A3780133A37002B070BD0321E0E753
:1036A000863000200122A421C0B200F01BBB002202
:1036B000A421C0B200F016BBFFF7F9BF70470000AD
:1036C00010B4094B1A7890420AD05978884207D032
:1036D0000AB129B9012298545DF8044B00F000BBEF
:1036E0005DF8044B704700BF8430002038B50446B5
:1036F0000D460020C949FDF7EDFDC9490320FDF73E
:10370000E9FDC8490020FDF7E5FDC7490220FDF7A6
:10371000E1FDC4490020FDF7DDFDC4490020FDF7AF
:10372000D9FD0A2000F02EFBC1490020FDF7D2FD93
:10373000C0490020FDF7CEFD0A2000F023FBBE4962
:103740000020FDF7C7FDBD490020FDF7C3FDBC49C2
:103750000020FDF7BFFDBB490020FDF7BBFDBA49C6
:103760000020FDF7B7FDB9490020FDF7B3FDAB49D7
:103770000020FDF7AFFDB6490020FDF7ABFDB549D0
:103780000020FDF7A7FDB4490020FDF7A3FDB349D4
:103790000020FDF79FFDB2490020FDF79BFDB149D8
:1037A0000020FDF797FDB0490020FDF793FDAF49DC
:1037B0000020FDF78FFDA3490020FDF78BFD974901
:1037C0000020FDF787FDAA490220FDF783FDA949E6
:1037D0000020FDF77FFDA8490020FDF77BFDA749EC
:1037E0000020FDF777FDA6490020FDF773FDA549F0
:1037F0000020FDF76FFDA4490020FDF76BFD954902
:103800000020FDF767FDA1490020FDF763FD934906
:103810000020FDF75FFD9E490020FDF75BFD9D49FF
:103820000020FDF757FD9C490220FDF753FD7D491F
:103830000020FDF74FFD99490620FDF74BFD984903
:103840000020FDF747FD97490E20FDF743FD9649FF
:103850000020FDF73FFD95490E20FDF73BFD944903
:103860000020FDF737FD93490A20FDF733FD92490B
:103870000020FDF72FFD91490020FDF72BFD694940
:103880000020FDF727FD8E490A20FDF723FD8D4915
:103890000020FDF71FFD8C490F20FDF71BFD80491F
:1038A0000020FDF717FD89490F20FDF713FD7E4924
:1038B0000020FDF70FFD86490A20FDF70BFD7C492E
:1038C0000020FDF707FD83490F20FDF703FD7A492E
:1038D0000020FDF7FFFC80490F20FDF7FBFC7F492E
:1038E0000020FDF7F7FC7E490A20FDF7F3FC7D4937
:1038F0000020FDF7EFFC7C490A20FDF7EBFC49496D
:103900000020FDF7E7FC79490A20FDF7E3FC6D494B
:103910000020FDF7DFFC76490F20FDF7DBFC604956
:103920000020FDF7D7FC73490F20FDF7D3FC5E495B
:103930000020FDF7CFFC70490A20FDF7CBFC5C4965
:103940000020FDF7C7FC6D490F20FDF7C3FC5A4965
:103950000020FDF7BFFC6A490F20FDF7BBFC3D4985
:103960000020FDF7B7FC67490020FDF7B3FC66496E
:103970000020FDF7AFFC65490020FDF7ABFC644972
:103980000020FDF7A7FC63490020FDF7A3FC2349B5
:103990000020FDF79FFC60490320FDF79BFC1F49B9
:1039A0000020FDF797FC1D490020FDF793FC5B49C3
:1039B0001020FDF78FFC19490020FDF78BFC5849BA
:1039C0001020FDF787FC00205649FDF783FC782086
:1039D00000F0D8F9002C00F0C780022C03D1524926
:1039E0000020FDF777FC012D0BD150490020FDF799
:1039F00071FC4F490420FDF76DFC4E490420FDF792
:103A000069FC4D490020FDF765FC4C490020FDF79D
:103A100061FC4B490020FDF75DFC93E0DCF50108FB
:103A200042F60108F2F50108C8F6010808F6010897
:103A30001EF6010834F601083AF601083CF60108C2
:103A40003EF6010840F60108DEF50108E0F5010840
:103A5000E2F50108E4F50108E6F50108E8F50108DA
:103A6000EAF50108ECF50108EEF50108F0F50108AA
:103A700046F70108F4F50108F6F50108F8F5010824
:103A8000FAF50108FCF50108FEF5010800F6010849
:103A900002F6010804F6010849F701084CF701088D
:103AA00006F6010853F701080AF6010862F7010853
:103AB0000CF6010846F601080EF601082CF601087E
:103AC00051F6010810F601085CF601086CF60108D1
:103AD0007CF6010887F6010897F6010812F601083E
:103AE000A7F6010814F60108B2F60108BDF60108B0
:103AF000CBF60108DBF60108EBF60108F6F6010843
:103B000006F701082EF6010830F6010832F6010822
:103B100036F6010838F6010816F7010824F70108FF
:103B200035F7010816F6010818F601081CF6010819
:103B30001AF701081FF7010820F6010822F601080C
:103B400024F601080A490020FDF7C4FB09490020BA
:103B5000FDF7C0FB08490020FDF7BCFB074900202A
:103B6000FDF7B8FB002038BD0549204639E700BF06
:103B700026F6010828F60108DCF501082AF60108F6
:103B80001AF6010870B52F4D88B0284602F06EFA7B
:103B90000446002854D12C4A2C4B2D4E0190C5E9E7
:103BA00000234FF48043C5E90200C5E90430C5E9AC
:103BB00006002862336B43F002033363336B0590D6
:103BC00003F002030193019B4FF480711223CDE9AE
:103BD000031302200423CDE9060303A91D4801F0C5
:103BE00073FC4FF4007303A91A48039301F06CFCB3
:103BF0000294336C43F400133364336C03F4001306
:103C00000293029B336A43F400133362336A23F452
:103C100000133362224605211F2000F015FD1F20EE
:103C200000F044FD22460521202000F00DFD20205B
:103C300000F03CFD284608B0BDE8704001F0BCBF74
:103C400008B070BD8C30002000540040801A06007F
:103C5000003802400004024010B586B0194B002421
:103C600000941A6B42F001021A631B6B03F001030C
:103C70000093009B69B90123CDE90131022304932C
:103C8000114B039153F8200001A901F01DFC06B06F
:103C900010BD0129FBD1022304934FF48813029332
:103CA000094B019153F82000039401A901F00CFC89
:103CB00022460F21062000F0C7FC062000F0F6FC8B
:103CC000E5E700BF003802404800002008B5034B7C
:103CD000012153F8200001F07FFD08BD48000020BD
:103CE000FFF750BF7FB501238DF817206422CDE97F
:103CF00001320DF1170200920A460146054802F012
:103D00001DF820B1034801F0FFFFFFF73BFF07B0AC
:103D10005DF804FB8C3000207FB500230A468DF847
:103D200017304FF47A710123CDE901310DF11701FC
:103D300000910146064802F091F820B1044801F0D4
:103D4000E3FFFFF71FFF9DF8170007B05DF804FBC6
:103D50008C3000201FB54FF47A74CDE90134009205
:103D600001230A460146064802F078F8044620B1CD
:103D7000034801F0C9FFFFF705FFA0B204B010BD72
:103D80008C30002000F03ABC00B595B04FF4807242
:103D90000C924FF08071052206920F9100220121B2
:103DA000CDE90312CDE90D22CDE911220B92139238
:103DB0000092102202924FF4800203460191059274
:103DC00006A96A46044802F0CAFC003818BF012060
:103DD00015B05DF804FB00BFE030002000B595B0E1
:103DE0004FF480730C93062306931748002341F287
:103DF000883206A9CDE90D33CDE911330F930B932A
:103E0000139302F068FCE0B90223CDE900330122EC
:103E10001023CDE902324FF480010523CDE90513CB
:103E20004FF0807304900F93074841F288336A463D
:103E300006A902F094FC003818BF012015B05DF807
:103E400004FB0120FAE700BFE030002000B591B08C
:103E50004FF480730893EB2302934FF4406309936C
:103E60004FF4005305934FF040720023CDE90A321E
:103E70000A22079202A96A4606480F93CDE90D333C
:103E8000019302F0BCFC003818BF012011B05DF8AE
:103E900004FB00BFE030002070B588B02C4B2D48EB
:103EA000002400949A6B42F002029A639A6B02F02B
:103EB00002020092009A9A6942F002029A619A699B
:103EC00022F002029A6101941A6B42F002021A6314
:103ED0001A6B02F002020192019A02941A6B42F0EC
:103EE00020021A631B6B03F0200302934022029B03
:103EF0000223CDE9032301210323CDE905130A267B
:103F000003A90925079601F0DFFA4FF4806303A99E
:103F1000114803930594079501F0D6FA4FF44073C6
:103F200003A90D480393079601F0CEFAC02303A915
:103F300009480393079501F0C7FA22460F215B2039
:103F400000F082FB5B2000F0B1FB08B070BD00BF49
:103F5000003802400004024000140240F0B5484C12
:103F6000484B236091B0204602F0A2FB054610B1F9
:103F7000012011B0F0BD01462046FFF78DFF01265C
:103F80001023C4E90166E3604FF0807797FAA7F346
:103F9000B3FA83F3013B236120464FF48063C4E905
:103FA0000535C4E9075502F02FFB0028E0D1CDE923
:103FB0000900CDE90D004FF4807566230B90079042
:103FC0000F9041F2883202A920460895029302F030
:103FD00082FB08B10420CCE7992341F2883202A980
:103FE0002046029302F077FB0028F3D141F288309B
:103FF000FFF7CAFE0028EDD1CDE90900CDE90C603C
:10400000CDE90E008523079041F2883202A92046AF
:10401000089502930B9702F05EFB0028DAD141F27B
:1040200088320DF10701204602F0CEFC0028D1D1E4
:10403000FFF7D4FE0028CDD181230293F02292FA1B
:10404000A2F29DF807300A21B2FA82F201FA02F2D6
:1040500003F00F03134302A941F2883220468DF882
:10406000073002F038FB0028B4D141F288320DF15C
:104070000701204602F04CFC00283FF47AAFA9E784
:10408000E0300020001000A008B55B2000F01CFB11
:104090001448402101F0FEFA13484FF4806101F00A
:1040A000F9FA11484FF4807101F0F4FA0E484FF418
:1040B000007101F0EFFA0C48802101F0EBFA0A4898
:1040C000402101F0E7FA094B9A6942F002029A6135
:1040D0009A6922F002029A619A6B22F002029A63B4
:1040E00008BD00BF00040240001402400038024036
:1040F00038B5084D084B2B60284602F0D9FA044623
:1041000028B901462846FFF7BFFF204638BD0124E5
:10411000FBE700BFE0300020001000A02DE9F743CE
:10412000214C224D01264FF00008102721468146E0
:104130004FF6FF722846C4E90067C4E90268CDF86B
:10414000048003F0E5F8304600F058FA02232146D7
:104150004FF6FF722846C4E90037C4E9026803F04D
:10416000D7F80323C4E90037214608234FF6FF722E
:104170002846C4E9023803F0CBF84FF40C730193DE
:104180000423C4E900372146019BA6604FF6FF7265
:104190002846E36003F0BCF84946284603B0BDE872
:1041A000F04303F0D3B800BF2C31002018320020B8
:1041B00070B506468EB0002800F0BD805F4B6048A9
:1041C000604C002500959A6B42F001029A639A6B4D
:1041D00002F001020092009A01951A6B42F48002EB
:1041E0001A631A6B02F480020192019A02951A6B0B
:1041F00042F004021A631A6B02F004020292029A5D
:1042000003951A6B42F008021A631A6B02F0080257
:104210000392039A04951A6B42F010021A631A6B08
:1042200002F010020492049A05951A6B42F02002E3
:104230001A631A6B02F020020592059A06951A6B12
:1042400042F040021A631A6B02F040020692069A8C
:1042500007951A6B42F080021A631A6B02F0800213
:104260000792079A08951A6B42F480721A631B6BC7
:1042700003F4807308930222089B0C920123CDE97A
:104280000A2309A90C220D92099301F01DF94CF2A1
:1042900003732D48099309A901F016F94FF68373AA
:1042A0002A48099309A901F00FF94FF63F0328485E
:1042B000099309A901F008F948F233132548099335
:1042C00009A901F001F94FF60C732348099309A9D4
:1042D00001F0FAF840F2FF632048099309A901F0C0
:1042E000F3F880224FF40073C4E902234FF4806195
:1042F0004FF48053C4E904134FF48043C4E90635F6
:104300004FF40033C4E908350323C4E90A352563B3
:10431000134B3463204623606560A66300F08EFA79
:10432000204600F00BFA38202A46052100F08CF9CF
:10433000382000F0BBF90EB070BD00BF003802405D
:1043400000080240B8310020000C0240001002407A
:104350000014024000180240001C024000200240ED
:104360001064024038B5194C194D1A4B23600721CF
:1043700002230422C5E90031C5E90221C5E904335D
:10438000AB61E26040232022C4E9042300214FF402
:10439000C073C4E906314FF400604FF48053C4E9A0
:1043A00008032046C4E90111A162FFF701FF294675
:1043B000204602F07FFF084C003818BF0120207013
:1043C00040F26950FFF7AAFE207838BD183200206D
:1043D0003C310020400100A04D00002008B548B14C
:1043E000382000F071F90448044B0360BDE8084030
:1043F00000F024BA08BD00BF58310020106402400C
:1044000038B5074C074B2360204602F073FF064D7A
:10441000014618B928702046FFF7E0FF287838BD1C
:1044200018320020400100A04C0000202DE9F0418E
:10443000164D174C2B68064620780F4698476B6838
:1044400054209847C0B211280AD06B687020984752
:10445000C0B270231128237004D00320BDE8F0817E
:10446000542323700B4BDFF830802078C8F80050BD
:10447000BE4234BF01260C261E70AB689847D8F8A0
:1044800000302078DB6898470020E7E72000002014
:104490004C32002064320020603200202DE9F04FC1
:1044A000DFF8DCB0334ADBF8003006461B691078D1
:1044B00085B09847307058B1DFF8C8802E4F06F1AC
:1044C000020A03AD02A94FF0000933784B4503D827
:1044D000002005B0BDE8F08FDBF8003025485B69AF
:1044E000007801912A469847244B01991B7813F0D4
:1044F000080F1FBF0A88288808802A809A0741BFB2
:104500000A88C2F5477203320A805B0748BF2B88CE
:10451000D8F8002031F8020B42BFC3F5EF73013326
:104520002B8093B290428CBFC31A1B1A9BB235F8F2
:10453000022B01933B689CB29A4288BF141B019BDB
:1045400098BFA41AA4B21C44C446052CC8BFC8F81E
:104550000000DCF80030C8BF3A60BE462AF8023BD3
:10456000DEF80030AAF8023008F10408043709F137
:104570000109AAE74C3200205832002064320020A2
:104580006032002050320020054BD3F8882042F4DE
:104590007002C3F888204FF000629A60704700BF35
:1045A00000ED00E008B50B4B1A6842F400721A6087
:1045B0001A6842F480621A601A6842F480721A60C3
:1045C000032000F02FF80020FEF758F9FDF794FEC5
:1045D000002008BD003C0240034A044B11681B78D0
:1045E0000B441360704700BF683200205400002065
:1045F000014B1868704700BF6832002038B5044688
:10460000FFF7F6FF631C1CBF054B1B78054618BF60
:10461000E418FFF7EDFF431BA342FAD338BD00BFF8
:10462000540000200749CA6822F4E0620302120421
:1046300003F4E063120C134343F0BF6343F400330D
:10464000CB60704700ED00E0164B30B5DC68C4F37A
:104650000224C4F10705231D042D28BF0425062BC1
:104660004FF0FF338CBF033C002403FA05F521EA29
:104670000501A34022EA0302A140002841EA020307
:10468000ACBF00F16040084A4FEA0313B8BF00F026
:104690000F00DBB2AABF00F56140135480F800336D
:1046A00030BD00BF00ED00E014ED00E0002808DBA5
:1046B0004209012300F01F0003FA00F0014B43F808
:1046C0002200704700E100E000280DDB43090122D1
:1046D00000F01F0002FA00F02033044A42F82300E1
:1046E000BFF34F8FBFF36F8F704700BF00E100E053
:1046F00010B5044650B1437903F0FF0213B90271BB
:10470000FDF71AFE01236371002010BD0120FCE7B4
:10471000036810B5084C0246D9B210391820B1FB15
:10472000F0F0205CD06523F47F7020F003005F2957
:1047300088BF0430906510BD89F7010870B5044644
:10474000FFF756FF0546002C73D0022384F835305E
:104750002268002384F83430136823F001031360C7
:1047600021680B68D8072FD40B68334DA0691D4012
:10477000D4E901231343E2681343226913436269B6
:104780001343E26903431343226A1343626A042A10
:1047900043EA050302BFD4E90B5635432B430B60B4
:1047A0004B69042A23F0070343EA020333D1A26AC8
:1047B000E56A13437DB390B9012A21D032F0020299
:1047C00029D1EA0127D51EE0FFF712FF401B05287B
:1047D000C6D920236365032084F8350070BDB0F589
:1047E000005F14D1032A16D801A050F822F000BFB0
:1047F00007480008C34700080748000801480008A8
:10480000B5F1C07F07D1402363650120E4E7022AA8
:10481000F9D9032AD5D04B612046FFF779FFE26D25
:104820003F239340836000200123606584F8353086
:10483000D4E70120D2E700BF3F8010F038B505462D
:1048400020B390F83530022BDCB21DD003681A6813
:1048500022F0010200241A6021221C605C609C602E
:10486000DC601C615A61FFF753FFEA6D3F23934000
:10487000C5E90F44C5E91144C5E9134483606C657B
:1048800085F8344085F83540204638BD0124FBE7E3
:1048900070B590F83440866D012C31D0012480F839
:1048A000344090F83540012C4FF000054FF00204E1
:1048B00024D180F8354004684565256825F48025B5
:1048C000256063608368402B0EBFA260A160E26038
:1048D000C26D08BFE1603F239340B360236843F09B
:1048E00016032360036C1BB1236843F008032360A5
:1048F000236843F001032360002070BD80F834502A
:104900000220FAE770B50446866DFFF771FE94F851
:104910003530022B054606D080236365002384F8DA
:104920003430012070BD23681A6822F016021A6024
:104930005A6922F080025A61226C0AB9A26C1AB13B
:104940001A6822F008021A601A6822F001021A603E
:1049500023681B6813F001030AD1E16D3F228A40EE
:10496000B260012284F8352084F834301846D9E743
:10497000FFF73EFE401B0528EAD92023636503208C
:10498000002384F8350084F83430CBE790F83530D4
:10499000022B03D080234365012070470268052362
:1049A00080F83530136823F001031360002070474E
:1049B000F7B5002301935C4B856D1F68C36D2E68AE
:1049C00008229A40324204460CD001680868400729
:1049D00008D5086820F004000860AA60626D42F003
:1049E0000102626501229A40324208D02168496979
:1049F000090641BFAA60626D42F0020262650422AC
:104A00009A40324208D021680968880741BFAA60ED
:104A1000626D42F00402626510229A40324210D068
:104A20002368196809070CD5AA601A68500337D59E
:104A30001B68190301D4236C00E0A36C0BB1204662
:104A40009847E16D20228A4032423AD023681868A4
:104A5000C60636D5AA6094F83520052A1A6827D1EB
:104A600022F016021A605A6922F080025A61226C02
:104A70000AB9A26C1AB11A6822F008021A603F2320
:104A80008B40AB60012384F83530002384F8343048
:104A9000236D002B45D0204603B0BDE8F0401847F9
:104AA0001A68D2055EBF1A6822F008021A60C2E7CF
:104AB000500327D51B68190331D4636C0BB1204612
:104AC0009847636D6BB3636DDA0719D522684FF4AD
:104AD0001653B7FBF3F7052384F83530136823F03A
:104AE00001031360019B0133BB42019302D8136899
:104AF000DB07F7D4012384F83530002384F8343001
:104B0000E36CC6E71A6812F4807208D1196821F0C4
:104B100010011960012384F8353084F83420E36BE8
:104B2000CCE703B0F0BD00BF5000002010B5044634
:104B300030B390F8393003F0FF021BB980F8382009
:104B4000FDF712FC22686168022384F8393013688B
:104B500023F440330B431360536BA16823F0070326
:104B60000B435363136CE16823F47F5323F03F033B
:104B70000B43136400200123E06384F8393010BD37
:104B80000120FCE770477047036870B55E681D68D8
:104B9000F207044614D5E90512D51A6822F480728A
:104BA0001A60C26B42F00102C26301229A600423C0
:104BB00080F83930002380F83830436903B19847D2
:104BC000B20616D5AB0414D523681A6822F4005235
:104BD0001A6020229A60E36B43F00203E36304232C
:104BE00084F83930002384F8383063690BB12046EB
:104BF0009847300716D5290514D523681A6822F47A
:104C000000621A6008229A60E36B43F00403E363D6
:104C1000042384F83930002384F8383063690BB1F9
:104C20002046984772070BD56B0509D523681A688B
:104C300022F480621A6004229A602046FFF7A2FFE5
:104C4000B00714D5A90512D523681A6822F400729A
:104C50001A6002229A60E36BE363012384F839301F
:104C6000002384F8383023690BB120469847F206B8
:104C700013D5EB0411D523681A6822F480521A6008
:104C800010229A60E36BE363012384F83930002338
:104C900084F838302046FFF776FF70BDF0B590F805
:104CA0003830012B4FF002032BD0012280F839302D
:104CB00080F8382000EB0113D3E907425D6A184FF2
:104CC00044EA0242093C012C9CBF05F07F431A4391
:104CD0004FEA0116036888BF42EA056299B9596A2A
:104CE00039400A435A62012C82699A6103D8426AA8
:104CF00022F07F429A62012380F83930002380F845
:104D000038301846F0BDD96939400A43DA61821952
:104D1000012C92691A619CBF25F07F451D62EAE76C
:104D2000F0FFFC002DE9F04107460D4614461E46F3
:104D3000FFF75EFC80463B685A6FD2070AD506999A
:104D400044EA062444EA014444EA8514DC6600206F
:104D5000BDE8F081FFF74CFCA0EB0800B0F57A7FCE
:104D6000E9D90320F4E7037C012B5DD0036800221E
:104D7000C3F8C420C3F8C820CA0748BFD3F8C4206A
:104D8000816142BF6FEA12426FEA0242C3F8C42057
:104D90008A0742BFD3F8C42042F4F812C3F8C420F3
:104DA0004A0742BFD3F8C82042F00102C3F8C82026
:104DB0000A0742BFD3F8C82042F00202C3F8C82055
:104DC000CA0642BFD3F8C82042F00C02C3F8C8207C
:104DD0008A0642BFD3F8C82042F01002C3F8C820A8
:104DE0004A0642BFD3F8C82042F02002C3F8C820C8
:104DF0000A0642BFD3F8C82042F04002C3F8C820D8
:104E0000CA0542BFD3F8C82042F08002C3F8C820C8
:104E10008A0542BFD3F8C82042F4F852C3F8C8202C
:104E200000230374184670470220704773B50D467F
:104E30000446002800F0A980437C0BB9FDF7B6FAC0
:104E400003236374002300932368D3F8302442F0D3
:104E50008072C3F83024D3F8303403F080730093A9
:104E6000009BFFF7C5FB06462268D2F80C34D90434
:104E70007AD5D2F8303423F45E3323F4FE73C2F8CB
:104E80003034D5E90003DB0243EA8003A868D2F896
:104E9000301443EA00430B43C2F83034002301933B
:104EA000D2F8303443F00103C2F83034D2F8303451
:104EB00003F0010301930120019BFFF79FFBFFF724
:104EC00097FB06462368D3F80C24D20556D5D3F8B1
:104ED000A020616842F00602C3F8A020D3F8942015
:104EE00022F00302C3F89420D3F894200A4342F03E
:104EF0000102C3F89420D3F8A420E16822F0030251
:104F0000C3F8A420D3F8A4200A43C3F8A4209A68C5
:104F1000A16822F0FF029A609A680A439A606A6860
:104F20001B49012A38BF01224A43A96801F0030145
:104F30008A4029684FF4FA504143B2FBF1F2D3F8AA
:104F4000181421F03F01C3F81814D3F818140020E6
:104F50000A43C3F81824C3F8C400C3F8C8000123E7
:104F60006061A061637407E0FFF742FB801BB0F54E
:104F70007A7F7FF679AF032002B070BDFFF738FB70
:104F8000801BB0F57A7F9DD9F5E70120F4E700BFDB
:104F900000093D0070470368D3F80C24D10710B511
:104FA000044608D5D3F80824D20704D50122C3F853
:104FB0001024FCF7E3F92368D3F80C24910709D5F2
:104FC000D3F80824920705D50222C3F810242046FE
:104FD000FCF708FAA369002B4ED02168D1F8BC2059
:104FE000D1F8C430D1F8C0001A40D1F8C83091B21D
:104FF000034019B1616941F00101616112F4F81FC8
:105000001EBF626942F002026261D80742BF626954
:1050100042F004026261990742BF626942F00802ED
:10502000626113F00C0F1EBF626942F010026261F0
:10503000DA0642BF626942F020026261980642BF0E
:10504000626942F040026261590642BF626942F001
:10505000800262611A0642BF626942F48072626134
:1050600013F4F85F1EBF636943F4007363616369FF
:1050700013B12046FFF78EFF10BD037C012B0BD030
:1050800003681A6B22F003021A631A6B1143196347
:1050900000230374184670470220704730B5037C24
:1050A000012B6AD003680C685A6B42F001025A6304
:1050B000D3F8002422F00102C3F80024D3F800241E
:1050C00042F00102C3F80024DA6822F00302DA6039
:1050D000DA682243DA605A6922F007025A61D1E99C
:1050E00006522A434D695C692A4322435A611A6970
:1050F0004D6822F00F021A611C692C431C61D3F821
:10510000004424F00E04C3F80044D3F800248C6853
:1051100042EA4502C3F800245A6E120C12045A6681
:105120005A6E22435A66D3F8002422F0F002C3F8E4
:105130000024D1E903252A434D6AD3F800442A43C9
:105140000D6A896A2A432243C3F800249A6E22F02A
:1051500001029A669A6E0A439A66D3F8082442F0CE
:105160000102C3F80824D3F8082442F00202C3F86D
:10517000082400230374184630BD0220FCE7000019
:1051800030B5037C012B2AD00268164B946E234065
:105190009366D1E900352B438D68946E2B43CD681F
:1051A0002B430D692B434D692B438D692B43CD69EF
:1051B0002B430D6A2B434D6A2B438D6A2B43CD6ADB
:1051C000096B2B4323439366936E23F0020393668C
:1051D000936E0B43936600230374184630BD022080
:1051E000FCE700BFFF80F0FE037C012B0BD00368BF
:1051F000DA6A22F01F02DA62DA6A1143D962002306
:105200000374184670470220704730B5037C012BA9
:1052100035D0D1E900240368944238BF1446D3F84E
:10522000982002F0FC22C3F89820D3F8982042EA94
:1052300004422243C3F89820D3F89C2002F4004291
:10524000C3F89C20D1E90225120642EA05420D6905
:10525000D3F89C4049692A432243C3F89C20D3F8E1
:10526000A42022F47F42C3F8A420D3F8A42042EA69
:105270000122C3F8A42000230374184630BD022085
:10528000FCE7000030B5037C012B5CD003680C68A0
:105290009A688D6822F47F429A609A6842EA0422F2
:1052A0009A609A6F4C6892B29A679A6F42EA044287
:1052B0009A679C6F254A14409C679C6F2C439C679F
:1052C000DC6FCD681440DC67DC6F2C43DC67D3F8FF
:1052D00080400D691440C3F88040D3F880402C43CF
:1052E000C3F88040D3F884404D691440C3F884402B
:1052F000D3F884402C43C3F88440D3F8844024F08E
:105300008074C3F88440D3F884408D692C43C3F87B
:105310008440D3F88840CD69096A1440C3F88840B6
:10532000D3F888402C43C3F88840D3F88C402240FF
:10533000C3F88C20D3F88C200A43C3F88C200023B8
:105340000374184630BD0220FCE700BF0000FFFFD9
:10535000037C012B82B01CD00268002300935168AB
:1053600041F001015160516801F001010091009983
:105370000193D2F8041441F00801C2F80414D2F8E1
:105380000424037402F008020192019A184602B044
:1053900070470220FBE7037C012B1FBF0268D2F895
:1053A000043443F00403C2F804341DBF0023037423
:1053B00018460220704737B5057C012D044609D0F8
:1053C00001250574069D0095FFF7ACFC00232374AE
:1053D00003B030BD0220FBE72DE9F84F1C46037CEB
:1053E000012BDDE90A9806460F46154653D00123E6
:1053F0000374FFF7FDF8834631684B6F13F0010A21
:105400001AD0032C20464FF0000228BF032082420E
:105410001ED1A31AC1F8709042441BBB0134220272
:1054200045EA871592B22402154304F47F042C4305
:10543000CC661846337409E0FFF7DAF8A0EB0B00EE
:10544000B0F57A7FD8D986F810A00320BDE8F88F90
:1054500018F8023001324FEAC20C03FA0CF349EAA1
:105460000309D4E7042B4FF0000C9E46604628BF8A
:105470004FF0040E12F800804FEAC009013008FA1C
:1054800009F886454CEA080CF4D1C1F870C0A3EBCA
:105490000E037244C1E70220D8E7037C012B10D031
:1054A0000368D3F81C2422F0C062C3F81C24D3F88C
:1054B0001C2442EA4161C3F81C14002303741846FB
:1054C00070470220704700002DE9F74FDFF8C091C8
:1054D0006D4A00230D6801249C4004EA050CAC438E
:1054E00040F0B9804D6805F003044FEA43080326F5
:1054F000671E06FA08F6012F6FEA060634D8876899
:1055000007EA060ECF6807FA08F747EA0E07876032
:10551000476827EA0C0EC5F300179F4047EA0E07BD
:105520004760C76807EA060E8F6807FA08F747EA78
:105530000E07022CC76019D14FEAD30A00EB8A0A82
:1055400003F0070BDAF820704FEA8B0B4FF00F0EC9
:105550000EFA0BFE27EA0E0E0F6907FA0BF747EA61
:105560000E07CAF8207001E0032CDAD1076804FAAC
:1055700008F43E40264315F4403F06606BD04FF0E0
:10558000000ACDF804A0D9F84460404C46F48046A7
:10559000C9F84460D9F8446006F480460196019E3B
:1055A00023F0030606F1804606F59C3603F0030E51
:1055B000D6F808804FEA8E0E0F2707FA0EF7A042A2
:1055C00028EA07074ED004F58064A0424CD004F5C9
:1055D0008064A0424AD004F58064A04248D004F51B
:1055E0008064A04246D004F58064A04244D004F513
:1055F0008064A04242D004F58064A04240D004F50B
:105600008064A0423ED004F58064A0420CBF09240F
:105610000A2404FA0EF43C43B46094686FEA0C0662
:10562000EF0254BF34404CEA04049460D468AF02E3
:1056300054BF34404CEA0404D4605468AF0354BFF0
:1056400034404CEA040454601468ED0354BF344001
:105650004CEA040414600133102B7FF43BAF03B019
:10566000BDE8F08F5446D4E70124D2E70224D0E706
:105670000324CEE70424CCE70524CAE70624C8E7C0
:105680000724C6E70824C4E7003C014000000240AC
:10569000003802402DE9F04F4A4CDFF83091DFF836
:1056A00030A1DFF830B10022012303FA02FE3EEA06
:1056B00001030EEA01076ED122F0030505F18045D2
:1056C00005F59C35404BD5F8088002F0030C4FEAF5
:1056D0008C0C0F2606FA0CF6984206EA08085FD0F2
:1056E00003F5806398425DD003F5806398425BD0F8
:1056F00003F58063984259D003F58063984257D0F0
:10570000484557D0504557D0584557D003F580539A
:10571000984255D003F5806398420CBF09230A23B1
:1057200003FA0CF3434513D1236823EA07032360EC
:10573000636823EA07036360E36823EA0703E3601F
:10574000A36823EA0703A360AB6823EA0603AB6000
:1057500005680326530006FA03F325EA03050560EE
:1057600022FA06F500EB850502F0070C2E6A4FEAD7
:105770008C0C0F2707FA0CF726EA07072F62C5687B
:1057800025EA0305C560456825EA0E05456085687C
:1057900025EA030383600132102A85D1BDE8F08F2A
:1057A0000023BDE70123BBE70223B9E70323B7E7E3
:1057B0000423B5E70523B3E70623B1E70723AFE7E3
:1057C0000823ADE7003C0140000002400014024005
:1057D00000180240001C02400369194214BF012056
:1057E000002070470AB1816170470904FBE74369F3
:1057F00001EA030221EA030141EA024181617047A3
:1058000001684B6913F480634FF0000210D06FF40D
:1058100080634B612023026380F83D3080F83E2096
:10582000036C80F83C2043F00403036401207047BC
:10583000184670472DE9F84606460F4691461D4624
:105840004FEA114A3368BAF1010F0CBF5C699C69D9
:1058500027EA0404A4B2B4FA84F46409A14501D08F
:10586000002017E06A1CEED0FEF7C2FE089BC01AAB
:10587000A84201D8002DE5D100232022336386F809
:105880003D2086F83E30326C86F83C3042F02002F3
:1058900032640120BDE8F8862DE9F04104460F4648
:1058A000164698462568686927EA000080B2B8B1B4
:1058B0006B695A0516D52B6843F400732B606FF49F
:1058C00080636B6120220023236384F83D2084F8E9
:1058D0003E30226C42F00402226484F83C30012005
:1058E000BDE8F081731CDED0FEF782FEA0EB08005D
:1058F000B04201D8002ED5D100232022236384F8A2
:105900003D2084F83E30226C42F02002E4E770B57E
:1059100004460D46164621684B6913F0400301D03A
:10592000002010E04A69D2060ED56FF010024A61DD
:105930002022236384F83D2084F83E30226C2264C8
:1059400084F83C30012070BDFEF752FE801BA84257
:1059500001D8002DDFD100232022236384F83D20CD
:1059600084F83E30226C42F02002E8E770B504462D
:105970000D46164623685B695B0701D5002070BDA4
:105980002046FFF73DFFA8B96A1CF3D0FEF730FEB2
:10599000801BA84201D8002DECD1002320222363D4
:1059A00084F83D2084F83E30226C84F83C3042F08C
:1059B000200222640120E2E770B504460D46164637
:1059C00023685B691B0601D5002070BD2046FFF7E8
:1059D00017FFA8B96A1CF3D0FEF70AFE801BA84285
:1059E00001D8002DECD100232022236384F83D2030
:1059F00084F83E30226C84F83C3042F0200222646D
:105A00000120E2E72DE9F0431546026885B0DDE9A3
:105A10000C789946136843F4807313600E463B4636
:105A2000CDF8008000224FF001110446FFF702FF7D
:105A3000236838B11B68DB0502D54FF4007323647B
:105A400003200AE006F0FE061E61194943463A4665
:105A50002046FFF721FF18B1012005B0BDE8F08313
:105A6000236803905A6903929B690393424639461F
:105A70002046039BFFF7A0FF40B1236C042B01BF1E
:105A80002268136843F400731360E5E7B9F1010F6E
:105A9000236802D1EDB21D61DFE72A0A1A61394697
:105AA00042462046FFF788FF0028E6D12368F1E749
:105AB000020001002DE9FF479A46036815461A685F
:105AC00042F480621A601A68DDE90C7842F4807250
:105AD0001A600E463B46CDF8008000224FF00111BF
